{
  "contractName": "CryptoCards",
  "abi": [
    {
      "constant": true,
      "inputs": [],
      "name": "name",
      "outputs": [
        {
          "name": "",
          "type": "string"
        }
      ],
      "payable": false,
      "stateMutability": "view",
      "type": "function"
    },
    {
      "constant": true,
      "inputs": [
        {
          "name": "_tokenId",
          "type": "uint256"
        }
      ],
      "name": "getApproved",
      "outputs": [
        {
          "name": "",
          "type": "address"
        }
      ],
      "payable": false,
      "stateMutability": "view",
      "type": "function"
    },
    {
      "constant": false,
      "inputs": [
        {
          "name": "_to",
          "type": "address"
        },
        {
          "name": "_tokenId",
          "type": "uint256"
        }
      ],
      "name": "approve",
      "outputs": [],
      "payable": false,
      "stateMutability": "nonpayable",
      "type": "function"
    },
    {
      "constant": true,
      "inputs": [],
      "name": "totalSupply",
      "outputs": [
        {
          "name": "",
          "type": "uint256"
        }
      ],
      "payable": false,
      "stateMutability": "view",
      "type": "function"
    },
    {
      "constant": false,
      "inputs": [
        {
          "name": "_from",
          "type": "address"
        },
        {
          "name": "_to",
          "type": "address"
        },
        {
          "name": "_tokenId",
          "type": "uint256"
        }
      ],
      "name": "transferFrom",
      "outputs": [],
      "payable": false,
      "stateMutability": "nonpayable",
      "type": "function"
    },
    {
      "constant": true,
      "inputs": [
        {
          "name": "_owner",
          "type": "address"
        },
        {
          "name": "_index",
          "type": "uint256"
        }
      ],
      "name": "tokenOfOwnerByIndex",
      "outputs": [
        {
          "name": "",
          "type": "uint256"
        }
      ],
      "payable": false,
      "stateMutability": "view",
      "type": "function"
    },
    {
      "constant": false,
      "inputs": [
        {
          "name": "_from",
          "type": "address"
        },
        {
          "name": "_to",
          "type": "address"
        },
        {
          "name": "_tokenId",
          "type": "uint256"
        }
      ],
      "name": "safeTransferFrom",
      "outputs": [],
      "payable": false,
      "stateMutability": "nonpayable",
      "type": "function"
    },
    {
      "constant": true,
      "inputs": [
        {
          "name": "_tokenId",
          "type": "uint256"
        }
      ],
      "name": "exists",
      "outputs": [
        {
          "name": "",
          "type": "bool"
        }
      ],
      "payable": false,
      "stateMutability": "view",
      "type": "function"
    },
    {
      "constant": true,
      "inputs": [
        {
          "name": "_index",
          "type": "uint256"
        }
      ],
      "name": "tokenByIndex",
      "outputs": [
        {
          "name": "",
          "type": "uint256"
        }
      ],
      "payable": false,
      "stateMutability": "view",
      "type": "function"
    },
    {
      "constant": true,
      "inputs": [
        {
          "name": "_tokenId",
          "type": "uint256"
        }
      ],
      "name": "ownerOf",
      "outputs": [
        {
          "name": "",
          "type": "address"
        }
      ],
      "payable": false,
      "stateMutability": "view",
      "type": "function"
    },
    {
      "constant": true,
      "inputs": [
        {
          "name": "_owner",
          "type": "address"
        }
      ],
      "name": "balanceOf",
      "outputs": [
        {
          "name": "",
          "type": "uint256"
        }
      ],
      "payable": false,
      "stateMutability": "view",
      "type": "function"
    },
    {
      "constant": true,
      "inputs": [],
      "name": "symbol",
      "outputs": [
        {
          "name": "",
          "type": "string"
        }
      ],
      "payable": false,
      "stateMutability": "view",
      "type": "function"
    },
    {
      "constant": false,
      "inputs": [
        {
          "name": "_to",
          "type": "address"
        },
        {
          "name": "_approved",
          "type": "bool"
        }
      ],
      "name": "setApprovalForAll",
      "outputs": [],
      "payable": false,
      "stateMutability": "nonpayable",
      "type": "function"
    },
    {
      "constant": false,
      "inputs": [
        {
          "name": "_from",
          "type": "address"
        },
        {
          "name": "_to",
          "type": "address"
        },
        {
          "name": "_tokenId",
          "type": "uint256"
        },
        {
          "name": "_data",
          "type": "bytes"
        }
      ],
      "name": "safeTransferFrom",
      "outputs": [],
      "payable": false,
      "stateMutability": "nonpayable",
      "type": "function"
    },
    {
      "constant": true,
      "inputs": [
        {
          "name": "_tokenId",
          "type": "uint256"
        }
      ],
      "name": "tokenURI",
      "outputs": [
        {
          "name": "",
          "type": "string"
        }
      ],
      "payable": false,
      "stateMutability": "view",
      "type": "function"
    },
    {
      "constant": true,
      "inputs": [
        {
          "name": "_owner",
          "type": "address"
        },
        {
          "name": "_operator",
          "type": "address"
        }
      ],
      "name": "isApprovedForAll",
      "outputs": [
        {
          "name": "",
          "type": "bool"
        }
      ],
      "payable": false,
      "stateMutability": "view",
      "type": "function"
    },
    {
      "inputs": [
        {
          "name": "_plasma",
          "type": "address"
        }
      ],
      "payable": false,
      "stateMutability": "nonpayable",
      "type": "constructor"
    },
    {
      "anonymous": false,
      "inputs": [
        {
          "indexed": true,
          "name": "_from",
          "type": "address"
        },
        {
          "indexed": true,
          "name": "_to",
          "type": "address"
        },
        {
          "indexed": false,
          "name": "_tokenId",
          "type": "uint256"
        }
      ],
      "name": "Transfer",
      "type": "event"
    },
    {
      "anonymous": false,
      "inputs": [
        {
          "indexed": true,
          "name": "_owner",
          "type": "address"
        },
        {
          "indexed": true,
          "name": "_approved",
          "type": "address"
        },
        {
          "indexed": false,
          "name": "_tokenId",
          "type": "uint256"
        }
      ],
      "name": "Approval",
      "type": "event"
    },
    {
      "anonymous": false,
      "inputs": [
        {
          "indexed": true,
          "name": "_owner",
          "type": "address"
        },
        {
          "indexed": true,
          "name": "_operator",
          "type": "address"
        },
        {
          "indexed": false,
          "name": "_approved",
          "type": "bool"
        }
      ],
      "name": "ApprovalForAll",
      "type": "event"
    },
    {
      "constant": false,
      "inputs": [],
      "name": "register",
      "outputs": [],
      "payable": false,
      "stateMutability": "nonpayable",
      "type": "function"
    },
    {
      "constant": false,
      "inputs": [
        {
          "name": "tokenId",
          "type": "uint256"
        },
        {
          "name": "_data",
          "type": "bytes"
        }
      ],
      "name": "depositToPlasmaWithData",
      "outputs": [],
      "payable": false,
      "stateMutability": "nonpayable",
      "type": "function"
    },
    {
      "constant": false,
      "inputs": [
        {
          "name": "tokenId",
          "type": "uint256"
        }
      ],
      "name": "depositToPlasma",
      "outputs": [],
      "payable": false,
      "stateMutability": "nonpayable",
      "type": "function"
    }
  ],
  "bytecode": "0x60806040523480156200001157600080fd5b50604051602080620012c583398101604081815291518282018352600b82527f43727970746f436172647300000000000000000000000000000000000000000060208084019182528451808601909552600385527f43434300000000000000000000000000000000000000000000000000000000009085015282519193916200009d91600491620000dd565b508051620000b3906005906020840190620000dd565b5050600c8054600160a060020a031916600160a060020a0393909316929092179091555062000182565b828054600181600116156101000203166002900490600052602060002090601f016020900481019282601f106200012057805160ff191683800117855562000150565b8280016001018555821562000150579182015b828111156200015057825182559160200191906001019062000133565b506200015e92915062000162565b5090565b6200017f91905b808211156200015e576000815560010162000169565b90565b61113380620001926000396000f3006080604052600436106101065763ffffffff7c010000000000000000000000000000000000000000000000000000000060003504166306fdde03811461010b578063081812fc14610195578063095ea7b3146101c957806318160ddd146101ef5780631aa3a0081461021657806323b872dd1461022b5780632f745c5914610255578063319876f81461027957806336ce5e47146102d757806342842e0e146102ef5780634f558e79146103195780634f6ccce7146103455780636352211e1461035d57806370a082311461037557806395d89b4114610396578063a22cb465146103ab578063b88d4fde146103d1578063c87b56dd14610440578063e985e9c514610458575b600080fd5b34801561011757600080fd5b5061012061047f565b6040805160208082528351818301528351919283929083019185019080838360005b8381101561015a578181015183820152602001610142565b50505050905090810190601f1680156101875780820380516001836020036101000a031916815260200191505b509250505060405180910390f35b3480156101a157600080fd5b506101ad600435610516565b60408051600160a060020a039092168252519081900360200190f35b3480156101d557600080fd5b506101ed600160a060020a0360043516602435610531565b005b3480156101fb57600080fd5b5061020461062c565b60408051918252519081900360200190f35b34801561022257600080fd5b506101ed610632565b34801561023757600080fd5b506101ed600160a060020a0360043581169060243516604435610651565b34801561026157600080fd5b50610204600160a060020a0360043516602435610700565b34801561028557600080fd5b5060408051602060046024803582810135601f81018590048502860185019096528585526101ed95833595369560449491939091019190819084018382808284375094975061074d9650505050505050565b3480156102e357600080fd5b506101ed600435610781565b3480156102fb57600080fd5b506101ed600160a060020a03600435811690602435166044356107ac565b34801561032557600080fd5b506103316004356107e4565b604080519115158252519081900360200190f35b34801561035157600080fd5b50610204600435610801565b34801561036957600080fd5b506101ad600435610836565b34801561038157600080fd5b50610204600160a060020a0360043516610860565b3480156103a257600080fd5b50610120610893565b3480156103b757600080fd5b506101ed600160a060020a036004351660243515156108f4565b3480156103dd57600080fd5b50604080516020601f6064356004818101359283018490048402850184019095528184526101ed94600160a060020a0381358116956024803590921695604435953695608494019181908401838280828437509497506109839650505050505050565b34801561044c57600080fd5b506101206004356109c2565b34801561046457600080fd5b50610331600160a060020a0360043581169060243516610a77565b60048054604080516020601f600260001961010060018816150201909516949094049384018190048102820181019092528281526060939092909183018282801561050b5780601f106104e05761010080835404028352916020019161050b565b820191906000526020600020905b8154815290600101906020018083116104ee57829003601f168201915b505050505090505b90565b600090815260016020526040902054600160a060020a031690565b600061053c82610836565b9050600160a060020a03838116908216141561055757600080fd5b80600160a060020a031633600160a060020a0316148061057c575061057c8133610a77565b151561058757600080fd5b600061059283610516565b600160a060020a03161415806105b05750600160a060020a03831615155b1561062757600082815260016020908152604091829020805473ffffffffffffffffffffffffffffffffffffffff1916600160a060020a03878116918217909255835186815293519093918516927f8c5be1e5ebec7d5bd14f71427d1e84f3dd0314c0f7b2291e5b200ac8c7c3b925928290030190a35b505050565b60085490565b60005b600581121561064e57610646610aa5565b600101610635565b50565b8061065c3382610ab5565b151561066757600080fd5b600160a060020a038416151561067c57600080fd5b600160a060020a038316151561069157600080fd5b61069b8483610b14565b6106a58483610bc1565b6106af8383610cfa565b82600160a060020a031684600160a060020a03167fddf252ad1be2c89b69c2b068fc378daa952ba7f163c4a11628f55a4df523b3ef846040518082815260200191505060405180910390a350505050565b600061070b83610860565b821061071657600080fd5b600160a060020a038316600090815260066020526040902080548390811061073a57fe5b9060005260206000200154905092915050565b600c54600160a060020a0316151561076457600080fd5b600c5461077d903390600160a060020a03168484610983565b5050565b600c54600160a060020a0316151561079857600080fd5b600c5461064e903390600160a060020a0316835b806107b73382610ab5565b15156107c257600080fd5b6107de8484846020604051908101604052806000815250610983565b50505050565b600090815260208190526040902054600160a060020a0316151590565b600061080b61062c565b821061081657600080fd5b600880548390811061082457fe5b90600052602060002001549050919050565b600081815260208190526040812054600160a060020a031680151561085a57600080fd5b92915050565b6000600160a060020a038216151561087757600080fd5b50600160a060020a031660009081526002602052604090205490565b60058054604080516020601f600260001961010060018816150201909516949094049384018190048102820181019092528281526060939092909183018282801561050b5780601f106104e05761010080835404028352916020019161050b565b33600160a060020a031682600160a060020a03161415151561091557600080fd5b600160a060020a03338116600081815260036020908152604080832094871680845294825291829020805486151560ff199091168117909155825190815291517f17307eab39ab6107e8899845ad3d59bd9653f200f220920489ca2b5937696c319281900390910190a35050565b8161098e3382610ab5565b151561099957600080fd5b6109a4858585610651565b6109b085858585610d43565b15156109bb57600080fd5b5050505050565b60606109cd826107e4565b15156109d857600080fd5b6000828152600a602090815260409182902080548351601f600260001961010060018616150201909316929092049182018490048402810184019094528084529091830182828015610a6b5780601f10610a4057610100808354040283529160200191610a6b565b820191906000526020600020905b815481529060010190602001808311610a4e57829003601f168201915b50505050509050919050565b600160a060020a03918216600090815260036020908152604080832093909416825291909152205460ff1690565b60085460010161064e3382610ecc565b600080610ac183610836565b905080600160a060020a031684600160a060020a03161480610afc575083600160a060020a0316610af184610516565b600160a060020a0316145b80610b0c5750610b0c8185610a77565b949350505050565b81600160a060020a0316610b2782610836565b600160a060020a031614610b3a57600080fd5b600081815260016020526040902054600160a060020a03161561077d576000818152600160209081526040808320805473ffffffffffffffffffffffffffffffffffffffff1916905580518481529051600160a060020a038616927f8c5be1e5ebec7d5bd14f71427d1e84f3dd0314c0f7b2291e5b200ac8c7c3b925928290030190a35050565b6000806000610bd08585610f1b565b600084815260076020908152604080832054600160a060020a0389168452600690925290912054909350610c0b90600163ffffffff610fb016565b600160a060020a038616600090815260066020526040902080549193509083908110610c3357fe5b90600052602060002001549050806006600087600160a060020a0316600160a060020a0316815260200190815260200160002084815481101515610c7357fe5b6000918252602080832090910192909255600160a060020a0387168152600690915260408120805484908110610ca557fe5b6000918252602080832090910192909255600160a060020a0387168152600690915260409020805490610cdc9060001983016110ca565b50600093845260076020526040808520859055908452909220555050565b6000610d068383610fc2565b50600160a060020a039091166000908152600660209081526040808320805460018101825590845282842081018590559383526007909152902055565b600080610d5885600160a060020a0316611051565b1515610d675760019150610ec3565b84600160a060020a031663f0b9e5ba8786866040518463ffffffff167c01000000000000000000000000000000000000000000000000000000000281526004018084600160a060020a0316600160a060020a0316815260200183815260200180602001828103825283818151815260200191508051906020019080838360005b83811015610dff578181015183820152602001610de7565b50505050905090810190601f168015610e2c5780820380516001836020036101000a031916815260200191505b50945050505050602060405180830381600087803b158015610e4d57600080fd5b505af1158015610e61573d6000803e3d6000fd5b505050506040513d6020811015610e7757600080fd5b50517fffffffff0000000000000000000000000000000000000000000000000000000081167ff0b9e5ba0000000000000000000000000000000000000000000000000000000014925090505b50949350505050565b610ed68282611059565b600880546000838152600960205260408120829055600182018355919091527ff3f7a9fe364faab93b216da50a3214154f22a0a2b415b23a84c8169e8b636ee3015550565b81600160a060020a0316610f2e82610836565b600160a060020a031614610f4157600080fd5b600160a060020a038216600090815260026020526040902054610f6b90600163ffffffff610fb016565b600160a060020a039092166000908152600260209081526040808320949094559181529081905220805473ffffffffffffffffffffffffffffffffffffffff19169055565b600082821115610fbc57fe5b50900390565b600081815260208190526040902054600160a060020a031615610fe457600080fd5b600081815260208181526040808320805473ffffffffffffffffffffffffffffffffffffffff1916600160a060020a038716908117909155835260029091529020546110319060016110bd565b600160a060020a0390921660009081526002602052604090209190915550565b6000903b1190565b600160a060020a038216151561106e57600080fd5b6110788282610cfa565b604080518281529051600160a060020a038416916000917fddf252ad1be2c89b69c2b068fc378daa952ba7f163c4a11628f55a4df523b3ef9181900360200190a35050565b8181018281101561085a57fe5b8154818355818111156106275760008381526020902061062791810190830161051391905b8082111561110357600081556001016110ef565b50905600a165627a7a72305820c4422ff2e4688e02003eb0ce78db1945e1303d3eeb322741351cbcaa4dab3a790029",
  "source": "pragma solidity ^0.4.22;\n\nimport 'openzeppelin-solidity/contracts/token/ERC721/ERC721Token.sol';\n\ncontract CryptoCards is ERC721Token(\"CryptoCards\", \"CCC\") {\n\n    mapping(address => bool) private registered;\n\n    address plasma;\n\n    constructor (address _plasma) public {\n        plasma = _plasma;\n    }\n\n    function register() external {\n        // require(!registered[msg.sender]);\n        for (int j = 0; j<5 ; j++) {\n            create(); // Give each new player 5 cards\n        }\n        // registered[msg.sender] = true;\n    }\n\n\tfunction create() private {\n\t\tuint256 tokenId = allTokens.length + 1;\n\t\t_mint(msg.sender, tokenId);\n\t}\n\n    function depositToPlasmaWithData(uint tokenId, bytes _data) public {\n        require(plasma != address(0));\n        safeTransferFrom(msg.sender, plasma, tokenId, _data);\n    }\n\n    function depositToPlasma(uint tokenId) public {\n        require(plasma != address(0));\n        safeTransferFrom(msg.sender, plasma, tokenId);\n    }\n\n}\n",
  "sourcePath": "/home/opsec/loom/PLASMA-RESEARCH/cash-erc721/server/contracts/Core/Cards.sol",
  "compiler": {
    "name": "solc",
    "version": "0.4.23+commit.124ca40d.Emscripten.clang"
  },
  "schemaVersion": "2.0.0",
  "updatedAt": "2018-05-24T12:52:36.764Z"
}