{
  "contractName": "CryptoCards",
  "abi": [
    {
      "constant": true,
      "inputs": [],
      "name": "name",
      "outputs": [
        {
          "name": "",
          "type": "string"
        }
      ],
      "payable": false,
      "stateMutability": "view",
      "type": "function"
    },
    {
      "constant": true,
      "inputs": [
        {
          "name": "_tokenId",
          "type": "uint256"
        }
      ],
      "name": "getApproved",
      "outputs": [
        {
          "name": "",
          "type": "address"
        }
      ],
      "payable": false,
      "stateMutability": "view",
      "type": "function"
    },
    {
      "constant": false,
      "inputs": [
        {
          "name": "_to",
          "type": "address"
        },
        {
          "name": "_tokenId",
          "type": "uint256"
        }
      ],
      "name": "approve",
      "outputs": [],
      "payable": false,
      "stateMutability": "nonpayable",
      "type": "function"
    },
    {
      "constant": true,
      "inputs": [],
      "name": "totalSupply",
      "outputs": [
        {
          "name": "",
          "type": "uint256"
        }
      ],
      "payable": false,
      "stateMutability": "view",
      "type": "function"
    },
    {
      "constant": false,
      "inputs": [
        {
          "name": "_from",
          "type": "address"
        },
        {
          "name": "_to",
          "type": "address"
        },
        {
          "name": "_tokenId",
          "type": "uint256"
        }
      ],
      "name": "transferFrom",
      "outputs": [],
      "payable": false,
      "stateMutability": "nonpayable",
      "type": "function"
    },
    {
      "constant": true,
      "inputs": [
        {
          "name": "_owner",
          "type": "address"
        },
        {
          "name": "_index",
          "type": "uint256"
        }
      ],
      "name": "tokenOfOwnerByIndex",
      "outputs": [
        {
          "name": "",
          "type": "uint256"
        }
      ],
      "payable": false,
      "stateMutability": "view",
      "type": "function"
    },
    {
      "constant": false,
      "inputs": [
        {
          "name": "_from",
          "type": "address"
        },
        {
          "name": "_to",
          "type": "address"
        },
        {
          "name": "_tokenId",
          "type": "uint256"
        }
      ],
      "name": "safeTransferFrom",
      "outputs": [],
      "payable": false,
      "stateMutability": "nonpayable",
      "type": "function"
    },
    {
      "constant": true,
      "inputs": [
        {
          "name": "_tokenId",
          "type": "uint256"
        }
      ],
      "name": "exists",
      "outputs": [
        {
          "name": "",
          "type": "bool"
        }
      ],
      "payable": false,
      "stateMutability": "view",
      "type": "function"
    },
    {
      "constant": true,
      "inputs": [
        {
          "name": "_index",
          "type": "uint256"
        }
      ],
      "name": "tokenByIndex",
      "outputs": [
        {
          "name": "",
          "type": "uint256"
        }
      ],
      "payable": false,
      "stateMutability": "view",
      "type": "function"
    },
    {
      "constant": true,
      "inputs": [
        {
          "name": "_tokenId",
          "type": "uint256"
        }
      ],
      "name": "ownerOf",
      "outputs": [
        {
          "name": "",
          "type": "address"
        }
      ],
      "payable": false,
      "stateMutability": "view",
      "type": "function"
    },
    {
      "constant": true,
      "inputs": [
        {
          "name": "_owner",
          "type": "address"
        }
      ],
      "name": "balanceOf",
      "outputs": [
        {
          "name": "",
          "type": "uint256"
        }
      ],
      "payable": false,
      "stateMutability": "view",
      "type": "function"
    },
    {
      "constant": true,
      "inputs": [],
      "name": "symbol",
      "outputs": [
        {
          "name": "",
          "type": "string"
        }
      ],
      "payable": false,
      "stateMutability": "view",
      "type": "function"
    },
    {
      "constant": false,
      "inputs": [
        {
          "name": "_to",
          "type": "address"
        },
        {
          "name": "_approved",
          "type": "bool"
        }
      ],
      "name": "setApprovalForAll",
      "outputs": [],
      "payable": false,
      "stateMutability": "nonpayable",
      "type": "function"
    },
    {
      "constant": false,
      "inputs": [
        {
          "name": "_from",
          "type": "address"
        },
        {
          "name": "_to",
          "type": "address"
        },
        {
          "name": "_tokenId",
          "type": "uint256"
        },
        {
          "name": "_data",
          "type": "bytes"
        }
      ],
      "name": "safeTransferFrom",
      "outputs": [],
      "payable": false,
      "stateMutability": "nonpayable",
      "type": "function"
    },
    {
      "constant": true,
      "inputs": [
        {
          "name": "_tokenId",
          "type": "uint256"
        }
      ],
      "name": "tokenURI",
      "outputs": [
        {
          "name": "",
          "type": "string"
        }
      ],
      "payable": false,
      "stateMutability": "view",
      "type": "function"
    },
    {
      "constant": true,
      "inputs": [
        {
          "name": "_owner",
          "type": "address"
        },
        {
          "name": "_operator",
          "type": "address"
        }
      ],
      "name": "isApprovedForAll",
      "outputs": [
        {
          "name": "",
          "type": "bool"
        }
      ],
      "payable": false,
      "stateMutability": "view",
      "type": "function"
    },
    {
      "inputs": [
        {
          "name": "_plasma",
          "type": "address"
        }
      ],
      "payable": false,
      "stateMutability": "nonpayable",
      "type": "constructor"
    },
    {
      "anonymous": false,
      "inputs": [
        {
          "indexed": true,
          "name": "_from",
          "type": "address"
        },
        {
          "indexed": true,
          "name": "_to",
          "type": "address"
        },
        {
          "indexed": false,
          "name": "_tokenId",
          "type": "uint256"
        }
      ],
      "name": "Transfer",
      "type": "event"
    },
    {
      "anonymous": false,
      "inputs": [
        {
          "indexed": true,
          "name": "_owner",
          "type": "address"
        },
        {
          "indexed": true,
          "name": "_approved",
          "type": "address"
        },
        {
          "indexed": false,
          "name": "_tokenId",
          "type": "uint256"
        }
      ],
      "name": "Approval",
      "type": "event"
    },
    {
      "anonymous": false,
      "inputs": [
        {
          "indexed": true,
          "name": "_owner",
          "type": "address"
        },
        {
          "indexed": true,
          "name": "_operator",
          "type": "address"
        },
        {
          "indexed": false,
          "name": "_approved",
          "type": "bool"
        }
      ],
      "name": "ApprovalForAll",
      "type": "event"
    },
    {
      "constant": false,
      "inputs": [],
      "name": "register",
      "outputs": [],
      "payable": false,
      "stateMutability": "nonpayable",
      "type": "function"
    },
    {
      "constant": false,
      "inputs": [
        {
          "name": "tokenId",
          "type": "uint256"
        },
        {
          "name": "_data",
          "type": "bytes"
        }
      ],
      "name": "depositToPlasmaWithData",
      "outputs": [],
      "payable": false,
      "stateMutability": "nonpayable",
      "type": "function"
    },
    {
      "constant": false,
      "inputs": [
        {
          "name": "tokenId",
          "type": "uint256"
        }
      ],
      "name": "depositToPlasma",
      "outputs": [],
      "payable": false,
      "stateMutability": "nonpayable",
      "type": "function"
    }
  ],
  "bytecode": "0x60806040523480156200001157600080fd5b506040516020806200131683398101604081815291518282018352600b82527f43727970746f436172647300000000000000000000000000000000000000000060208084019182528451808601909552600385527f43434300000000000000000000000000000000000000000000000000000000009085015282519193916200009d91600491620000dd565b508051620000b3906005906020840190620000dd565b5050600c8054600160a060020a031916600160a060020a0393909316929092179091555062000182565b828054600181600116156101000203166002900490600052602060002090601f016020900481019282601f106200012057805160ff191683800117855562000150565b8280016001018555821562000150579182015b828111156200015057825182559160200191906001019062000133565b506200015e92915062000162565b5090565b6200017f91905b808211156200015e576000815560010162000169565b90565b61118480620001926000396000f3006080604052600436106101065763ffffffff7c010000000000000000000000000000000000000000000000000000000060003504166306fdde03811461010b578063081812fc14610195578063095ea7b3146101c957806318160ddd146101ef5780631aa3a0081461021657806323b872dd1461022b5780632f745c5914610255578063319876f81461027957806336ce5e47146102d757806342842e0e146102ef5780634f558e79146103195780634f6ccce7146103455780636352211e1461035d57806370a082311461037557806395d89b4114610396578063a22cb465146103ab578063b88d4fde146103d1578063c87b56dd14610440578063e985e9c514610458575b600080fd5b34801561011757600080fd5b5061012061047f565b6040805160208082528351818301528351919283929083019185019080838360005b8381101561015a578181015183820152602001610142565b50505050905090810190601f1680156101875780820380516001836020036101000a031916815260200191505b509250505060405180910390f35b3480156101a157600080fd5b506101ad600435610516565b60408051600160a060020a039092168252519081900360200190f35b3480156101d557600080fd5b506101ed600160a060020a0360043516602435610531565b005b3480156101fb57600080fd5b5061020461062c565b60408051918252519081900360200190f35b34801561022257600080fd5b506101ed610632565b34801561023757600080fd5b506101ed600160a060020a036004358116906024351660443561069b565b34801561026157600080fd5b50610204600160a060020a036004351660243561074a565b34801561028557600080fd5b5060408051602060046024803582810135601f81018590048502860185019096528585526101ed9583359536956044949193909101919081908401838280828437509497506107979650505050505050565b3480156102e357600080fd5b506101ed6004356107cb565b3480156102fb57600080fd5b506101ed600160a060020a03600435811690602435166044356107fd565b34801561032557600080fd5b50610331600435610835565b604080519115158252519081900360200190f35b34801561035157600080fd5b50610204600435610852565b34801561036957600080fd5b506101ad600435610887565b34801561038157600080fd5b50610204600160a060020a03600435166108b1565b3480156103a257600080fd5b506101206108e4565b3480156103b757600080fd5b506101ed600160a060020a03600435166024351515610945565b3480156103dd57600080fd5b50604080516020601f6064356004818101359283018490048402850184019095528184526101ed94600160a060020a0381358116956024803590921695604435953695608494019181908401838280828437509497506109d49650505050505050565b34801561044c57600080fd5b50610120600435610a13565b34801561046457600080fd5b50610331600160a060020a0360043581169060243516610ac8565b60048054604080516020601f600260001961010060018816150201909516949094049384018190048102820181019092528281526060939092909183018282801561050b5780601f106104e05761010080835404028352916020019161050b565b820191906000526020600020905b8154815290600101906020018083116104ee57829003601f168201915b505050505090505b90565b600090815260016020526040902054600160a060020a031690565b600061053c82610887565b9050600160a060020a03838116908216141561055757600080fd5b80600160a060020a031633600160a060020a0316148061057c575061057c8133610ac8565b151561058757600080fd5b600061059283610516565b600160a060020a03161415806105b05750600160a060020a03831615155b1561062757600082815260016020908152604091829020805473ffffffffffffffffffffffffffffffffffffffff1916600160a060020a03878116918217909255835186815293519093918516927f8c5be1e5ebec7d5bd14f71427d1e84f3dd0314c0f7b2291e5b200ac8c7c3b925928290030190a35b505050565b60085490565b600160a060020a0333166000908152600b602052604081205460ff161561065857600080fd5b5060005b60058112156106755761066d610af6565b60010161065c565b50600160a060020a0333166000908152600b60205260409020805460ff19166001179055565b806106a63382610b06565b15156106b157600080fd5b600160a060020a03841615156106c657600080fd5b600160a060020a03831615156106db57600080fd5b6106e58483610b65565b6106ef8483610c12565b6106f98383610d4b565b82600160a060020a031684600160a060020a03167fddf252ad1be2c89b69c2b068fc378daa952ba7f163c4a11628f55a4df523b3ef846040518082815260200191505060405180910390a350505050565b6000610755836108b1565b821061076057600080fd5b600160a060020a038316600090815260066020526040902080548390811061078457fe5b9060005260206000200154905092915050565b600c54600160a060020a031615156107ae57600080fd5b600c546107c7903390600160a060020a031684846109d4565b5050565b600c54600160a060020a031615156107e257600080fd5b600c546107fa903390600160a060020a0316836107fd565b50565b806108083382610b06565b151561081357600080fd5b61082f84848460206040519081016040528060008152506109d4565b50505050565b600090815260208190526040902054600160a060020a0316151590565b600061085c61062c565b821061086757600080fd5b600880548390811061087557fe5b90600052602060002001549050919050565b600081815260208190526040812054600160a060020a03168015156108ab57600080fd5b92915050565b6000600160a060020a03821615156108c857600080fd5b50600160a060020a031660009081526002602052604090205490565b60058054604080516020601f600260001961010060018816150201909516949094049384018190048102820181019092528281526060939092909183018282801561050b5780601f106104e05761010080835404028352916020019161050b565b33600160a060020a031682600160a060020a03161415151561096657600080fd5b600160a060020a03338116600081815260036020908152604080832094871680845294825291829020805486151560ff199091168117909155825190815291517f17307eab39ab6107e8899845ad3d59bd9653f200f220920489ca2b5937696c319281900390910190a35050565b816109df3382610b06565b15156109ea57600080fd5b6109f585858561069b565b610a0185858585610d94565b1515610a0c57600080fd5b5050505050565b6060610a1e82610835565b1515610a2957600080fd5b6000828152600a602090815260409182902080548351601f600260001961010060018616150201909316929092049182018490048402810184019094528084529091830182828015610abc5780601f10610a9157610100808354040283529160200191610abc565b820191906000526020600020905b815481529060010190602001808311610a9f57829003601f168201915b50505050509050919050565b600160a060020a03918216600090815260036020908152604080832093909416825291909152205460ff1690565b6008546001016107fa3382610f1d565b600080610b1283610887565b905080600160a060020a031684600160a060020a03161480610b4d575083600160a060020a0316610b4284610516565b600160a060020a0316145b80610b5d5750610b5d8185610ac8565b949350505050565b81600160a060020a0316610b7882610887565b600160a060020a031614610b8b57600080fd5b600081815260016020526040902054600160a060020a0316156107c7576000818152600160209081526040808320805473ffffffffffffffffffffffffffffffffffffffff1916905580518481529051600160a060020a038616927f8c5be1e5ebec7d5bd14f71427d1e84f3dd0314c0f7b2291e5b200ac8c7c3b925928290030190a35050565b6000806000610c218585610f6c565b600084815260076020908152604080832054600160a060020a0389168452600690925290912054909350610c5c90600163ffffffff61100116565b600160a060020a038616600090815260066020526040902080549193509083908110610c8457fe5b90600052602060002001549050806006600087600160a060020a0316600160a060020a0316815260200190815260200160002084815481101515610cc457fe5b6000918252602080832090910192909255600160a060020a0387168152600690915260408120805484908110610cf657fe5b6000918252602080832090910192909255600160a060020a0387168152600690915260409020805490610d2d90600019830161111b565b50600093845260076020526040808520859055908452909220555050565b6000610d578383611013565b50600160a060020a039091166000908152600660209081526040808320805460018101825590845282842081018590559383526007909152902055565b600080610da985600160a060020a03166110a2565b1515610db85760019150610f14565b84600160a060020a031663f0b9e5ba8786866040518463ffffffff167c01000000000000000000000000000000000000000000000000000000000281526004018084600160a060020a0316600160a060020a0316815260200183815260200180602001828103825283818151815260200191508051906020019080838360005b83811015610e50578181015183820152602001610e38565b50505050905090810190601f168015610e7d5780820380516001836020036101000a031916815260200191505b50945050505050602060405180830381600087803b158015610e9e57600080fd5b505af1158015610eb2573d6000803e3d6000fd5b505050506040513d6020811015610ec857600080fd5b50517fffffffff0000000000000000000000000000000000000000000000000000000081167ff0b9e5ba0000000000000000000000000000000000000000000000000000000014925090505b50949350505050565b610f2782826110aa565b600880546000838152600960205260408120829055600182018355919091527ff3f7a9fe364faab93b216da50a3214154f22a0a2b415b23a84c8169e8b636ee3015550565b81600160a060020a0316610f7f82610887565b600160a060020a031614610f9257600080fd5b600160a060020a038216600090815260026020526040902054610fbc90600163ffffffff61100116565b600160a060020a039092166000908152600260209081526040808320949094559181529081905220805473ffffffffffffffffffffffffffffffffffffffff19169055565b60008282111561100d57fe5b50900390565b600081815260208190526040902054600160a060020a03161561103557600080fd5b600081815260208181526040808320805473ffffffffffffffffffffffffffffffffffffffff1916600160a060020a0387169081179091558352600290915290205461108290600161110e565b600160a060020a0390921660009081526002602052604090209190915550565b6000903b1190565b600160a060020a03821615156110bf57600080fd5b6110c98282610d4b565b604080518281529051600160a060020a038416916000917fddf252ad1be2c89b69c2b068fc378daa952ba7f163c4a11628f55a4df523b3ef9181900360200190a35050565b818101828110156108ab57fe5b8154818355818111156106275760008381526020902061062791810190830161051391905b808211156111545760008155600101611140565b50905600a165627a7a723058200be145ff422ff11bafa7d4a9c4d1d6905c86823df391155c8fe2e50ea472c7a50029",
  "source": "pragma solidity ^0.4.22;\n\nimport 'zeppelin-solidity/contracts/token/ERC721/ERC721Token.sol';\n\ncontract CryptoCards is ERC721Token(\"CryptoCards\", \"CCC\") {\n\n    mapping(address => bool) private registered;\n\n    address plasma;\n\n    constructor (address _plasma) public {\n        plasma = _plasma;\n    }\n\n    function register() external {\n        require(!registered[msg.sender]);\n        for (int j = 0; j<5 ; j++) {\n            create(); // Give each new player 5 cards\n        }\n        registered[msg.sender] = true;\n    }\n\n\tfunction create() private {\n\t\tuint256 tokenId = allTokens.length + 1;\n\t\t_mint(msg.sender, tokenId);\n\t}\n\n    function depositToPlasmaWithData(uint tokenId, bytes _data) public {\n        require(plasma != address(0));\n        safeTransferFrom(msg.sender, plasma, tokenId, _data);\n    }\n\n    function depositToPlasma(uint tokenId) public {\n        require(plasma != address(0));\n        safeTransferFrom(msg.sender, plasma, tokenId);\n    }\n\n}\n",
  "sourcePath": "/home/opsec/loom/PLASMA-RESEARCH/cash-erc721/server/contracts/Cards.sol",
  "compiler": {
    "name": "solc",
    "version": "0.4.23+commit.124ca40d.Emscripten.clang"
  },
  "schemaVersion": "2.0.0",
  "updatedAt": "2018-05-09T21:48:17.650Z"
}