{
  "contractName": "PriorityQueue",
  "abi": [
    {
      "constant": true,
      "inputs": [],
      "name": "currentSize",
      "outputs": [
        {
          "name": "",
          "type": "uint256"
        }
      ],
      "payable": false,
      "stateMutability": "view",
      "type": "function"
    },
    {
      "inputs": [],
      "payable": false,
      "stateMutability": "nonpayable",
      "type": "constructor"
    },
    {
      "constant": false,
      "inputs": [
        {
          "name": "k",
          "type": "uint256"
        }
      ],
      "name": "insert",
      "outputs": [],
      "payable": false,
      "stateMutability": "nonpayable",
      "type": "function"
    },
    {
      "constant": true,
      "inputs": [
        {
          "name": "i",
          "type": "uint256"
        }
      ],
      "name": "minChild",
      "outputs": [
        {
          "name": "",
          "type": "uint256"
        }
      ],
      "payable": false,
      "stateMutability": "view",
      "type": "function"
    },
    {
      "constant": true,
      "inputs": [],
      "name": "getMin",
      "outputs": [
        {
          "name": "",
          "type": "uint256"
        }
      ],
      "payable": false,
      "stateMutability": "view",
      "type": "function"
    },
    {
      "constant": false,
      "inputs": [],
      "name": "delMin",
      "outputs": [
        {
          "name": "",
          "type": "uint256"
        }
      ],
      "payable": false,
      "stateMutability": "nonpayable",
      "type": "function"
    }
  ],
  "bytecode": "0x608060405234801561001057600080fd5b5060008054600160a060020a03191633600160a060020a031617815560408051602081019091529081526100479060019081610052565b5060006002556100bf565b828054828255906000526020600020908101928215610092579160200282015b82811115610092578251829060ff16905591602001919060010190610072565b5061009e9291506100a2565b5090565b6100bc91905b8082111561009e57600081556001016100a8565b90565b6105b7806100ce6000396000f30060806040526004361061006c5763ffffffff7c01000000000000000000000000000000000000000000000000000000006000350416632dcdcd0c811461007157806390b5561d1461009b578063b07576ac146100b5578063bda1504b146100ca578063d6362e97146100df575b600080fd5b34801561007d57600080fd5b506100896004356100f4565b60408051918252519081900360200190f35b3480156100a757600080fd5b506100b36004356101c3565b005b3480156100c157600080fd5b50610089610241565b3480156100d657600080fd5b50610089610324565b3480156100eb57600080fd5b5061008961032a565b600060025461011e600161011260028661034c90919063ffffffff16565b9063ffffffff61037b16565b111561013c5761013582600263ffffffff61034c16565b90506101be565b60016101538161011285600263ffffffff61034c16565b8154811061015d57fe5b600091825260209091200154600161017c84600263ffffffff61034c16565b8154811061018657fe5b906000526020600020015410156101a85761013582600263ffffffff61034c16565b610135600161011284600263ffffffff61034c16565b919050565b6000543373ffffffffffffffffffffffffffffffffffffffff9081169116146101eb57600080fd5b60018054808201825560008290527fb10e2d527612073b26eecdfd717e6a320cf44b4afac2b0732d9fcbe2b7fa0cf6018290556002546102309163ffffffff61037b16565b600281905561023e90610388565b50565b6000805481903373ffffffffffffffffffffffffffffffffffffffff90811691161461026c57600080fd5b600180548190811061027a57fe5b90600052602060002001549050600160025481548110151561029857fe5b90600052602060002001546001808154811015156102b257fe5b906000526020600020018190555060016002548154811015156102d157fe5b60009182526020822001556002546102f090600163ffffffff61045c16565b6002556102fd600161046e565b600180546103109163ffffffff61045c16565b61031b600182610552565b508091505b5090565b60025481565b600060018081548110151561033b57fe5b906000526020600020015490505b90565b600082151561035d57506000610375565b5081810281838281151561036d57fe5b041461037557fe5b92915050565b8181018281101561037557fe5b6001805482916000918390811061039b57fe5b906000526020600020015490505b60016103bc84600263ffffffff61053d16565b815481106103c657fe5b90600052602060002001548110156104335760016103eb84600263ffffffff61053d16565b815481106103f557fe5b906000526020600020015460018481548110151561040f57fe5b60009182526020909120015561042c83600263ffffffff61053d16565b92506103a9565b828214610457578060018481548110151561044a57fe5b6000918252602090912001555b505050565b60008282111561046857fe5b50900390565b600080600083925060018481548110151561048557fe5b9060005260206000200154915061049b846100f4565b90505b60025481111580156104c7575060018054829081106104b957fe5b906000526020600020015482115b156105135760018054829081106104da57fe5b90600052602060002001546001858154811015156104f457fe5b60009182526020909120015592508261050c816100f4565b905061049e565b838314610537578160018581548110151561052a57fe5b6000918252602090912001555b50505050565b6000818381151561054a57fe5b049392505050565b8154818355818111156104575760008381526020902061045791810190830161034991905b8082111561032057600081556001016105775600a165627a7a723058202ac7e810b9be978ad2cec5acace74a311e9c0872c4380023edc3085e1684ae020029",
  "source": "pragma solidity ^0.4.22;\n\nimport 'zeppelin-solidity/contracts/math/SafeMath.sol';\n\n/**\n * @title PriorityQueue\n * @dev A priority queue implementation\n */\n\ncontract PriorityQueue {\n    using SafeMath for uint256;\n\n    /*\n     *  Modifiers\n     */\n    modifier onlyOwner() {\n        require(msg.sender == owner);\n        _;\n    }\n\n    /* \n     *  Storage\n     */\n    address owner;\n    uint256[] heapList;\n    uint256 public currentSize;\n\n    constructor ()\n        public\n    {\n        owner = msg.sender;\n        heapList = [0];\n        currentSize = 0;\n    }\n\n    function insert(uint256 k) \n        public\n        onlyOwner\n    {\n        heapList.push(k);\n        currentSize = currentSize.add(1);\n        percUp(currentSize);\n    }\n\n    function minChild(uint256 i)\n        public\n        view\n        returns (uint256)\n    {\n        if (i.mul(2).add(1) > currentSize) {\n            return i.mul(2);\n        } else {\n            if (heapList[i.mul(2)] < heapList[i.mul(2).add(1)]) {\n                return i.mul(2);\n            } else {\n                return i.mul(2).add(1);\n            }\n        }\n    }\n\n    function getMin()\n        public\n        view\n        returns (uint256)\n    {\n        return heapList[1];\n    }\n\n    function delMin()\n        public\n        onlyOwner\n        returns (uint256)\n    {\n        uint256 retVal = heapList[1];\n        heapList[1] = heapList[currentSize];\n        delete heapList[currentSize];\n        currentSize = currentSize.sub(1);\n        percDown(1);\n        heapList.length = heapList.length.sub(1);\n        return retVal;\n    }\n\n    function percUp(uint256 i) \n        private\n    {\n        uint256 j = i;\n        uint256 newVal = heapList[i];\n        while (newVal < heapList[i.div(2)]) {\n            heapList[i] = heapList[i.div(2)];\n            i = i.div(2);\n        }\n        if (i != j) heapList[i] = newVal;\n    }\n\n    function percDown(uint256 i)\n        private\n    {\n        uint256 j = i;\n        uint256 newVal = heapList[i];\n        uint256 mc = minChild(i);\n        while (mc <= currentSize && newVal > heapList[mc]) {\n            heapList[i] = heapList[mc];\n            i = mc;\n            mc = minChild(i);\n        }\n        if (i != j) heapList[i] = newVal;\n    }\n}\n",
  "sourcePath": "/home/opsec/loom/PLASMA-RESEARCH/cash-erc721/server/contracts/Queue/PriorityQueue.sol",
  "compiler": {
    "name": "solc",
    "version": "0.4.23+commit.124ca40d.Emscripten.clang"
  },
  "schemaVersion": "2.0.0",
  "updatedAt": "2018-05-14T22:19:55.512Z"
}