{
  "contractName": "RootChain",
  "abi": [
    {
      "constant": true,
      "inputs": [],
      "name": "lastParentBlock",
      "outputs": [
        {
          "name": "",
          "type": "uint256"
        }
      ],
      "payable": false,
      "stateMutability": "view",
      "type": "function"
    },
    {
      "constant": true,
      "inputs": [
        {
          "name": "",
          "type": "address"
        }
      ],
      "name": "balances",
      "outputs": [
        {
          "name": "bonded",
          "type": "uint256"
        },
        {
          "name": "withdrawable",
          "type": "uint256"
        }
      ],
      "payable": false,
      "stateMutability": "view",
      "type": "function"
    },
    {
      "constant": true,
      "inputs": [],
      "name": "depositCount",
      "outputs": [
        {
          "name": "",
          "type": "uint256"
        }
      ],
      "payable": false,
      "stateMutability": "view",
      "type": "function"
    },
    {
      "constant": true,
      "inputs": [],
      "name": "childBlockInterval",
      "outputs": [
        {
          "name": "",
          "type": "uint256"
        }
      ],
      "payable": false,
      "stateMutability": "view",
      "type": "function"
    },
    {
      "constant": true,
      "inputs": [
        {
          "name": "",
          "type": "uint256"
        }
      ],
      "name": "defaultHashes",
      "outputs": [
        {
          "name": "",
          "type": "bytes32"
        }
      ],
      "payable": false,
      "stateMutability": "view",
      "type": "function"
    },
    {
      "constant": true,
      "inputs": [
        {
          "name": "leaf",
          "type": "bytes32"
        },
        {
          "name": "index",
          "type": "uint64"
        },
        {
          "name": "proof",
          "type": "bytes"
        }
      ],
      "name": "getRoot",
      "outputs": [
        {
          "name": "",
          "type": "bytes32"
        }
      ],
      "payable": false,
      "stateMutability": "view",
      "type": "function"
    },
    {
      "constant": true,
      "inputs": [],
      "name": "numCoins",
      "outputs": [
        {
          "name": "",
          "type": "uint64"
        }
      ],
      "payable": false,
      "stateMutability": "view",
      "type": "function"
    },
    {
      "constant": true,
      "inputs": [
        {
          "name": "",
          "type": "uint64"
        }
      ],
      "name": "coins",
      "outputs": [
        {
          "name": "uid",
          "type": "uint64"
        },
        {
          "name": "denomination",
          "type": "uint32"
        },
        {
          "name": "depositBlock",
          "type": "uint256"
        },
        {
          "name": "owner",
          "type": "address"
        },
        {
          "name": "state",
          "type": "uint8"
        },
        {
          "components": [
            {
              "name": "owner",
              "type": "address"
            },
            {
              "name": "createdAt",
              "type": "uint256"
            },
            {
              "name": "bond",
              "type": "uint256"
            },
            {
              "name": "prevBlock",
              "type": "uint256"
            },
            {
              "name": "exitBlock",
              "type": "uint256"
            }
          ],
          "name": "exit",
          "type": "tuple"
        }
      ],
      "payable": false,
      "stateMutability": "view",
      "type": "function"
    },
    {
      "constant": true,
      "inputs": [
        {
          "name": "",
          "type": "uint256"
        }
      ],
      "name": "exitSlots",
      "outputs": [
        {
          "name": "",
          "type": "uint64"
        }
      ],
      "payable": false,
      "stateMutability": "view",
      "type": "function"
    },
    {
      "constant": true,
      "inputs": [],
      "name": "authority",
      "outputs": [
        {
          "name": "",
          "type": "address"
        }
      ],
      "payable": false,
      "stateMutability": "view",
      "type": "function"
    },
    {
      "constant": true,
      "inputs": [],
      "name": "currentBlock",
      "outputs": [
        {
          "name": "",
          "type": "uint256"
        }
      ],
      "payable": false,
      "stateMutability": "view",
      "type": "function"
    },
    {
      "constant": true,
      "inputs": [
        {
          "name": "leaf",
          "type": "bytes32"
        },
        {
          "name": "root",
          "type": "bytes32"
        },
        {
          "name": "tokenID",
          "type": "uint64"
        },
        {
          "name": "proof",
          "type": "bytes"
        }
      ],
      "name": "checkMembership",
      "outputs": [
        {
          "name": "",
          "type": "bool"
        }
      ],
      "payable": false,
      "stateMutability": "view",
      "type": "function"
    },
    {
      "constant": true,
      "inputs": [
        {
          "name": "",
          "type": "uint256"
        }
      ],
      "name": "childChain",
      "outputs": [
        {
          "name": "root",
          "type": "bytes32"
        },
        {
          "name": "createdAt",
          "type": "uint256"
        }
      ],
      "payable": false,
      "stateMutability": "view",
      "type": "function"
    },
    {
      "inputs": [],
      "payable": false,
      "stateMutability": "nonpayable",
      "type": "constructor"
    },
    {
      "anonymous": false,
      "inputs": [
        {
          "indexed": true,
          "name": "slot",
          "type": "uint64"
        },
        {
          "indexed": false,
          "name": "blockNumber",
          "type": "uint256"
        },
        {
          "indexed": false,
          "name": "denomination",
          "type": "uint64"
        },
        {
          "indexed": true,
          "name": "from",
          "type": "address"
        },
        {
          "indexed": false,
          "name": "hash",
          "type": "bytes32"
        }
      ],
      "name": "Deposit",
      "type": "event"
    },
    {
      "anonymous": false,
      "inputs": [
        {
          "indexed": false,
          "name": "blockNumber",
          "type": "uint256"
        },
        {
          "indexed": false,
          "name": "root",
          "type": "bytes32"
        },
        {
          "indexed": false,
          "name": "timestamp",
          "type": "uint256"
        }
      ],
      "name": "SubmittedBlock",
      "type": "event"
    },
    {
      "anonymous": false,
      "inputs": [
        {
          "indexed": true,
          "name": "slot",
          "type": "uint64"
        },
        {
          "indexed": true,
          "name": "owner",
          "type": "address"
        },
        {
          "indexed": false,
          "name": "createdAt",
          "type": "uint256"
        }
      ],
      "name": "StartedExit",
      "type": "event"
    },
    {
      "anonymous": false,
      "inputs": [
        {
          "indexed": true,
          "name": "slot",
          "type": "uint64"
        }
      ],
      "name": "ChallengedExit",
      "type": "event"
    },
    {
      "anonymous": false,
      "inputs": [
        {
          "indexed": true,
          "name": "slot",
          "type": "uint64"
        }
      ],
      "name": "RespondedExitChallenge",
      "type": "event"
    },
    {
      "anonymous": false,
      "inputs": [
        {
          "indexed": true,
          "name": "slot",
          "type": "uint64"
        },
        {
          "indexed": false,
          "name": "owner",
          "type": "address"
        }
      ],
      "name": "FinalizedExit",
      "type": "event"
    },
    {
      "anonymous": false,
      "inputs": [
        {
          "indexed": true,
          "name": "from",
          "type": "address"
        },
        {
          "indexed": false,
          "name": "amount",
          "type": "uint256"
        }
      ],
      "name": "FreedBond",
      "type": "event"
    },
    {
      "anonymous": false,
      "inputs": [
        {
          "indexed": true,
          "name": "from",
          "type": "address"
        },
        {
          "indexed": true,
          "name": "to",
          "type": "address"
        },
        {
          "indexed": false,
          "name": "amount",
          "type": "uint256"
        }
      ],
      "name": "SlashedBond",
      "type": "event"
    },
    {
      "anonymous": false,
      "inputs": [
        {
          "indexed": true,
          "name": "from",
          "type": "address"
        },
        {
          "indexed": false,
          "name": "amount",
          "type": "uint256"
        }
      ],
      "name": "WithdrewBonds",
      "type": "event"
    },
    {
      "constant": false,
      "inputs": [
        {
          "name": "root",
          "type": "bytes32"
        }
      ],
      "name": "submitBlock",
      "outputs": [],
      "payable": false,
      "stateMutability": "nonpayable",
      "type": "function"
    },
    {
      "constant": false,
      "inputs": [
        {
          "name": "slot",
          "type": "uint64"
        },
        {
          "name": "prevTxBytes",
          "type": "bytes"
        },
        {
          "name": "exitingTxBytes",
          "type": "bytes"
        },
        {
          "name": "prevTxInclusionProof",
          "type": "bytes"
        },
        {
          "name": "exitingTxInclusionProof",
          "type": "bytes"
        },
        {
          "name": "sig",
          "type": "bytes"
        },
        {
          "name": "prevTxIncBlock",
          "type": "uint256"
        },
        {
          "name": "exitingTxIncBlock",
          "type": "uint256"
        }
      ],
      "name": "startExit",
      "outputs": [],
      "payable": true,
      "stateMutability": "payable",
      "type": "function"
    },
    {
      "constant": false,
      "inputs": [
        {
          "name": "slot",
          "type": "uint64"
        }
      ],
      "name": "finalizeExit",
      "outputs": [],
      "payable": false,
      "stateMutability": "nonpayable",
      "type": "function"
    },
    {
      "constant": false,
      "inputs": [],
      "name": "finalizeExits",
      "outputs": [],
      "payable": false,
      "stateMutability": "nonpayable",
      "type": "function"
    },
    {
      "constant": false,
      "inputs": [
        {
          "name": "slot",
          "type": "uint64"
        }
      ],
      "name": "withdraw",
      "outputs": [],
      "payable": false,
      "stateMutability": "nonpayable",
      "type": "function"
    },
    {
      "constant": false,
      "inputs": [
        {
          "name": "slot",
          "type": "uint64"
        },
        {
          "name": "prevTxBytes",
          "type": "bytes"
        },
        {
          "name": "exitingTxBytes",
          "type": "bytes"
        },
        {
          "name": "prevTxInclusionProof",
          "type": "bytes"
        },
        {
          "name": "exitingTxInclusionProof",
          "type": "bytes"
        },
        {
          "name": "sig",
          "type": "bytes"
        },
        {
          "name": "prevTxIncBlock",
          "type": "uint256"
        },
        {
          "name": "exitingTxIncBlock",
          "type": "uint256"
        }
      ],
      "name": "challengeBefore",
      "outputs": [],
      "payable": true,
      "stateMutability": "payable",
      "type": "function"
    },
    {
      "constant": false,
      "inputs": [
        {
          "name": "slot",
          "type": "uint64"
        },
        {
          "name": "challengingBlockNumber",
          "type": "uint256"
        },
        {
          "name": "challengingTransaction",
          "type": "bytes"
        },
        {
          "name": "proof",
          "type": "bytes"
        }
      ],
      "name": "respondChallengeBefore",
      "outputs": [],
      "payable": false,
      "stateMutability": "nonpayable",
      "type": "function"
    },
    {
      "constant": false,
      "inputs": [
        {
          "name": "slot",
          "type": "uint64"
        },
        {
          "name": "challengingBlockNumber",
          "type": "uint256"
        },
        {
          "name": "challengingTransaction",
          "type": "bytes"
        },
        {
          "name": "proof",
          "type": "bytes"
        }
      ],
      "name": "challengeBetween",
      "outputs": [],
      "payable": false,
      "stateMutability": "nonpayable",
      "type": "function"
    },
    {
      "constant": false,
      "inputs": [
        {
          "name": "slot",
          "type": "uint64"
        },
        {
          "name": "challengingBlockNumber",
          "type": "uint256"
        },
        {
          "name": "challengingTransaction",
          "type": "bytes"
        },
        {
          "name": "proof",
          "type": "bytes"
        }
      ],
      "name": "challengeAfter",
      "outputs": [],
      "payable": false,
      "stateMutability": "nonpayable",
      "type": "function"
    },
    {
      "constant": false,
      "inputs": [],
      "name": "withdrawBonds",
      "outputs": [],
      "payable": false,
      "stateMutability": "nonpayable",
      "type": "function"
    },
    {
      "constant": false,
      "inputs": [
        {
          "name": "_from",
          "type": "address"
        },
        {
          "name": "_uid",
          "type": "uint256"
        },
        {
          "name": "",
          "type": "bytes"
        }
      ],
      "name": "onERC721Received",
      "outputs": [
        {
          "name": "",
          "type": "bytes4"
        }
      ],
      "payable": false,
      "stateMutability": "nonpayable",
      "type": "function"
    },
    {
      "constant": false,
      "inputs": [
        {
          "name": "_cryptoCards",
          "type": "address"
        }
      ],
      "name": "setCryptoCards",
      "outputs": [],
      "payable": false,
      "stateMutability": "nonpayable",
      "type": "function"
    },
    {
      "constant": true,
      "inputs": [
        {
          "name": "slot",
          "type": "uint64"
        }
      ],
      "name": "getPlasmaCoin",
      "outputs": [
        {
          "name": "",
          "type": "uint64"
        },
        {
          "name": "",
          "type": "uint256"
        },
        {
          "name": "",
          "type": "uint32"
        },
        {
          "name": "",
          "type": "address"
        },
        {
          "name": "",
          "type": "uint8"
        }
      ],
      "payable": false,
      "stateMutability": "view",
      "type": "function"
    }
  ],
  "bytecode": "0x60806040526044805467ffffffffffffffff191690556103e860465560006047553480156200002d57600080fd5b507f290decd9548b62a8d60345a988386fc84ba6bc95484008f6362f93160ef3e563600055620000696001604064010000000062000085810204565b60408054600160a060020a03191633179055436048556200016a565b815b8160ff168160ff1610156200016557600060ff60001983011660408110620000ab57fe5b0154600060ff60001984011660408110620000c257fe5b0154604080516020808201949094528082019290925280518083038201815260609092019081905281519192909182918401908083835b602083106200011a5780518252601f199092019160209182019101620000f9565b6001836020036101000a038019825116818451168082178552505050505050905001915050604051809103902060008260ff166040811015156200015a57fe5b015560010162000087565b505050565b612ded806200017a6000396000f3006080604052600436106101535763ffffffff7c0100000000000000000000000000000000000000000000000000000000600035041663117546c581146101585780631cc6ffa01461017f57806327e235e3146101965780632dfdf0b5146101d0578063329be5d5146101e557806338a9e0bc1461020657806347387d8f1461021b57806348419ad814610259578063509a7e54146102715780635b6a6efb146102db578063728778b514610332578063750f0acc146103705780637841721414610392578063a362dbc1146103b4578063a97375951461040b578063b8bdaf621461043d578063baa47694146104c0578063bcd5df39146104d8578063bf7e214f146104f0578063c6ab44cd14610521578063e0c45c3314610536578063e12ed13c14610574578063f0b9e5ba14610589578063f586df6514610627578063f8353cf0146106a8578063f95643b114610727575b600080fd5b34801561016457600080fd5b5061016d61073f565b60408051918252519081900360200190f35b34801561018b57600080fd5b50610194610745565b005b3480156101a257600080fd5b506101b7600160a060020a03600435166107c3565b6040805192835260208301919091528051918290030190f35b3480156101dc57600080fd5b5061016d6107dc565b3480156101f157600080fd5b50610194600160a060020a03600435166107e2565b34801561021257600080fd5b5061016d61081b565b34801561022757600080fd5b506101946004803567ffffffffffffffff16906024803591604435808301929082013591606435918201910135610821565b34801561026557600080fd5b5061016d600435610a08565b34801561027d57600080fd5b50604080516020600460443581810135601f810184900484028501840190955284845261016d948235946024803567ffffffffffffffff1695369594606494920191908190840183828082843750949750610a1c9650505050505050565b6101946004803567ffffffffffffffff16906024803580820192908101359160443580820192908101359160643580820192908101359160843580820192908101359160a43590810191013560c43560e435610bf8565b34801561033e57600080fd5b506101946004803567ffffffffffffffff16906024803591604435808301929082013591606435918201910135610e63565b34801561037c57600080fd5b5061019467ffffffffffffffff60043516610fc6565b34801561039e57600080fd5b5061019467ffffffffffffffff6004351661115f565b6101946004803567ffffffffffffffff16906024803580820192908101359160443580820192908101359160643580820192908101359160843580820192908101359160a43590810191013560c43560e4356113c7565b34801561041757600080fd5b5061042061161f565b6040805167ffffffffffffffff9092168252519081900360200190f35b34801561044957600080fd5b5061045f67ffffffffffffffff6004351661162f565b6040805167ffffffffffffffff8816815263ffffffff87166020820152908101859052600160a060020a0384166060820152608081018360048111156104a157fe5b60ff168152602001828152602001965050505050505060405180910390f35b3480156104cc57600080fd5b506101946004356116c9565b3480156104e457600080fd5b50610420600435611797565b3480156104fc57600080fd5b506105056117d3565b60408051600160a060020a039092168252519081900360200190f35b34801561052d57600080fd5b506101946117e2565b34801561054257600080fd5b506101946004803567ffffffffffffffff16906024803591604435808301929082013591606435918201910135611839565b34801561058057600080fd5b5061016d61198c565b34801561059557600080fd5b50604080516020600460443581810135601f81018490048402850184019095528484526105f2948235600160a060020a03169460248035953695946064949201919081908401838280828437509497506119929650505050505050565b604080517fffffffff000000000000000000000000000000000000000000000000000000009092168252519081900360200190f35b34801561063357600080fd5b50604080516020601f60643560048181013592830184900484028501840190955281845261069494803594602480359567ffffffffffffffff6044351695369560849493019181908401838280828437509497506119e19650505050505050565b604080519115158252519081900360200190f35b3480156106b457600080fd5b506106ca67ffffffffffffffff600435166119fb565b6040805167ffffffffffffffff871681526020810186905263ffffffff851691810191909152600160a060020a03831660608201526080810182600481111561070f57fe5b60ff1681526020019550505050505060405180910390f35b34801561073357600080fd5b506101b7600435611b14565b60485481565b33600081815260416020526040808220600101805490839055905190929183156108fc02918491818181858888f19350505050158015610789573d6000803e3d6000fd5b5060408051828152905133917fba49a755e2e4831fb6ef34b384178b03af45679532c9ac5a2199b27b4dddea8d919081900360200190a250565b6041602052600090815260409020805460019091015482565b60495481565b604054600160a060020a031633146107f957600080fd5b604b8054600160a060020a031916600160a060020a0392909216919091179055565b60465481565b8560018067ffffffffffffffff831660009081526045602052604090206002015460a060020a900460ff16600481111561085757fe5b1461089a576040805160e560020a62461bcd02815260206004820152600b6024820152600080516020612da2833981519152604482015290519081900360640190fd5b67ffffffffffffffff8816600090815260456020526040902060070154889088116108c457600080fd5b61092d87878080601f0160208091040260200160405190810160405280939291908181526020018383808284375050604080516020601f8d018190048102820181019092528b81528f955093508b92508a91508190840183828082843750611b2d945050505050565b67ffffffffffffffff891660009081526045602052604090206003015461095d90600160a060020a031633611ce2565b67ffffffffffffffff898116600090815260456020526040808220600201805460a060020a60ff02191690559183168152908120600381018054600160a060020a03191690556004810182905560058101829055600681018290556007015560426109c782611db9565b815481106109d157fe5b90600052602060002090600491828204019190066008026101000a81549067ffffffffffffffff0219169055505050505050505050565b60008160408110610a1557fe5b0154905081565b60008060008060008060206008885103811515610a3557fe5b06158015610a465750610808875111155b1515610a5157600080fd5b505050506020830151859060089060c060020a900460005b603f811015610beb57600182161515610a925760008160408110610a8957fe5b01549450610ab3565b6020830192508261ffff16875110151515610aac57600080fd5b8287015194505b600188161515610b4257604080516020808201879052818301889052825180830384018152606090920192839052815191929182918401908083835b60208310610b0e5780518252601f199092019160209182019101610aef565b6001836020036101000a03801982511681845116808217855250505050505090500191505060405180910390209350610bc3565b604080516020808201889052818301879052825180830384018152606090920192839052815191929182918401908083835b60208310610b935780518252601f199092019160209182019101610b74565b6001836020036101000a038019825116818451168082178552505050505050905001915050604051809103902093505b600267ffffffffffffffff8316049150600267ffffffffffffffff8916049750600101610a69565b5091979650505050505050565b8c60008067ffffffffffffffff831660009081526045602052604090206002015460a060020a900460ff166004811115610c2e57fe5b14610c71576040805160e560020a62461bcd02815260206004820152600b6024820152600080516020612da2833981519152604482015290519081900360640190fd5b3467016345785d8a000014610c8557600080fd5b33600090815260416020526040902054610ca5903463ffffffff611e2d16565b3360009081526041602052604090205560465483811515610cc257fe5b0615610d3a57610d348c8c8080601f0160208091040260200160405190810160405280939291908181526020018383808284375050604080516020601f8e018190048102820181019092528c815294508c93508b92508291508401838280828437820191505050505050856001611e40565b50610e47565b610e458e8e8080601f0160208091040260200160405190810160405280939291908181526020018383808284378201915050505050508d8d8080601f0160208091040260200160405190810160405280939291908181526020018383808284378201915050505050508c8c8080601f0160208091040260200160405190810160405280939291908181526020018383808284378201915050505050508b8b8080601f0160208091040260200160405190810160405280939291908181526020018383808284378201915050505050508a8a8080601f01602080910402602001604051908101604052809392919081815260200183838082843782019150505050505089896001612042565b505b610e528f85856121e7565b505050505050505050505050505050565b8560018067ffffffffffffffff831660009081526045602052604090206002015460a060020a900460ff166004811115610e9957fe5b14610edc576040805160e560020a62461bcd02815260206004820152600b6024820152600080516020612da2833981519152604482015290519081900360640190fd5b67ffffffffffffffff8816600090815260456020526040902060070154889088108015610f24575067ffffffffffffffff891660009081526045602052604090206006015488115b15156108c4576040805160e560020a62461bcd02815260206004820152604e60248201527f4368616c6c656e67696e67207472616e73616374696f6e206d7573742068617660448201527f652068617070656e65642041465445522074686520617474657374656420657860648201527f697427732074696d657374616d70000000000000000000000000000000000000608482015290519081900360a40190fd5b8060048067ffffffffffffffff831660009081526045602052604090206002015460a060020a900460ff166004811115610ffc57fe5b1461103f576040805160e560020a62461bcd02815260206004820152600b6024820152600080516020612da2833981519152604482015290519081900360640190fd5b67ffffffffffffffff8316600090815260456020526040902060020154600160a060020a031633146110bb576040805160e560020a62461bcd02815260206004820152601860248201527f596f7520646f206e6f74206f776e2074686174205554584f0000000000000000604482015290519081900360640190fd5b604b5467ffffffffffffffff8085166000908152604560205260408082205481517f42842e0e0000000000000000000000000000000000000000000000000000000081523060048201523360248201529316604484015251600160a060020a03909316926342842e0e92606480820193929182900301818387803b15801561114257600080fd5b505af1158015611156573d6000803e3d6000fd5b50505050505050565b67ffffffffffffffff8116600090815260456020526040812090600282015460a060020a900460ff16600481111561119357fe5b14806111b857506004600282015460a060020a900460ff1660048111156111b657fe5b145b156111c2576113c3565b600481015462093a804291909103116111da576113c3565b60028082015460a060020a900460ff1660048111156111f557fe5b14156112475760028101805460a060020a60ff0219169055600381015467ffffffffffffffff831660009081526043602052604090205461124291600160a060020a039081169116611ce2565b61133d565b6003600282015460a060020a900460ff16600481111561126357fe5b141561129e5767ffffffffffffffff8216600090815260436020526040902054600382015461129e91600160a060020a039081169116611ce2565b6003810154600282018054600160a060020a031916600160a060020a039283161760a060020a60ff0219167404000000000000000000000000000000000000000017908190556112ee91166122f9565b600281015460408051600160a060020a0390921682525167ffffffffffffffff8416917f432647a5fb9bdea356d78f8e3d83b6ddc2e78b4e4a702ac7eb968f7fe03d9dda919081900360200190a25b67ffffffffffffffff82166000908152604560205260408120600381018054600160a060020a031916905560048101829055600581018290556006810182905560070155604261138c83611db9565b8154811061139657fe5b90600052602060002090600491828204019190066008026101000a81549067ffffffffffffffff02191690555b5050565b3467016345785d8a0000146113db57600080fd5b336000908152604160205260409020546113fb903463ffffffff611e2d16565b336000908152604160205260409020558c60018067ffffffffffffffff831660009081526045602052604090206002015460a060020a900460ff16600481111561144157fe5b14611484576040805160e560020a62461bcd02815260206004820152600b6024820152600080516020612da2833981519152604482015290519081900360640190fd5b6046548381151561149157fe5b0615611509576115038c8c8080601f0160208091040260200160405190810160405280939291908181526020018383808284375050604080516020601f8e018190048102820181019092528c815294508c93508b92508291508401838280828437820191505050505050856000611e40565b50611616565b6116148e8e8080601f0160208091040260200160405190810160405280939291908181526020018383808284378201915050505050508d8d8080601f0160208091040260200160405190810160405280939291908181526020018383808284378201915050505050508c8c8080601f0160208091040260200160405190810160405280939291908181526020018383808284378201915050505050508b8b8080601f0160208091040260200160405190810160405280939291908181526020018383808284378201915050505050508a8a8080601f01602080910402602001604051908101604052809392919081815260200183838082843782019150505050505089896000612042565b505b610e528f6123c1565b60445467ffffffffffffffff1681565b604560209081526000918252604091829020805460018201546002830154855160a0810187526003850154600160a060020a03908116825260048601549682019690965260058501549681019690965260068401546060870152600790930154608086015267ffffffffffffffff8216946801000000000000000090920463ffffffff169390929081169160a060020a90910460ff169086565b604054600160a060020a031633146116e057600080fd5b61171b60465461170f604654611703604654604754611e2d90919063ffffffff16565b9063ffffffff61244516565b9063ffffffff61245a16565b60478181556040805180820182528481524260208083018281526000968752604a8252958490209251835594516001909201919091559154815190815292830184905282810191909152517f6d91cd6ccac8368394df514e6aee19a55264f5ab49a891af91ca86da27bedd4f9181900360600190a15043604855565b60428054829081106117a557fe5b9060005260206000209060049182820401919006600802915054906101000a900467ffffffffffffffff1681565b604054600160a060020a031681565b60425460005b818110156113c35761183160428281548110151561180257fe5b90600052602060002090600491828204019190066008029054906101000a900467ffffffffffffffff1661115f565b6001016117e8565b8560028067ffffffffffffffff831660009081526045602052604090206002015460a060020a900460ff16600481111561186f57fe5b146118b2576040805160e560020a62461bcd02815260206004820152600b6024820152600080516020612da2833981519152604482015290519081900360640190fd5b61191b86868080601f0160208091040260200160405190810160405280939291908181526020018383808284375050604080516020601f8c018190048102820181019092528a81528e955093508a92508991508190840183828082843750611b2d945050505050565b67ffffffffffffffff8816600081815260456020526040808220600201805460a060020a60ff02191674030000000000000000000000000000000000000000179055517f7deeb80e1644537d3ba4f917cfcbaba62b54354e9f2598d6885d52e359885e259190a25050505050505050565b60475481565b604b54600090600160a060020a031633146119ac57600080fd5b6119b884846001612483565b507ff0b9e5ba000000000000000000000000000000000000000000000000000000009392505050565b6000806119ef868585610a1c565b90941495945050505050565b6000806000806000611a0b612ccd565b67ffffffffffffffff878116600090815260456020908152604091829020825160c081018452815494851681526801000000000000000090940463ffffffff16918401919091526001810154918301919091526002810154600160a060020a0381166060840152608083019060a060020a900460ff166004811115611a8c57fe5b6004811115611a9757fe5b81526040805160a0810182526003840154600160a060020a03168152600484015460208083019190915260058501548284015260068501546060808401919091526007909501546080808401919091529381019190915284519185015190850151938501519490920151909b919a50919850919650945092505050565b604a602052600090815260409020805460019091015482565b611b35612d09565b600080611b418661273a565b6000868152604a6020526040902054604654919450915085811515611b6257fe5b0615611c15578260000151604051602001808267ffffffffffffffff1667ffffffffffffffff1660c060020a0281526008019150506040516020818303038152906040526040518082805190602001908083835b60208310611bd55780518252601f199092019160209182019101611bb6565b5181516020939093036101000a60001901801990911692169190911790526040519201829003909120945050508183149050611c1057600080fd5b611cda565b856040518082805190602001908083835b60208310611c455780518252601f199092019160209182019101611c26565b6001836020036101000a03801982511681845116808217855250505050505090500191505060405180910390209150611c8482828560000151876119e1565b1515611cda576040805160e560020a62461bcd02815260206004820181905260248201527f5478206e6f7420696e636c7564656420696e20636c61696d656420626c6f636b604482015290519081900360640190fd5b505050505050565b600160a060020a038216600090815260416020526040902054611d139067016345785d8a000063ffffffff61280c16565b600160a060020a038084166000908152604160205260408082209390935590831681522060010154611d539067016345785d8a000063ffffffff611e2d16565b600160a060020a0380831660008181526041602090815260409182902060010194909455805167016345785d8a0000815290519193928616927fbd6bf2f753dc1a7dee94a7abd7645adc6c228c2af17fd72d9104674cc5d2127392918290030190a35050565b604254600090815b81811015611e21578367ffffffffffffffff16604282815481101515611de357fe5b6000918252602090912060048204015460039091166008026101000a900467ffffffffffffffff161415611e1957809250611e26565b600101611dc1565b600092505b5050919050565b81810182811015611e3a57fe5b92915050565b6000611e4a612d09565b6000611e558761273a565b91508315611ec1576040820151600160a060020a03163314611ec1576040805160e560020a62461bcd02815260206004820152600e60248201527f496e76616c69642073656e646572000000000000000000000000000000000000604482015290519081900360640190fd5b8160000151604051602001808267ffffffffffffffff1667ffffffffffffffff1660c060020a0281526008019150506040516020818303038152906040526040518082805190602001908083835b60208310611f2e5780518252601f199092019160209182019101611f0f565b6001836020036101000a03801982511681845116808217855250505050505090500191505060405180910390209050611f7a868360400151836000191661281e9092919063ffffffff16565b1515611fd0576040805160e560020a62461bcd02815260206004820152600b60248201527f496e76616c696420736967000000000000000000000000000000000000000000604482015290519081900360640190fd5b6000858152604a60205260409020548114612035576040805160e560020a62461bcd02815260206004820181905260248201527f4465706f736974205478206e6f7420696e636c7564656420696e20626c6f636b604482015290519081900360640190fd5b5060019695505050505050565b600061204c612d09565b612054612d09565b61205d8a61273a565b91506120688b61273a565b905083156120d4576040820151600160a060020a031633146120d4576040805160e560020a62461bcd02815260206004820152600e60248201527f496e76616c69642073656e646572000000000000000000000000000000000000604482015290519081900360640190fd5b8051825167ffffffffffffffff9081169116146120f057600080fd5b8486106120fc57600080fd5b61216a8782604001518c6040518082805190602001908083835b602083106121355780518252601f199092019160209182019101612116565b5181516020939093036101000a60001901801990911692169190911790526040519201829003909120949392505061281e9050565b15156121c0576040805160e560020a62461bcd02815260206004820152600b60248201527f496e76616c696420736967000000000000000000000000000000000000000000604482015290519081900360640190fd5b6121cb8b878b611b2d565b6121d68a868a611b2d565b5060019a9950505050505050505050565b604280546001810190915560048082047f38dfe4635b27babeca8be38d3b448cb5161a639b899a14825ba9c8d7892eb8c301805467ffffffffffffffff87811660086003968716026101000a81810292021990921617909155600081815260456020908152604091829020825160a081018452338082524282850181905234838701819052606084018c905260809093018a90529783018054600160a060020a031916821790559582018790556005820155600681018890556007810187905560028101805460a060020a60ff02191660a060020a1790558251958652915191947fb2451f3e7d6dff5753a128f9a3982f46e0c287d3d3f71c87f13cc63a6081283d929081900390910190a350505050565b600160a060020a03811660009081526041602052604090205461232a9067016345785d8a000063ffffffff61280c16565b600160a060020a0382166000908152604160205260409020908155600101546123619067016345785d8a000063ffffffff611e2d16565b600160a060020a03821660008181526041602090815260409182902060010193909355805167016345785d8a00008152905191927f5406cdbb33189b887da81a90c7ff307f3af1854b2504d0bde438b8bb5b7d8b5292918290030190a250565b67ffffffffffffffff81166000818152604560209081526040808320600201805460a060020a60ff0219167402000000000000000000000000000000000000000017905560439091528082208054600160a060020a03191633179055517f7866a4e258966d935dedb7b3a912110c549aba222af732ac3a2efb5609cb97929190a250565b6000818381151561245257fe5b049392505050565b600082151561246b57506000611e3a565b5081810281838281151561247b57fe5b0414611e3a57fe5b61248b612ccd565b6047546000906124a290600163ffffffff611e2d16565b604781905567ffffffffffffffff8516835263ffffffff841660208401526040830152600160a060020a03851660608301526000608083018190525060445467ffffffffffffffff908116600090815260456020908152604091829020855181549287015167ffffffffffffffff199093169416939093176bffffffff000000000000000019166801000000000000000063ffffffff9092169190910217825583015160018201556060830151600282018054600160a060020a031916600160a060020a03909216919091178082556080850151859392909160a060020a60ff02191660a060020a83600481111561259657fe5b021790555060a091909101518051600383018054600160a060020a031916600160a060020a039092169190911790556020808201516004840155604080830151600585015560608301516006850155608090920151600790930192909255604454815167ffffffffffffffff90911660c060020a028184015281516008818303018152602890910191829052805190928291908401908083835b6020831061264f5780518252601f199092019160209182019101612630565b51815160001960209485036101000a0190811690199190911617905260408051949092018490038420848301835280855242858301908152604780546000908152604a8552859020965187559051600196909601959095556044549454835190815263ffffffff8b16928101929092528183018190529151919650600160a060020a038b16955067ffffffffffffffff90931693507f94dcfc46a7c00fd1f10f4416af519fd4e4b8fe0a725f638330574a7e873b652f928190036060019150a350506044805467ffffffffffffffff8082166001011667ffffffffffffffff19909116179055505050565b612742612d09565b606061274c612d09565b612766600461275a86612847565b9063ffffffff61286a16565b915061278982600081518110151561277a57fe5b906020019060200201516128f8565b67ffffffffffffffff16815281516127a8908390600190811061277a57fe5b67ffffffffffffffff16606082015281516127ca908390600290811061277a57fe5b63ffffffff16602082015281516127f790839060039081106127e857fe5b9060200190602002015161291c565b600160a060020a031660408201529392505050565b60008282111561281857fe5b50900390565b600061282a8484612941565b600160a060020a031682600160a060020a03161490509392505050565b61284f612d30565b50805160408051808201909152602092830181529182015290565b6060612874612d47565b6000836040519080825280602002602001820160405280156128b057816020015b61289d612d30565b8152602001906001900390816128955790505b5092506128bc85612b9d565b91505b838110156128f0576128d082612bc2565b83828151811015156128de57fe5b602090810290910101526001016128bf565b505092915050565b600080600061290684612bf4565b90516020919091036101000a9004949350505050565b60008061292883612bf4565b50516c0100000000000000000000000090049392505050565b60008060008060008551604214151561295957600080fd5b85600081518110151561296857fe5b90602001015160f860020a900460f860020a0260f860020a900460ff16600281111561299057fe5b9350602186015191506041860151905060ff6042870151169250600160028111156129b757fe5b8460028111156129c357fe5b1415612a7357604080517f19457468657265756d205369676e6564204d6573736167653a0a333200000000602080830191909152603c8083018b905283518084039091018152605c90920192839052815191929182918401908083835b60208310612a3f5780518252601f199092019160209182019101612a20565b6001836020036101000a03801982511681845116808217855250505050505090500191505060405180910390209650612b2d565b6002846002811115612a8157fe5b1415612b2d57604080517f19457468657265756d205369676e6564204d6573736167653a0a200000000000602080830191909152603b8083018b905283518084039091018152605b90920192839052815191929182918401908083835b60208310612afd5780518252601f199092019160209182019101612ade565b6001836020036101000a038019825116818451168082178552505050505050905001915050604051809103902096505b60408051600080825260208083018085528b905260ff8716838501526060830186905260808301859052925160019360a0808501949193601f19840193928390039091019190865af1158015612b87573d6000803e3d6000fd5b5050604051601f19015198975050505050505050565b612ba5612d47565b6000612bb083612c57565b83519383529092016020820152919050565b612bca612d30565b60208201516000612bda82612c9d565b828452602080850182905292019390910192909252919050565b805180516000918291821a90826080831015612c165781945060019350612c4f565b60b8831015612c345760018660200151039350816001019450612c4f565b60b78303905080600187602001510303935080820160010194505b505050915091565b8051805160009190821a906080821015612c745760009250611e26565b60b8821080612c8f575060c08210158015612c8f575060f882105b15611e265760019250611e26565b8051600090811a6080811015612cb65760019150612cc7565b60b8811015612cc757607e19810191505b50919050565b6040805161014081018252600080825260208201819052918101829052606081018290529060808201908152602001612d04612d68565b905290565b60408051608081018252600080825260208201819052918101829052606081019190915290565b604080518082019091526000808252602082015290565b606060405190810160405280612d5b612d30565b8152602001600081525090565b60a0604051908101604052806000600160a060020a03168152602001600081526020016000815260200160008152602001600081525090560057726f6e67207374617465000000000000000000000000000000000000000000a165627a7a723058208134fd6822ee993e352140d5f3ac4e1c1bb5e303edb71acc294228e1e967b6ed0029",
  "source": "pragma solidity ^0.4.24;\n\n// Linked contract for withdrawals, import only safeTransferFrom interface for gas efficiency in the future\nimport \"./Cards.sol\";\n\n// Zeppelin Imports\nimport \"openzeppelin-solidity/contracts/token/ERC721/ERC721Receiver.sol\";\nimport \"openzeppelin-solidity/contracts/math/SafeMath.sol\";\n\n// Lib deps\nimport \"../Libraries/Transaction/Transaction.sol\";\nimport \"../Libraries/ByteUtils.sol\";\nimport \"../Libraries/ECVerify.sol\";\n\n// Sparse Merkle Tree functionalities\nimport \"./SparseMerkleTree.sol\";\n\n\ncontract RootChainEvents {\n    event Deposit(uint64 indexed slot, uint256 blockNumber, uint64 denomination, address indexed from, bytes32 hash);\n    event SubmittedBlock(uint256 blockNumber, bytes32 root, uint256 timestamp);\n\n    event StartedExit(uint64 indexed slot, address indexed owner, uint256 createdAt);\n    event ChallengedExit(uint64 indexed slot);\n    event RespondedExitChallenge(uint64 indexed slot);\n    event FinalizedExit(uint64  indexed slot, address owner);\n\n    event FreedBond(address indexed from, uint256 amount);\n    event SlashedBond(address indexed from, address indexed to, uint256 amount);\n    event WithdrewBonds(address indexed from, uint256 amount);\n}\n\n\ncontract RootChain is ERC721Receiver, SparseMerkleTree, RootChainEvents {\n\n    using SafeMath for uint256;\n    using Transaction for bytes;\n    using ECVerify for bytes32;\n\n    uint256 constant BOND_AMOUNT = 0.1 ether;\n\n    address public authority;\n\n    /*\n     * Modifiers\n     */\n    modifier isAuthority() {\n        require(msg.sender == authority);\n        _;\n    }\n\n\n    modifier isBonded() {\n        require(msg.value == BOND_AMOUNT);\n\n        // Save challenger's bond\n        balances[msg.sender].bonded = balances[msg.sender].bonded.add(msg.value);\n        _;\n    }\n\n    modifier isState(uint64 slot, State state) {\n        require(coins[slot].state == state, \"Wrong state\");\n        _;\n    }\n\n\n    modifier cleanupExit(uint64 slot) {\n        _;\n        delete coins[slot].exit;\n        delete exitSlots[getIndex(slot)];\n    }\n\n    struct Balance {\n        uint256 bonded;\n        uint256 withdrawable;\n    }\n    mapping (address => Balance ) public balances;\n\n    // exits\n    uint64[] public exitSlots;\n    // Each exit can be challenged once ? Need to confirm if needed for more.\n    mapping (uint64 => address) challengers;\n    struct Exit {\n        address owner;\n        uint256 createdAt;\n        uint256 bond;\n        uint256 prevBlock;\n        uint256 exitBlock;\n    }\n    enum State {\n        DEPOSITED,\n        EXITING,\n        CHALLENGED,\n        RESPONDED,\n        EXITED\n    }\n\n    // tracking of NFTs deposited in each slot\n    uint64 public numCoins = 0;\n    mapping (uint64 => Coin) public coins;\n    struct Coin {\n        uint64 uid; // there are up to 2^64 cards, can probably make it less\n        uint32 denomination; // an owner cannot own more than 256 of a card. Currently set to 1 always, subject to change once the token changes\n        uint256 depositBlock;\n        address owner; // who owns that nft\n        State state;\n        Exit exit;\n    }\n\n    // child chain\n    uint256 public childBlockInterval = 1000;\n    uint256 public currentBlock = 0;\n    uint256 public lastParentBlock;\n    struct childBlock {\n        bytes32 root;\n        uint256 createdAt;\n    }\n\n    uint256 public depositCount;\n    mapping(uint256 => childBlock) public childChain;\n    CryptoCards cryptoCards;\n\n    constructor () public {\n        authority = msg.sender;\n        lastParentBlock = block.number; // to ensure no chain reorgs\n    }\n\n    /// @param root 32 byte merkleRoot of ChildChain block\n    /// @notice childChain blocks can only be submitted at most every 6 root chain blocks\n    function submitBlock(bytes32 root)\n        public\n        isAuthority\n    {\n        // ensure finality on previous blocks before submitting another\n        // require(block.number >= lastParentBlock.add(6)); // commented out while prototyping\n\n        // rounding to next whole `childBlockInterval`\n        currentBlock = currentBlock.add(childBlockInterval)\n                                   .div(childBlockInterval)\n                                   .mul(childBlockInterval);\n\n        childChain[currentBlock] = childBlock({\n            root: root,\n            createdAt: block.timestamp\n        });\n\n        emit SubmittedBlock(currentBlock, root, block.timestamp);\n\n        lastParentBlock = block.number;\n\n    }\n\n\n    /// @dev Allows anyone to deposit funds into the Plasma chain, called when contract receives ERC721\n    function deposit(address from, uint64 uid, uint32 denomination)\n        private\n    {\n        currentBlock = currentBlock.add(1);\n\n        // Update state. Leave `exit` empty\n        Coin memory coin;\n        coin.uid = uid;\n        coin.denomination = denomination;\n        coin.depositBlock = currentBlock;\n        coin.owner = from;\n        coin.state = State.DEPOSITED;\n        coins[numCoins] = coin;\n\n        bytes32 txHash = keccak256(abi.encodePacked(numCoins)); // hash for deposit transactions is the hash of its slot\n\n        childChain[currentBlock] = childBlock({\n            // save signed transaction hash as root\n            root: txHash,\n            createdAt: block.timestamp\n        });\n\n        emit Deposit(numCoins, currentBlock, denomination, from, txHash); // create a utxo at slot `numCoins`\n\n        numCoins += 1;\n    }\n\n    /******************** EXIT RELATED ********************/\n\n    function startExit(\n        uint64 slot, bytes prevTxBytes,\n        bytes exitingTxBytes, bytes prevTxInclusionProof,\n        bytes exitingTxInclusionProof, bytes sig,\n        uint256 prevTxIncBlock, uint256 exitingTxIncBlock)\n        isState(slot, State.DEPOSITED)\n        payable isBonded\n        external\n    {\n        // If we're exiting a deposit UTXO, we do a different inclusion check\n        if (exitingTxIncBlock % childBlockInterval != 0 ) {\n            checkDepositBlockInclusion(exitingTxBytes, sig, exitingTxIncBlock, true);\n        } else {\n            checkBlockInclusion(\n                prevTxBytes, exitingTxBytes,\n                prevTxInclusionProof, exitingTxInclusionProof,\n                sig,\n                prevTxIncBlock, exitingTxIncBlock,\n                true\n            );\n        }\n\n        pushExit(slot, prevTxIncBlock, exitingTxIncBlock);\n    }\n\n    function finalizeExit(uint64 slot) public {\n        Coin storage coin = coins[slot];\n\n        // If a coin is not under exit/challenge, then ignore it\n        if (coin.state == State.DEPOSITED || coin.state == State.EXITED)\n            return;\n\n        // If an exit is not matured, ignore it\n        if ((block.timestamp - coin.exit.createdAt) <= 7 days)\n            return;\n\n        // If a coin has been challenged AND not responded, slash it\n        if (coin.state == State.CHALLENGED) {\n            // Update coin state & penalize exitor\n            coin.state = State.DEPOSITED;\n            slashBond(coin.exit.owner, challengers[slot]);\n        // otherwise, the exit has not been challenged, or it has been challenged and responded\n        } else {\n            // If the exit was actually challenged and responded, penalize the challenger\n            if (coin.state == State.RESPONDED) {\n                slashBond(challengers[slot], coin.exit.owner);\n            }\n\n            // Update coin's owner\n            coin.owner = coin.exit.owner;\n            coin.state = State.EXITED;\n\n            // Allow the exitor to withdraw their bond\n            freeBond(coin.owner);\n\n            emit FinalizedExit(slot, coin.owner);\n        }\n        delete coins[slot].exit;\n        delete exitSlots[getIndex(slot)];\n    }\n\n    function finalizeExits() external {\n        uint256 exitSlotsLength = exitSlots.length;\n        for (uint256 i = 0; i < exitSlotsLength; i++) {\n            finalizeExit(exitSlots[i]);\n        }\n    }\n\n    // Withdraw a UTXO that has been exited\n    function withdraw(uint64 slot) external isState(slot, State.EXITED) {\n        require(coins[slot].owner == msg.sender, \"You do not own that UTXO\");\n        cryptoCards.safeTransferFrom(address(this), msg.sender, uint256(coins[slot].uid));\n    }\n\n    /******************** CHALLENGES ********************/\n\n    // Submit proof of a transaction before prevTx\n    // Exitor has to call respondChallengeBefore and submit a transaction before prevTx or prevTx itself.\n    function challengeBefore(\n        uint64 slot,\n        bytes prevTxBytes, bytes exitingTxBytes,\n        bytes prevTxInclusionProof, bytes exitingTxInclusionProof,\n        bytes sig,\n        uint256 prevTxIncBlock, uint256 exitingTxIncBlock)\n        external\n        payable isBonded\n        isState(slot, State.EXITING)\n    {\n        // If we're exiting a deposit UTXO directly, we do a different inclusion check\n        if (exitingTxIncBlock % childBlockInterval != 0) {\n            checkDepositBlockInclusion(exitingTxBytes, sig, exitingTxIncBlock, false);\n        } else {\n            checkBlockInclusion(\n                prevTxBytes, exitingTxBytes,prevTxInclusionProof,\n                exitingTxInclusionProof, sig,\n                prevTxIncBlock, exitingTxIncBlock, false);\n        }\n        setChallenged(slot);\n    }\n\n    // If `challengeBefore` was successfully challenged, then set state to RESPONDED and allow the coin to be exited. No need to actually attach a bond when responding to a challenge\n    function respondChallengeBefore(uint64 slot, uint256 challengingBlockNumber, bytes challengingTransaction, bytes proof)\n        external\n        isState(slot, State.CHALLENGED)\n    {\n        checkTxIncluded(challengingTransaction, challengingBlockNumber, proof);\n\n        // Mark exit as responded, which will allow it to be finalized once it has matured\n        coins[slot].state = State.RESPONDED;\n        emit RespondedExitChallenge(slot);\n    }\n\n\n    function challengeBetween(uint64 slot, uint256 challengingBlockNumber, bytes challengingTransaction, bytes proof)\n        external isState(slot, State.EXITING) cleanupExit(slot)\n    {\n        // Must challenge with a tx in between\n        require(\n            coins[slot].exit.exitBlock > challengingBlockNumber && coins[slot].exit.prevBlock < challengingBlockNumber,\n            \"Challenging transaction must have happened AFTER the attested exit's timestamp\");\n\n        checkTxIncluded(challengingTransaction, challengingBlockNumber, proof);\n        // Apply penalties and change state\n        slashBond(coins[slot].exit.owner, msg.sender);\n        coins[slot].state = State.DEPOSITED;\n    }\n\n    function challengeAfter(uint64 slot, uint256 challengingBlockNumber, bytes challengingTransaction, bytes proof)\n        external\n        isState(slot, State.EXITING)\n        cleanupExit(slot)\n    {\n        // Must challenge with a later transaction\n        require(challengingBlockNumber > coins[slot].exit.exitBlock);\n        checkTxIncluded(challengingTransaction, challengingBlockNumber, proof);\n        // Apply penalties and delete the exit\n        slashBond(coins[slot].exit.owner, msg.sender);\n        // Reset coin state\n        coins[slot].state = State.DEPOSITED;\n    }\n\n    /******************** BOND RELATED ********************/\n\n    function freeBond(address from) private {\n        balances[from].bonded = balances[from].bonded.sub(BOND_AMOUNT);\n        balances[from].withdrawable = balances[from].withdrawable.add(BOND_AMOUNT);\n        emit FreedBond(from, BOND_AMOUNT);\n    }\n\n    function withdrawBonds() external {\n        // Can only withdraw bond if the msg.sender\n        uint256 amount = balances[msg.sender].withdrawable;\n        balances[msg.sender].withdrawable = 0; // no reentrancy!\n\n        msg.sender.transfer(amount);\n        emit WithdrewBonds(msg.sender, amount);\n    }\n\n    function slashBond(address from, address to) private {\n        balances[from].bonded = balances[from].bonded.sub(BOND_AMOUNT);\n        balances[to].withdrawable = balances[to].withdrawable.add(BOND_AMOUNT);\n        emit SlashedBond(from, to, BOND_AMOUNT);\n    }\n\n    function pushExit(uint64 slot, uint256 prevBlock, uint256 exitingBlock) private {\n        // Push exit to list\n        exitSlots.push(slot);\n\n        // Create exit\n        Coin storage c = coins[slot];\n        c.exit = Exit({\n            owner: msg.sender,\n            createdAt: block.timestamp,\n            bond: msg.value,\n            prevBlock: prevBlock,\n            exitBlock: exitingBlock\n        });\n\n        // Update coin state\n        c.state = State.EXITING;\n        emit StartedExit(slot, msg.sender, block.timestamp);\n    }\n\n    function setChallenged(uint64 slot) private {\n        // Do not delete exit yet. Set its state as challenged and wait for the exitor's response\n        coins[slot].state = State.CHALLENGED;\n        // Save the challenger's address, for applying penalties\n        challengers[slot] = msg.sender;\n        emit ChallengedExit(slot);\n    }\n\n\n    /******************** PROOF CHECKING ********************/\n\n    function checkDepositBlockInclusion(\n        bytes txBytes,\n        bytes signature,\n        uint256 txIncBlock,\n        bool checkSender\n    )\n         private\n         view\n         returns (bool)\n    {\n        Transaction.TX memory txData = txBytes.getTx();\n        if (checkSender)\n            require(txData.owner == msg.sender, \"Invalid sender\");\n\n        bytes32 txHash = keccak256(abi.encodePacked(txData.slot));\n        require(txHash.ecverify(signature, txData.owner), \"Invalid sig\");\n        require(\n            txHash == childChain[txIncBlock].root,\n            \"Deposit Tx not included in block\"\n        );\n\n        return true;\n    }\n\n    function checkBlockInclusion(\n        bytes prevTxBytes, bytes exitingTxBytes,\n        bytes prevTxInclusionProof, bytes exitingTxInclusionProof,\n        bytes sig,\n        uint256 prevTxIncBlock, uint256 exitingTxIncBlock, bool checkSender)\n        private\n        view\n        returns (bool)\n    {\n        Transaction.TX memory exitingTxData = exitingTxBytes.getTx();\n        Transaction.TX memory prevTxData = prevTxBytes.getTx();\n\n        if (checkSender)\n            require(exitingTxData.owner == msg.sender, \"Invalid sender\");\n        require(exitingTxData.slot == prevTxData.slot);\n        require(prevTxIncBlock < exitingTxIncBlock);\n        require(keccak256(exitingTxBytes).ecverify(sig, prevTxData.owner), \"Invalid sig\");\n\n        checkTxIncluded(prevTxBytes, prevTxIncBlock, prevTxInclusionProof);\n        checkTxIncluded(exitingTxBytes, exitingTxIncBlock, exitingTxInclusionProof);\n\n        return true;\n    }\n\n    function checkTxIncluded(bytes txBytes, uint256 blockNumber, bytes proof) private view {\n        Transaction.TX memory txData = txBytes.getTx();\n        bytes32 txHash;\n        bytes32 root = childChain[blockNumber].root;\n\n        // If deposit block, just check the matching hash to the block's root. Simpler verification due to deposit mechanism\n        if (blockNumber % childBlockInterval != 0) {\n            txHash = keccak256(abi.encodePacked(txData.slot));\n            require(txHash == root);\n        } else {\n            txHash = keccak256(txBytes);\n            require(\n                checkMembership(\n                    txHash,\n                    root,\n                    txData.slot,\n                    proof\n                ),\n                \"Tx not included in claimed block\"\n            );\n        }\n    }\n\n\n    /******************** ERC721 ********************/\n\n    function onERC721Received(address _from, uint256 _uid, bytes)\n        public\n        returns(bytes4)\n    {\n        require(msg.sender == address(cryptoCards)); // can only be called by the associated cryptocards contract.\n        deposit(_from, uint64(_uid), uint32(1));\n        return ERC721_RECEIVED;\n    }\n\n    /******************** HELPERS ********************/\n\n    function setCryptoCards(CryptoCards _cryptoCards) isAuthority public {\n        cryptoCards = _cryptoCards;\n    }\n\n    function getIndex(uint64 slot) private view returns (uint256) {\n        uint256 len = exitSlots.length;\n        for (uint256 i = 0; i < len; i++) {\n            if (exitSlots[i] == slot)\n                return i;\n        }\n        return 0;\n    }\n\n    function getPlasmaCoin(uint64 slot) external view returns(uint64, uint256, uint32, address, State) {\n        Coin memory c = coins[slot];\n        return (c.uid, c.depositBlock, c.denomination, c.owner, c.state);\n    }\n}\n",
  "sourcePath": "/Users/aupiff/1-work/loom/plasma-erc721/server/contracts/Core/RootChain.sol",
  "compiler": {
    "name": "solc",
    "version": "0.4.24+commit.e67f0147.Emscripten.clang"
  },
  "schemaVersion": "2.0.0",
  "updatedAt": "2018-06-14T06:41:36.678Z"
}