{
  "contractName": "RootChain",
  "abi": [
    {
      "constant": true,
      "inputs": [],
      "name": "lastParentBlock",
      "outputs": [
        {
          "name": "",
          "type": "uint256"
        }
      ],
      "payable": false,
      "stateMutability": "view",
      "type": "function"
    },
    {
      "constant": true,
      "inputs": [],
      "name": "depositCount",
      "outputs": [
        {
          "name": "",
          "type": "uint256"
        }
      ],
      "payable": false,
      "stateMutability": "view",
      "type": "function"
    },
    {
      "constant": true,
      "inputs": [],
      "name": "childBlockInterval",
      "outputs": [
        {
          "name": "",
          "type": "uint256"
        }
      ],
      "payable": false,
      "stateMutability": "view",
      "type": "function"
    },
    {
      "constant": true,
      "inputs": [
        {
          "name": "",
          "type": "uint256"
        }
      ],
      "name": "defaultHashes",
      "outputs": [
        {
          "name": "",
          "type": "bytes32"
        }
      ],
      "payable": false,
      "stateMutability": "view",
      "type": "function"
    },
    {
      "constant": true,
      "inputs": [],
      "name": "NUM_COINS",
      "outputs": [
        {
          "name": "",
          "type": "uint64"
        }
      ],
      "payable": false,
      "stateMutability": "view",
      "type": "function"
    },
    {
      "constant": true,
      "inputs": [],
      "name": "currentChildBlock",
      "outputs": [
        {
          "name": "",
          "type": "uint256"
        }
      ],
      "payable": false,
      "stateMutability": "view",
      "type": "function"
    },
    {
      "constant": true,
      "inputs": [],
      "name": "currentDepositBlock",
      "outputs": [
        {
          "name": "",
          "type": "uint256"
        }
      ],
      "payable": false,
      "stateMutability": "view",
      "type": "function"
    },
    {
      "constant": true,
      "inputs": [
        {
          "name": "",
          "type": "uint64"
        }
      ],
      "name": "coins",
      "outputs": [
        {
          "name": "uid",
          "type": "uint64"
        },
        {
          "name": "denomination",
          "type": "uint32"
        },
        {
          "name": "owner",
          "type": "address"
        },
        {
          "name": "canExit",
          "type": "bool"
        }
      ],
      "payable": false,
      "stateMutability": "view",
      "type": "function"
    },
    {
      "constant": true,
      "inputs": [
        {
          "name": "",
          "type": "uint256"
        }
      ],
      "name": "exitSlots",
      "outputs": [
        {
          "name": "",
          "type": "uint64"
        }
      ],
      "payable": false,
      "stateMutability": "view",
      "type": "function"
    },
    {
      "constant": true,
      "inputs": [],
      "name": "authority",
      "outputs": [
        {
          "name": "",
          "type": "address"
        }
      ],
      "payable": false,
      "stateMutability": "view",
      "type": "function"
    },
    {
      "constant": true,
      "inputs": [
        {
          "name": "",
          "type": "uint64"
        }
      ],
      "name": "exits",
      "outputs": [
        {
          "name": "owner",
          "type": "address"
        },
        {
          "name": "created_at",
          "type": "uint256"
        }
      ],
      "payable": false,
      "stateMutability": "view",
      "type": "function"
    },
    {
      "constant": true,
      "inputs": [
        {
          "name": "leaf",
          "type": "bytes32"
        },
        {
          "name": "root",
          "type": "bytes32"
        },
        {
          "name": "tokenID",
          "type": "uint64"
        },
        {
          "name": "proof",
          "type": "bytes"
        }
      ],
      "name": "checkMembership",
      "outputs": [
        {
          "name": "",
          "type": "bool"
        }
      ],
      "payable": false,
      "stateMutability": "view",
      "type": "function"
    },
    {
      "constant": true,
      "inputs": [
        {
          "name": "",
          "type": "uint256"
        }
      ],
      "name": "childChain",
      "outputs": [
        {
          "name": "root",
          "type": "bytes32"
        },
        {
          "name": "created_at",
          "type": "uint256"
        }
      ],
      "payable": false,
      "stateMutability": "view",
      "type": "function"
    },
    {
      "inputs": [],
      "payable": false,
      "stateMutability": "nonpayable",
      "type": "constructor"
    },
    {
      "anonymous": false,
      "inputs": [
        {
          "indexed": true,
          "name": "slot",
          "type": "uint64"
        },
        {
          "indexed": false,
          "name": "depositBlockNumber",
          "type": "uint256"
        },
        {
          "indexed": false,
          "name": "denomination",
          "type": "uint64"
        },
        {
          "indexed": true,
          "name": "from",
          "type": "address"
        }
      ],
      "name": "Deposit",
      "type": "event"
    },
    {
      "anonymous": false,
      "inputs": [
        {
          "indexed": true,
          "name": "slot",
          "type": "uint64"
        },
        {
          "indexed": true,
          "name": "owner",
          "type": "address"
        },
        {
          "indexed": false,
          "name": "created_at",
          "type": "uint256"
        }
      ],
      "name": "ExitStarted",
      "type": "event"
    },
    {
      "anonymous": false,
      "inputs": [
        {
          "indexed": false,
          "name": "owner",
          "type": "address"
        },
        {
          "indexed": false,
          "name": "slot",
          "type": "uint64"
        }
      ],
      "name": "FinalizedExit",
      "type": "event"
    },
    {
      "constant": false,
      "inputs": [
        {
          "name": "_cryptoCards",
          "type": "address"
        }
      ],
      "name": "setCryptoCards",
      "outputs": [],
      "payable": false,
      "stateMutability": "nonpayable",
      "type": "function"
    },
    {
      "constant": false,
      "inputs": [
        {
          "name": "root",
          "type": "bytes32"
        }
      ],
      "name": "submitBlock",
      "outputs": [],
      "payable": false,
      "stateMutability": "nonpayable",
      "type": "function"
    },
    {
      "constant": false,
      "inputs": [
        {
          "name": "slot",
          "type": "uint64"
        },
        {
          "name": "prevTxBytes",
          "type": "bytes"
        },
        {
          "name": "exitingTxBytes",
          "type": "bytes"
        },
        {
          "name": "prevTxInclusionProof",
          "type": "bytes"
        },
        {
          "name": "exitingTxInclusionProof",
          "type": "bytes"
        },
        {
          "name": "sigs",
          "type": "bytes"
        },
        {
          "name": "prevTxIncBlock",
          "type": "uint256"
        },
        {
          "name": "exitingTxIncBlock",
          "type": "uint256"
        }
      ],
      "name": "startExit",
      "outputs": [],
      "payable": false,
      "stateMutability": "nonpayable",
      "type": "function"
    },
    {
      "constant": true,
      "inputs": [
        {
          "name": "sigs",
          "type": "bytes"
        },
        {
          "name": "i",
          "type": "uint256"
        }
      ],
      "name": "getSig",
      "outputs": [
        {
          "name": "",
          "type": "bytes"
        }
      ],
      "payable": false,
      "stateMutability": "pure",
      "type": "function"
    },
    {
      "constant": false,
      "inputs": [],
      "name": "finalizeExits",
      "outputs": [],
      "payable": false,
      "stateMutability": "nonpayable",
      "type": "function"
    },
    {
      "constant": false,
      "inputs": [
        {
          "name": "slot",
          "type": "uint64"
        }
      ],
      "name": "challengeExit",
      "outputs": [],
      "payable": false,
      "stateMutability": "nonpayable",
      "type": "function"
    },
    {
      "constant": false,
      "inputs": [
        {
          "name": "slot",
          "type": "uint64"
        }
      ],
      "name": "withdraw",
      "outputs": [],
      "payable": false,
      "stateMutability": "nonpayable",
      "type": "function"
    },
    {
      "constant": true,
      "inputs": [],
      "name": "getDepositBlock",
      "outputs": [
        {
          "name": "",
          "type": "uint256"
        }
      ],
      "payable": false,
      "stateMutability": "view",
      "type": "function"
    },
    {
      "constant": false,
      "inputs": [
        {
          "name": "_from",
          "type": "address"
        },
        {
          "name": "_uid",
          "type": "uint256"
        },
        {
          "name": "_data",
          "type": "bytes"
        }
      ],
      "name": "onERC721Received",
      "outputs": [
        {
          "name": "",
          "type": "bytes4"
        }
      ],
      "payable": false,
      "stateMutability": "nonpayable",
      "type": "function"
    }
  ],
  "bytecode": "0x608060405234801561001057600080fd5b507f290decd9548b62a8d60345a988386fc84ba6bc95484008f6362f93160ef3e56360005561004a6001604064010000000061007e810204565b60408054600160a060020a03191633600160a060020a03161790556103e860458190556046556001604755436048556100f4565b815b8160ff168160ff1610156100ef57600060ff600019830116604081106100a257fe5b0154600060ff600019840116604081106100b857fe5b015460408051928352602083019190915280519182900381019091209060009060ff84169081106100e557fe5b0155600101610080565b505050565b61191280620001046000396000f3006080604052600436106101275763ffffffff7c0100000000000000000000000000000000000000000000000000000000600035041663117546c5811461012c578063245cab33146101535780632dfdf0b514610223578063329be5d51461023857806338a9e0bc1461025b57806348419ad8146102705780635b6a6efb1461028857806366e30d97146102ec578063750f0acc1461031e5780637a95f1e81461034057806398d3650e14610355578063a98c7f2c14610377578063b8bdaf621461038c578063baa47694146103ee578063bcd5926114610406578063bcd5df391461041b578063bf7e214f14610433578063c6ab44cd14610464578063d6463d4014610479578063f0b9e5ba146104be578063f586df651461055c578063f95643b1146105dd575b600080fd5b34801561013857600080fd5b5061014161060e565b60408051918252519081900360200190f35b34801561015f57600080fd5b506040805160206004803580820135601f81018490048402850184019095528484526101ae94369492936024939284019190819084018382808284375094975050933594506106149350505050565b6040805160208082528351818301528351919283929083019185019080838360005b838110156101e85781810151838201526020016101d0565b50505050905090810190601f1680156102155780820380516001836020036101000a031916815260200191505b509250505060405180910390f35b34801561022f57600080fd5b5061014161062c565b34801561024457600080fd5b50610259600160a060020a0360043516610632565b005b34801561026757600080fd5b5061014161067c565b34801561027c57600080fd5b50610141600435610682565b34801561029457600080fd5b506102596004803567ffffffffffffffff16906024803580820192908101359160443580820192908101359160643580820192908101359160843580820192908101359160a43590810191013560c43560e435610696565b3480156102f857600080fd5b5061030161089b565b6040805167ffffffffffffffff9092168252519081900360200190f35b34801561032a57600080fd5b5061025967ffffffffffffffff600435166108ab565b34801561034c57600080fd5b50610141610a59565b34801561036157600080fd5b5061025967ffffffffffffffff60043516610a5f565b34801561038357600080fd5b50610141610ad5565b34801561039857600080fd5b506103ae67ffffffffffffffff60043516610adb565b6040805167ffffffffffffffff909516855263ffffffff9093166020850152600160a060020a039091168383015215156060830152519081900360800190f35b3480156103fa57600080fd5b50610259600435610b31565b34801561041257600080fd5b50610141610ba0565b34801561042757600080fd5b50610301600435610bd0565b34801561043f57600080fd5b50610448610c0c565b60408051600160a060020a039092168252519081900360200190f35b34801561047057600080fd5b50610259610c1b565b34801561048557600080fd5b5061049b67ffffffffffffffff60043516610d95565b60408051600160a060020a03909316835260208301919091528051918290030190f35b3480156104ca57600080fd5b50604080516020600460443581810135601f8101849004840285018401909552848452610527948235600160a060020a0316946024803595369594606494920191908190840183828082843750949750610dba9650505050505050565b604080517fffffffff000000000000000000000000000000000000000000000000000000009092168252519081900360200190f35b34801561056857600080fd5b50604080516020601f6064356004818101359283018490048402850184019095528184526105c994803594602480359567ffffffffffffffff604435169536956084949301918190840183828082843750949750610e0e9650505050505050565b604080519115158252519081900360200190f35b3480156105e957600080fd5b506105f5600435610e28565b6040805192835260208301919091528051918290030190f35b60485481565b606061062583836041026041610e41565b9392505050565b60495481565b60405433600160a060020a0390811691161461064d57600080fd5b604b805473ffffffffffffffffffffffffffffffffffffffff1916600160a060020a0392909216919091179055565b60455481565b6000816040811061068f57fe5b0154905081565b604554818115156106a357fe5b0615610768576107128a8a8080601f0160208091040260200160405190810160405280939291908181526020018383808284375050604080516020601f8c018190048102820181019092528a815294508a9350899250829150840183828082843750889450610ec29350505050565b1515610768576040805160e560020a62461bcd02815260206004820152601d60248201527f4e6f7420696e636c7564656420696e206465706f73697420626c6f636b000000604482015290519081900360640190fd5b60418d908060018154018082558091505090600182039060005260206000209060049182820401919006600802909192909190916101000a81548167ffffffffffffffff021916908367ffffffffffffffff16021790555050604080519081016040528033600160a060020a0316815260200142815250604260008f67ffffffffffffffff1667ffffffffffffffff16815260200190815260200160002060008201518160000160006101000a815481600160a060020a030219169083600160a060020a031602179055506020820151816001015590505033600160a060020a03168d67ffffffffffffffff167fc0e8401e6687da6cbad774f6accc3594f78ce3b77b2b1cc32098d00c153acbf7426040518082815260200191505060405180910390a350505050505050505050505050565b60435467ffffffffffffffff1681565b67ffffffffffffffff811660009081526044602052604090205433600160a060020a039081166c010000000000000000000000009092041614610938576040805160e560020a62461bcd02815260206004820152601860248201527f596f7520646f206e6f74206f776e2074686174205554584f0000000000000000604482015290519081900360640190fd5b67ffffffffffffffff811660009081526044602052604090206001015460ff1615156109ae576040805160e560020a62461bcd02815260206004820152601a60248201527f596f752063616e6e6f742065786974207468617420636f696e21000000000000604482015290519081900360640190fd5b604b5467ffffffffffffffff82811660009081526044602081905260408083205481517f42842e0e000000000000000000000000000000000000000000000000000000008152600160a060020a03308116600483015233811660248301529190951692850192909252519316926342842e0e92606480820193929182900301818387803b158015610a3e57600080fd5b505af1158015610a52573d6000803e3d6000fd5b5050505050565b60465481565b67ffffffffffffffff81166000818152604260205260408120805473ffffffffffffffffffffffffffffffffffffffff1916815560010155604180549091908110610aa657fe5b90600052602060002090600491828204019190066008026101000a81549067ffffffffffffffff021916905550565b60475481565b6044602052600090815260409020805460019091015467ffffffffffffffff82169168010000000000000000810463ffffffff16916c01000000000000000000000000909104600160a060020a03169060ff1684565b60405433600160a060020a03908116911614610b4c57600080fd5b604080518082018252828152426020808301918252604680546000908152604a90925293902091518255516001909101556045549054610b919163ffffffff61101c16565b60465550600160475543604855565b6000610bcb604754610bbf60455460465461102f90919063ffffffff16565b9063ffffffff61101c16565b905090565b6041805482908110610bde57fe5b9060005260206000209060049182820401919006600802915054906101000a900467ffffffffffffffff1681565b604054600160a060020a031681565b610c23611887565b6041546000805b82811015610d8f576041805482908110610c4057fe5b6000918252602080832060048304015460039092166008026101000a90910467ffffffffffffffff1680835260428083526040808520815180830183528154600160a060020a031680825260018084018054848a0152878a526044895294892080546bffffffffffffffffffffffff166c01000000000000000000000000909302929092178255908101805460ff1916909117905592909452835473ffffffffffffffffffffffffffffffffffffffff191690935592909155604180549296509093509082908110610d0e57fe5b60009182526020918290206004820401805467ffffffffffffffff60086003909416939093026101000a830219169055855160408051600160a060020a0390921682529185169281019290925280517f4da140cbb70b544f7feff74241aba80997ccc520b848f2c9195a51597c7050729281900390910190a1600101610c2a565b50505050565b60426020526000908152604090208054600190910154600160a060020a039091169082565b604b5460009033600160a060020a03908116911614610dd857600080fd5b610de58484600185611041565b507ff0b9e5ba000000000000000000000000000000000000000000000000000000009392505050565b600080610e1c8685856112c6565b90941495945050505050565b604a602052600090815260409020805460019091015482565b606080828401855110151515610e5657600080fd5b82158015610e6f57604051915060208201604052610eb9565b6040519150601f8416801560200281840101858101878315602002848b0101015b81831015610ea8578051835260209283019201610e90565b5050858452601f01601f1916604052505b50949350505050565b6000610ecc61189e565b6000610ed7866113ea565b9150856040518082805190602001908083835b60208310610f095780518252601f199092019160209182019101610eea565b6001836020036101000a03801982511681845116808217855250505050505090500191505060405180910390209050610f5585836040015183600019166114c09092919063ffffffff16565b1515610fab576040805160e560020a62461bcd02815260206004820152600b60248201527f496e76616c696420736967000000000000000000000000000000000000000000604482015290519081900360640190fd5b6000848152604a60205260409020548114611010576040805160e560020a62461bcd02815260206004820181905260248201527f4465706f736974205478206e6f7420696e636c7564656420696e20626c6f636b604482015290519081900360640190fd5b50600195945050505050565b8181018281101561102957fe5b92915050565b60008282111561103b57fe5b50900390565b61104961189e565b600080611055846113ea565b604354815191945067ffffffffffffffff91821691161461107557600080fd5b8463ffffffff16836020015163ffffffff1614151561109357600080fd5b86600160a060020a03168360400151600160a060020a03161415156110b757600080fd5b6060830151156110c657600080fd5b6040805160808101825267ffffffffffffffff888116825263ffffffff8881166020808501918252600160a060020a038d8116868801908152600060608801818152604354881682526044855290899020975188549551925167ffffffffffffffff199096169716969096176bffffffff00000000000000001916680100000000000000009190951602939093176bffffffffffffffffffffffff166c01000000000000000000000000929093169190910291909117835590516001909201805460ff1916921515929092179091559051855186928291908401908083835b602083106111c45780518252601f1990920191602091820191016111a5565b6001836020036101000a038019825116818451168082178552505050505050905001915050604051809103902091506111fb610ba0565b6040805180820182528481524260208083019182526000858152604a90915292909220905181559051600191820155604754919250611240919063ffffffff61101c16565b6047556043546040805183815263ffffffff881660208201528151600160a060020a038b169367ffffffffffffffff16927f51f61c9bfc0c0871dbb1aa0ecfc2166a0b5f6e158a489d17454f1ef618ba5eea928290030190a350506043805467ffffffffffffffff8082166001011667ffffffffffffffff199091161790555050505050565b600080600080600080602060088851038115156112df57fe5b061580156112f05750610808875111155b15156112fb57600080fd5b50505050602083015185906008907801000000000000000000000000000000000000000000000000900460005b603f8110156113dd57600182161515611351576000816040811061134857fe5b01549450611372565b6020830192508261ffff1687511015151561136b57600080fd5b8287015194505b60018816151561139a57604080519485526020850186905280519485900301909320926113b5565b60408051868152602081019590955280519485900301909320925b600267ffffffffffffffff8316049150600267ffffffffffffffff8916049750600101611328565b5091979650505050505050565b6113f261189e565b60606113fc61189e565b611416600461140a866114f1565b9063ffffffff61151416565b915061143982600081518110151561142a57fe5b906020019060200201516115a2565b67ffffffffffffffff1681528151611458908390600190811061142a57fe5b67ffffffffffffffff166060820152815161147a908390600290811061142a57fe5b63ffffffff16602082015281516114a7908390600390811061149857fe5b906020019060200201516115c6565b600160a060020a031660408201529150815b5050919050565b60006114d46114ce856115ee565b84611689565b600160a060020a031682600160a060020a03161490509392505050565b6114f9611887565b50805160408051808201909152602092830181529182015290565b606061151e6118c5565b60008360405190808252806020026020018201604052801561155a57816020015b611547611887565b81526020019060019003908161153f5790505b5092506115668561175b565b91505b8381101561159a5761157a82611780565b838281518110151561158857fe5b60209081029091010152600101611569565b505092915050565b60008060006115b0846117b2565b90516020919091036101000a9004949350505050565b60008060006115d4846117b2565b50516c010000000000000000000000009004949350505050565b604080518082018252601c8082527f19457468657265756d205369676e6564204d6573736167653a0a333200000000602083019081529251600093839286929182918083835b602083106116535780518252601f199092019160209182019101611634565b51815160209384036101000a60001901801990921691161790529201938452506040519283900301909120935050505b50919050565b600080600080845160411415156116a35760009350611752565b50505060208201516040830151604184015160ff16601b8110156116c557601b015b8060ff16601b141580156116dd57508060ff16601c14155b156116eb5760009350611752565b60408051600080825260208083018085528a905260ff8516838501526060830187905260808301869052925160019360a0808501949193601f19840193928390039091019190865af1158015611745573d6000803e3d6000fd5b5050506020604051035193505b50505092915050565b6117636118c5565b600061176e83611815565b83519383529092016020820152919050565b611788611887565b602082015160006117988261185b565b828452602080850182905292019390910192909252919050565b805180516000918291821a908260808310156117d4578194506001935061180d565b60b88310156117f2576001866020015103935081600101945061180d565b60b78303905080600187602001510303935080820160010194505b505050915091565b8051805160009190821a90608082101561183257600092506114b9565b60b882108061184d575060c0821015801561184d575060f882105b156114b957600192506114b9565b8051600090811a60808110156118745760019150611683565b60b881101561168357607e190192915050565b604080518082019091526000808252602082015290565b60408051608081018252600080825260208201819052918101829052606081019190915290565b6060604051908101604052806118d9611887565b81526020016000815250905600a165627a7a723058208ed96b1a414c2b611f48eaad95061cdbc7d1c923af29a816fb231a3269b341820029",
  "source": "pragma solidity ^0.4.22;\n\n// Linked contract for withdrawals, import only safeTransferFrom interface for gas efficiency in the future\nimport './Cards.sol';\n\n// Zeppelin Imports\nimport 'openzeppelin-solidity/contracts/token/ERC721/ERC721Receiver.sol';\nimport 'openzeppelin-solidity/contracts/math/SafeMath.sol';\n\n// Lib deps\nimport '../Libraries/Transaction/Transaction.sol';\nimport '../Libraries/ByteUtils.sol';\nimport '../Libraries/ECVerify.sol';\n\n// Sparse Merkle Tree functionalities\nimport './SparseMerkleTree.sol';\n\ncontract RootChain is ERC721Receiver, SparseMerkleTree {\n    /*\n     * Events\n     */\n    event Deposit(uint64 indexed slot, uint256 depositBlockNumber, uint64 denomination, address indexed from);\n    event ExitStarted(uint64 indexed slot, address indexed owner, uint created_at);\n    event FinalizedExit(address  owner, uint64  slot);\n\n    using SafeMath for uint256; // if few operations consider removing and doing asserts inline for less gas costs\n    using Transaction for bytes;\n    using ECVerify for bytes32;\n\n    /*\n     * Storage\n     */\n\n    address public authority;\n\n    // exits\n    uint64[] public exitSlots;\n    mapping(uint64 => Exit) public exits;\n\n    struct Exit {\n        address owner;\n        uint256 created_at;\n    }\n\n    // tracking of NFTs deposited in each slot\n    uint64 public NUM_COINS;\n    mapping (uint64 => NFT_UTXO) public coins; \n    struct NFT_UTXO {\n        uint64 uid; // there are up to 2^256 cards, can probably make it less\n        uint32 denomination; // an owner cannot own more than 256 of a card. Currently set to 1 always, subject to change once the token changes\n        address owner; // who owns that nft\n        bool canExit;\n    }\n\n    // child chain\n    uint256 public childBlockInterval;\n    uint256 public currentChildBlock;\n    uint256 public currentDepositBlock;\n    uint256 public lastParentBlock;\n    struct childBlock {\n        bytes32 root;\n        uint256 created_at;\n    }\n\n    uint public depositCount;\n    mapping(uint => childBlock) public childChain;\n    CryptoCards cryptoCards;\n\n    /*\n     * Modifiers\n     */\n    modifier isAuthority() {\n        require(msg.sender == authority);\n        _;\n    }\n\n    constructor () public{\n        authority = msg.sender;\n\n\t\tchildBlockInterval = 1000;\n        currentChildBlock = childBlockInterval;\n        currentDepositBlock = 1;\n        lastParentBlock = block.number; // to ensure no chain reorgs\n\n    }\n\n    function setCryptoCards(CryptoCards _cryptoCards) isAuthority public {\n        cryptoCards = _cryptoCards;\n    }\n\n    /// @param root 32 byte merkleRoot of ChildChain block\n    /// @notice childChain blocks can only be submitted at most every 6 root chain blocks\n    function submitBlock(bytes32 root)\n        public\n        isAuthority\n    {\n        // ensure finality on previous blocks before submitting another\n        // require(block.number >= lastParentBlock.add(6)); // commented out while prototyping\n\n        childChain[currentChildBlock] = childBlock({\n            root: root,\n            created_at: block.timestamp\n        });\n\n        currentChildBlock = currentChildBlock.add(childBlockInterval);\n        currentDepositBlock = 1;\n        lastParentBlock = block.number;\n\t}\n\n\n    /// @dev Allows anyone to deposit funds into the Plasma chain, called when contract receives ERC721\n    function deposit(address from, uint64 uid, uint32 denomination, bytes txBytes)\n        private\n    {\n        Transaction.TX memory txData = txBytes.getTx();\n        // Verify that the transaction data sent matches the coin data from ERC721\n        require(txData.slot == NUM_COINS);\n        require(txData.denomination == denomination);\n        require(txData.owner == from);\n        require(txData.prevBlock == 0);\n\n        // Update state \"tree\"\n        coins[NUM_COINS] = NFT_UTXO({\n                uid: uid, \n                denomination: denomination,\n                owner: from, \n                canExit: false \n        });\n\n        bytes32 txHash = keccak256(txBytes);\n        uint256 depositBlockNumber = getDepositBlock();\n\n        childChain[depositBlockNumber] = childBlock({\n            root: txHash, // save signed transaction hash as root\n            created_at: block.timestamp\n        });\n\n        currentDepositBlock = currentDepositBlock.add(1);\n        emit Deposit(NUM_COINS, depositBlockNumber, denomination, from); // create a utxo at slot `NUM_COINS`\n\n        NUM_COINS += 1;\n    }\n\n    function startExit(\n        uint64 slot,\n        bytes prevTxBytes, bytes exitingTxBytes, \n        bytes prevTxInclusionProof, bytes exitingTxInclusionProof, \n        bytes sigs,\n        uint prevTxIncBlock, uint exitingTxIncBlock) \n        external\n    {\n        // Different inclusion check depending on if we're exiting a deposit transaction or not\n        if (exitingTxIncBlock % childBlockInterval != 0 ) { \n           require(\n                checkDepositBlockInclusion(\n                    exitingTxBytes, \n                    sigs, // for deposit blocks this is just a single sig\n                    exitingTxIncBlock\n                ),\n                \"Not included in deposit block\"\n            );\n        } else {\n            require(\n                true\n            //    checkBlockInclusion(\n            //        prevTxBytes, exitingTxBytes,\n            //        prevTxInclusionProof, exitingTxInclusionProof,\n            //        sigs,\n            //        prevTxIncBlock, exitingTxIncBlock\n            //    ), \n            //    \"Not included in blocks\"\n            );\n        }\n\n        exitSlots.push(slot);\n        exits[slot] = Exit({\n            owner: msg.sender, \n            created_at: block.timestamp\n        });\n\n        emit ExitStarted(slot, msg.sender, block.timestamp);\n    }\n\n    function getSig(bytes sigs, uint i) public pure returns(bytes) {\n        return ByteUtils.slice(sigs, 65 * i,  65);\n    }\n\n    function checkDepositBlockInclusion(\n        bytes txBytes,\n        bytes signature,\n        uint txIncBlock\n    )\n         private \n         view \n         returns (bool) \n    {\n        Transaction.TX memory txData = txBytes.getTx();\n        bytes32 txHash = keccak256(txBytes); \n\n        require(txHash.ecverify(signature, txData.owner), \"Invalid sig\");\n        require(\n            txHash == childChain[txIncBlock].root, \n            \"Deposit Tx not included in block\"\n        );\n\n        return true;\n    }\n\n\n    function checkBlockInclusion(\n            bytes prevTxBytes, bytes exitingTxBytes,\n            bytes prevTxInclusionProof, bytes exitingTxInclusionProof,\n            bytes sigs,\n            uint prevTxIncBlock, uint exitingTxIncBlock) \n            private\n            view\n            returns (bool)\n    {\n        Transaction.TX memory prevTxData = prevTxBytes.getTx();\n        Transaction.TX memory exitingTxData = exitingTxBytes.getTx();\n\n        bytes32 txHash = keccak256(exitingTxBytes);\n        bytes32 root = childChain[exitingTxIncBlock].root;\n\n        // TODO: Debug the requires.\n        require(txHash.ecverify(getSig(sigs, 1), prevTxData.owner), \"Invalid sig\");\n        require(exitingTxData.owner == msg.sender, \"Invalid sender\");\n        \n        require(\n            checkMembership(\n                txHash,\n                root, \n                exitingTxData.slot, \n                exitingTxInclusionProof\n            ),\n            \"Exiting tx not included in claimed block\"\n        );\n\n        bytes32 prevTxHash = keccak256(prevTxBytes);\n        bytes32 prevRoot = childChain[prevTxIncBlock].root;\n\n        if (prevTxIncBlock % childBlockInterval != 0 ) { \n            require(prevTxHash == prevRoot); // like in deposit block\n        } else {\n            require(\n                checkMembership(\n                    prevTxHash,\n                    prevRoot, \n                    prevTxData.slot,\n                    prevTxInclusionProof\n                ),\n                \"Previous tx not included in claimed block\"\n            );\n        }\n\n        return true;\n    }\n\n    function finalizeExits() external {\n        Exit memory currentExit;\n        uint exitSlotsLength = exitSlots.length;\n        uint64 slot;\n        for (uint i = 0; i < exitSlotsLength; i++) { \n            slot = exitSlots[i];\n            currentExit = exits[slot];\n\n            // Process an exit only if it has matured and hasn't been challenged. Only checking date since a challenged exit will dissapear. < Commented out during Development > \n            // if ((block.timestamp - currentExit.created_at) > 7 days ) {\n                // Change owner of coin at exit.slot and allow that coin to be exited\n                coins[slot].owner = currentExit.owner;\n                coins[slot].canExit = true;\n                \n                // delete the finalized exit\n                delete exits[slot];\n                delete exitSlots[i];\n\n                emit FinalizedExit(currentExit.owner, slot);\n            // }\n        }\n    }\n\n    function challengeExit(uint64 slot) external {\n        // perform validation\n        delete exits[slot];    \n        delete exitSlots[slot];\n    }\n\n    // Withdraw a UTXO that has been exited\n    function withdraw(uint64 slot) external {\n        require(coins[slot].owner == msg.sender, \"You do not own that UTXO\");\n        require(coins[slot].canExit, \"You cannot exit that coin!\");\n        cryptoCards.safeTransferFrom(address(this), msg.sender, uint256(coins[slot].uid));\n    }\n\n    function getDepositBlock() public view returns (uint256) {\n        return currentChildBlock.sub(childBlockInterval).add(currentDepositBlock);\n    }\n\n    /// receiver for erc721 to trigger a deposit\n    function onERC721Received(address _from, uint256 _uid, bytes _data) \n        public \n        returns(bytes4) \n    {\n        require(msg.sender == address(cryptoCards)); // can only be called by the associated cryptocards contract. \n        deposit(_from, uint64(_uid), uint32(1), _data);\n        return ERC721_RECEIVED;\n    }\n}\n\n",
  "sourcePath": "/home/opsec/loom/PLASMA-RESEARCH/cash-erc721/server/contracts/Core/RootChain.sol",
  "compiler": {
    "name": "solc",
    "version": "0.4.23+commit.124ca40d.Emscripten.clang"
  },
  "schemaVersion": "2.0.0",
  "updatedAt": "2018-05-24T12:52:36.770Z"
}