{
  "contractName": "RootChain",
  "abi": [
    {
      "constant": true,
      "inputs": [],
      "name": "lastParentBlock",
      "outputs": [
        {
          "name": "",
          "type": "uint256"
        }
      ],
      "payable": false,
      "stateMutability": "view",
      "type": "function"
    },
    {
      "constant": true,
      "inputs": [],
      "name": "depositCount",
      "outputs": [
        {
          "name": "",
          "type": "uint256"
        }
      ],
      "payable": false,
      "stateMutability": "view",
      "type": "function"
    },
    {
      "constant": true,
      "inputs": [
        {
          "name": "",
          "type": "uint256"
        }
      ],
      "name": "exits",
      "outputs": [
        {
          "name": "owner",
          "type": "address"
        },
        {
          "name": "slot",
          "type": "uint256"
        },
        {
          "name": "created_at",
          "type": "uint256"
        }
      ],
      "payable": false,
      "stateMutability": "view",
      "type": "function"
    },
    {
      "constant": true,
      "inputs": [],
      "name": "childBlockInterval",
      "outputs": [
        {
          "name": "",
          "type": "uint256"
        }
      ],
      "payable": false,
      "stateMutability": "view",
      "type": "function"
    },
    {
      "constant": true,
      "inputs": [
        {
          "name": "",
          "type": "address"
        },
        {
          "name": "",
          "type": "uint256"
        }
      ],
      "name": "pendingWithdrawals",
      "outputs": [
        {
          "name": "",
          "type": "uint256"
        }
      ],
      "payable": false,
      "stateMutability": "view",
      "type": "function"
    },
    {
      "constant": true,
      "inputs": [],
      "name": "NUM_COINS",
      "outputs": [
        {
          "name": "",
          "type": "uint256"
        }
      ],
      "payable": false,
      "stateMutability": "view",
      "type": "function"
    },
    {
      "constant": true,
      "inputs": [],
      "name": "currentChildBlock",
      "outputs": [
        {
          "name": "",
          "type": "uint256"
        }
      ],
      "payable": false,
      "stateMutability": "view",
      "type": "function"
    },
    {
      "constant": true,
      "inputs": [],
      "name": "currentDepositBlock",
      "outputs": [
        {
          "name": "",
          "type": "uint256"
        }
      ],
      "payable": false,
      "stateMutability": "view",
      "type": "function"
    },
    {
      "constant": true,
      "inputs": [],
      "name": "authority",
      "outputs": [
        {
          "name": "",
          "type": "address"
        }
      ],
      "payable": false,
      "stateMutability": "view",
      "type": "function"
    },
    {
      "constant": true,
      "inputs": [
        {
          "name": "",
          "type": "uint256"
        }
      ],
      "name": "coins",
      "outputs": [
        {
          "name": "uid",
          "type": "uint256"
        },
        {
          "name": "denomination",
          "type": "uint256"
        },
        {
          "name": "owner",
          "type": "address"
        },
        {
          "name": "canExit",
          "type": "bool"
        }
      ],
      "payable": false,
      "stateMutability": "view",
      "type": "function"
    },
    {
      "constant": true,
      "inputs": [
        {
          "name": "",
          "type": "uint256"
        }
      ],
      "name": "childChain",
      "outputs": [
        {
          "name": "root",
          "type": "bytes32"
        },
        {
          "name": "created_at",
          "type": "uint256"
        }
      ],
      "payable": false,
      "stateMutability": "view",
      "type": "function"
    },
    {
      "inputs": [],
      "payable": false,
      "stateMutability": "nonpayable",
      "type": "constructor"
    },
    {
      "anonymous": false,
      "inputs": [
        {
          "indexed": false,
          "name": "slot",
          "type": "uint256"
        },
        {
          "indexed": false,
          "name": "depositBlockNumber",
          "type": "uint256"
        },
        {
          "indexed": false,
          "name": "denomination",
          "type": "uint256"
        },
        {
          "indexed": true,
          "name": "from",
          "type": "address"
        }
      ],
      "name": "Deposit",
      "type": "event"
    },
    {
      "anonymous": false,
      "inputs": [
        {
          "indexed": false,
          "name": "owner",
          "type": "address"
        },
        {
          "indexed": false,
          "name": "uid",
          "type": "uint256"
        }
      ],
      "name": "CanWithdraw",
      "type": "event"
    },
    {
      "anonymous": false,
      "inputs": [
        {
          "indexed": true,
          "name": "slot",
          "type": "uint256"
        },
        {
          "indexed": true,
          "name": "priority",
          "type": "uint256"
        },
        {
          "indexed": true,
          "name": "owner",
          "type": "address"
        },
        {
          "indexed": false,
          "name": "created_at",
          "type": "uint256"
        }
      ],
      "name": "ExitStarted",
      "type": "event"
    },
    {
      "anonymous": false,
      "inputs": [
        {
          "indexed": false,
          "name": "priority",
          "type": "uint256"
        },
        {
          "indexed": false,
          "name": "owner",
          "type": "address"
        },
        {
          "indexed": false,
          "name": "uid",
          "type": "uint256"
        }
      ],
      "name": "FinalizedExit",
      "type": "event"
    },
    {
      "constant": false,
      "inputs": [
        {
          "name": "_cryptoCards",
          "type": "address"
        }
      ],
      "name": "setCryptoCards",
      "outputs": [],
      "payable": false,
      "stateMutability": "nonpayable",
      "type": "function"
    },
    {
      "constant": false,
      "inputs": [
        {
          "name": "root",
          "type": "bytes32"
        }
      ],
      "name": "submitBlock",
      "outputs": [],
      "payable": false,
      "stateMutability": "nonpayable",
      "type": "function"
    },
    {
      "constant": false,
      "inputs": [
        {
          "name": "prevTxBytes",
          "type": "bytes"
        },
        {
          "name": "exitingTxBytes",
          "type": "bytes"
        },
        {
          "name": "prevTxInclusionProof",
          "type": "bytes"
        },
        {
          "name": "exitingTxInclusionProof",
          "type": "bytes"
        }
      ],
      "name": "startExit",
      "outputs": [],
      "payable": false,
      "stateMutability": "nonpayable",
      "type": "function"
    },
    {
      "constant": false,
      "inputs": [],
      "name": "finalizeExits",
      "outputs": [],
      "payable": false,
      "stateMutability": "nonpayable",
      "type": "function"
    },
    {
      "constant": false,
      "inputs": [
        {
          "name": "slot",
          "type": "uint256"
        }
      ],
      "name": "withdraw",
      "outputs": [],
      "payable": false,
      "stateMutability": "nonpayable",
      "type": "function"
    },
    {
      "constant": true,
      "inputs": [],
      "name": "getDepositBlock",
      "outputs": [
        {
          "name": "",
          "type": "uint256"
        }
      ],
      "payable": false,
      "stateMutability": "view",
      "type": "function"
    },
    {
      "constant": false,
      "inputs": [
        {
          "name": "_from",
          "type": "address"
        },
        {
          "name": "_uid",
          "type": "uint256"
        },
        {
          "name": "",
          "type": "bytes"
        }
      ],
      "name": "onERC721Received",
      "outputs": [
        {
          "name": "",
          "type": "bytes4"
        }
      ],
      "payable": false,
      "stateMutability": "nonpayable",
      "type": "function"
    }
  ],
  "bytecode": "0x608060405234801561001057600080fd5b5060008054600160a060020a03191633600160a060020a03161790556103e8600581905560065560016007554360085561004861008a565b604051809103906000f080158015610064573d6000803e3d6000fd5b5060018054600160a060020a031916600160a060020a039290921691909117905561009a565b604051610685806119d983390190565b611930806100a96000396000f3006080604052600436106100e25763ffffffff60e060020a6000350416630e0a770581146100e7578063117546c51461012d5780632dfdf0b5146101545780632e1a7d4d14610169578063329be5d514610181578063342de179146101a257806338a9e0bc146101e257806344dc4970146101f757806366e30d971461021b5780637a95f1e814610230578063a98c7f2c14610245578063baa476941461025a578063bcd5926114610272578063bf7e214f14610287578063c6610657146102b8578063c6ab44cd14610300578063f0b9e5ba14610315578063f95643b1146103b3575b600080fd5b3480156100f357600080fd5b5061012b60246004803582810192908201359181358083019290820135916044358083019290820135916064359182019101356103e4565b005b34801561013957600080fd5b506101426107c9565b60408051918252519081900360200190f35b34801561016057600080fd5b506101426107cf565b34801561017557600080fd5b5061012b6004356107d5565b34801561018d57600080fd5b5061012b600160a060020a036004351661096e565b3480156101ae57600080fd5b506101ba6004356109b8565b60408051600160a060020a039094168452602084019290925282820152519081900360600190f35b3480156101ee57600080fd5b506101426109e4565b34801561020357600080fd5b50610142600160a060020a03600435166024356109ea565b34801561022757600080fd5b50610142610a1a565b34801561023c57600080fd5b50610142610a20565b34801561025157600080fd5b50610142610a26565b34801561026657600080fd5b5061012b600435610a2c565b34801561027e57600080fd5b50610142610a9b565b34801561029357600080fd5b5061029c610acb565b60408051600160a060020a039092168252519081900360200190f35b3480156102c457600080fd5b506102d0600435610ada565b604080519485526020850193909352600160a060020a039091168383015215156060830152519081900360800190f35b34801561030c57600080fd5b5061012b610b21565b34801561032157600080fd5b50604080516020600460443581810135601f810184900484028501840190955284845261037e948235600160a060020a03169460248035953695946064949201919081908401838280828437509497506111319650505050505050565b604080517fffffffff000000000000000000000000000000000000000000000000000000009092168252519081900360200190f35b3480156103bf57600080fd5b506103cb600435611184565b6040805192835260208301919091528051918290030190f35b6103ec611868565b60006103f6611868565b60006104318a8a8080601f0160208091040260200160405190810160405280939291908181526020018383808284375061119d945050505050565b9350600554846020015181151561044457fe5b061561054257835160408051918252519081900360200190206080850151606086015191945061047c9185919063ffffffff61127716565b15156104d2576040805160e560020a62461bcd02815260206004820152600b60248201527f496e76616c696420736967000000000000000000000000000000000000000000604482015290519081900360640190fd5b6020808501516000908152600a9091526040902054831461053d576040805160e560020a62461bcd02815260206004820181905260248201527f4465706f736974205478206e6f7420696e636c7564656420696e20626c6f636b604482015290519081900360640190fd5b61067e565b8989604051808383808284378201915050925050506040518091039020925061059a8c8c8080601f0160208091040260200160405190810160405280939291908181526020018383808284375061119d945050505050565b608085015160608201519193506105b99185919063ffffffff61127716565b151561060f576040805160e560020a62461bcd02815260206004820152600b60248201527f496e76616c696420736967000000000000000000000000000000000000000000604482015290519081900360640190fd5b33600160a060020a03168460600151600160a060020a031614151561067e576040805160e560020a62461bcd02815260206004820152600e60248201527f496e76616c69642073656e646572000000000000000000000000000000000000604482015290519081900360640190fd5b5082516020840151600154604080517f90b5561d0000000000000000000000000000000000000000000000000000000081526298968090930261271090940293909301600483018190529251600160a060020a03909116916390b5561d91602480830192600092919082900301818387803b1580156106fc57600080fd5b505af1158015610710573d6000803e3d6000fd5b5050604080516060808201835288018051600160a060020a039081168352895160208085019182524285870181815260008b81526002808552908990209751885473ffffffffffffffffffffffffffffffffffffffff19169087161788559351600188015551959092019490945591518a5185519384529451911695508694507feb9feac0a4ba4d079cf453d2a7c97bc515895ae7da69359a98b6e01fb2042e9f929181900390910190a4505050505050505050505050565b60085481565b60095481565b60008181526004602052604090206002015433600160a060020a0390811691161461084a576040805160e560020a62461bcd02815260206004820152601860248201527f596f7520646f206e6f74206f776e2074686174205554584f0000000000000000604482015290519081900360640190fd5b60008181526004602052604090206002015474010000000000000000000000000000000000000000900460ff1615156108cd576040805160e560020a62461bcd02815260206004820152601a60248201527f596f752063616e6e6f742065786974207468617420636f696e21000000000000604482015290519081900360640190fd5b600c5460008281526004602081905260408083205481517f42842e0e000000000000000000000000000000000000000000000000000000008152600160a060020a033081169482019490945233841660248201526044810191909152905191909316926342842e0e92606480830193919282900301818387803b15801561095357600080fd5b505af1158015610967573d6000803e3d6000fd5b5050505050565b60005433600160a060020a0390811691161461098957600080fd5b600c805473ffffffffffffffffffffffffffffffffffffffff1916600160a060020a0392909216919091179055565b6002602081905260009182526040909120805460018201549190920154600160a060020a039092169183565b60055481565b600b60205281600052604060002081815481101515610a0557fe5b90600052602060002001600091509150505481565b60035481565b60065481565b60075481565b60005433600160a060020a03908116911614610a4757600080fd5b604080518082018252828152426020808301918252600680546000908152600a90925293902091518255516001909101556005549054610a8c9163ffffffff6112a816565b60065550600160075543600855565b6000610ac6600754610aba6005546006546112bb90919063ffffffff16565b9063ffffffff6112a816565b905090565b600054600160a060020a031681565b600460205260009081526040902080546001820154600290920154909190600160a060020a0381169074010000000000000000000000000000000000000000900460ff1684565b6000610b2b6118a1565b6001546040805160e060020a63bda1504b0281529051600092600160a060020a03169163bda1504b91600480830192602092919082900301818787803b158015610b7457600080fd5b505af1158015610b88573d6000803e3d6000fd5b505050506040513d6020811015610b9e57600080fd5b505111610bf5576040805160e560020a62461bcd02815260206004820152601060248201527f6578697420717565756520656d70747900000000000000000000000000000000604482015290519081900360640190fd5b600160009054906101000a9004600160a060020a0316600160a060020a031663d6362e976040518163ffffffff1660e060020a028152600401602060405180830381600087803b158015610c4857600080fd5b505af1158015610c5c573d6000803e3d6000fd5b505050506040513d6020811015610c7257600080fd5b505160008181526002602081815260409283902083516060810185528154600160a060020a03168152600182015492810192909252909101549181019190915290925090505b6001546040805160e060020a63bda1504b0281529051600092600160a060020a03169163bda1504b91600480830192602092919082900301818787803b158015610d0157600080fd5b505af1158015610d15573d6000803e3d6000fd5b505050506040513d6020811015610d2b57600080fd5b5051118015610d42575062093a8081604001514203115b1561112d578051600160a060020a03161515610f1f57600160009054906101000a9004600160a060020a0316600160a060020a031663b07576ac6040518163ffffffff1660e060020a028152600401602060405180830381600087803b158015610dab57600080fd5b505af1158015610dbf573d6000803e3d6000fd5b505050506040513d6020811015610dd557600080fd5b50506001546040805160e060020a63bda1504b0281529051600160a060020a039092169163bda1504b916004808201926020929091908290030181600087803b158015610e2157600080fd5b505af1158015610e35573d6000803e3d6000fd5b505050506040513d6020811015610e4b57600080fd5b50511515610e585761112d565b600160009054906101000a9004600160a060020a0316600160a060020a031663d6362e976040518163ffffffff1660e060020a028152600401602060405180830381600087803b158015610eab57600080fd5b505af1158015610ebf573d6000803e3d6000fd5b505050506040513d6020811015610ed557600080fd5b505160008181526002602081815260409283902083516060810185528154600160a060020a0316815260018201549281019290925290910154918101919091529092509050610cb8565b805160208083018051600090815260048352604080822060029081018054600160a060020a0397881673ffffffffffffffffffffffffffffffffffffffff199091161790558351835291819020909101805474ff0000000000000000000000000000000000000000191674010000000000000000000000000000000000000000179055845191518151878152929094169282019290925280820192909252517fbd50b348996c7886c27e252b1b158f20c6cb5f036bd5c1b1039f1111a0ba78829181900360600190a1805160208083015160408051600160a060020a0390941684529183015280517fcb9ff625f589aa0e687e6e3e13884bf647901a8593d2d9de711f09cc2f3a52a49281900390910190a1600160009054906101000a9004600160a060020a0316600160a060020a031663b07576ac6040518163ffffffff1660e060020a028152600401602060405180830381600087803b15801561108457600080fd5b505af1158015611098573d6000803e3d6000fd5b505050506040513d60208110156110ae57600080fd5b50506000828152600260208181526040808420805473ffffffffffffffffffffffffffffffffffffffff19168155600180820186905593018490559154825160e060020a63bda1504b0281529251600160a060020a039091169363bda1504b936004808201949392918390030190829087803b158015610e2157600080fd5b5050565b600c5460009033600160a060020a0390811691161461114f57600080fd5b61115b848460016112cd565b507ff0b9e5ba000000000000000000000000000000000000000000000000000000009392505050565b600a602052600090815260409020805460019091015482565b6111a5611868565b60606111ba6111b384611437565b6004611465565b905060a0604051908101604052806111e98360008151811015156111da57fe5b906020019060200201516114f3565b81526020016112008360018151811015156111da57fe5b81526020016112178360028151811015156111da57fe5b815260200161123d83600381518110151561122e57fe5b90602001906020020151611517565b600160a060020a0316815260200161126c83600481518110151561125d57fe5b9060200190602002015161153f565b905291505b50919050565b600061128b61128585611593565b8461162c565b600160a060020a031682600160a060020a03161490509392505050565b818101828110156112b557fe5b92915050565b6000828211156112c757fe5b50900390565b604080516080810182528381526020808201848152600160a060020a03878116848601908152600060608601818152600380548352600487528883209751885594516001880155915160029096018054925173ffffffffffffffffffffffffffffffffffffffff19909316969093169590951774ff0000000000000000000000000000000000000000191674010000000000000000000000000000000000000000911515919091021790555483519081529251928390030190912090611391610a9b565b6040805180820182528481524260208083019182526000858152600a909152929092209051815590516001918201556007549192506113d6919063ffffffff6112a816565b600755600354604080519182526020820183905281810185905251600160a060020a038716917f51e752a40f05002d50a3d3ecb6ca75f7a8483cc0d7fa980817e56b7c6444e7c1919081900360600190a25050600380546001019055505050565b61143f6118cc565b5080516040805180820190915260208084018083529082018390529091905b5050919050565b606061146f6118e3565b6000836040519080825280602002602001820160405280156114ab57816020015b6114986118cc565b8152602001906001900390816114905790505b5092506114b7856116fe565b91505b838110156114eb576114cb82611723565b83828151811015156114d957fe5b602090810290910101526001016114ba565b505092915050565b600080600061150184611755565b90516020919091036101000a9004949350505050565b600080600061152584611755565b50516c010000000000000000000000009004949350505050565b602081015160609080151561155357611271565b806040519080825280601f01601f191660200182016040528015611581578160200160208202803883390190505b509150611271836000015183836117b8565b604080518082018252601c8082527f19457468657265756d205369676e6564204d6573736167653a0a333200000000602083019081529251600093839286929182918083835b602083106115f85780518252601f1990920191602091820191016115d9565b51815160209384036101000a6000190180199092169116179052920193845250604051928390030190912095945050505050565b6000806000808451604114151561164657600093506116f5565b50505060208201516040830151604184015160ff16601b81101561166857601b015b8060ff16601b1415801561168057508060ff16601c14155b1561168e57600093506116f5565b60408051600080825260208083018085528a905260ff8516838501526060830187905260808301869052925160019360a0808501949193601f19840193928390039091019190865af11580156116e8573d6000803e3d6000fd5b5050506020604051035193505b50505092915050565b6117066118e3565b6000611711836117f6565b83519383529092016020820152919050565b61172b6118cc565b6020820151600061173b8261183c565b828452602080850182905292019390910192909252919050565b805180516000918291821a9082608083101561177757819450600193506117b0565b60b883101561179557600186602001510393508160010194506117b0565b60b78303905080600187602001510303935080820160010194505b505050915091565b6020601f820104836020840160005b838110156117e3576020810283810151908301526001016117c7565b5060008551602001860152505050505050565b8051805160009190821a906080821015611813576000925061145e565b60b882108061182e575060c0821015801561182e575060f882105b1561145e576001925061145e565b8051600090811a60808110156118555760019150611271565b60b881101561127157607e190192915050565b60a0604051908101604052806000815260200160008152602001600081526020016000600160a060020a03168152602001606081525090565b6060604051908101604052806000600160a060020a0316815260200160008152602001600081525090565b604080518082019091526000808252602082015290565b6060604051908101604052806118f76118cc565b81526020016000815250905600a165627a7a723058203ae66702a641ff6b56cc96f7a34df78617c653541384380c436c6f506c9a0ccd0029608060405234801561001057600080fd5b5060008054600160a060020a03191633600160a060020a031617815560408051602081019091529081526100479060019081610052565b5060006002556100bf565b828054828255906000526020600020908101928215610092579160200282015b82811115610092578251829060ff16905591602001919060010190610072565b5061009e9291506100a2565b5090565b6100bc91905b8082111561009e57600081556001016100a8565b90565b6105b7806100ce6000396000f30060806040526004361061006c5763ffffffff7c01000000000000000000000000000000000000000000000000000000006000350416632dcdcd0c811461007157806390b5561d1461009b578063b07576ac146100b5578063bda1504b146100ca578063d6362e97146100df575b600080fd5b34801561007d57600080fd5b506100896004356100f4565b60408051918252519081900360200190f35b3480156100a757600080fd5b506100b36004356101c3565b005b3480156100c157600080fd5b50610089610241565b3480156100d657600080fd5b50610089610324565b3480156100eb57600080fd5b5061008961032a565b600060025461011e600161011260028661034c90919063ffffffff16565b9063ffffffff61037b16565b111561013c5761013582600263ffffffff61034c16565b90506101be565b60016101538161011285600263ffffffff61034c16565b8154811061015d57fe5b600091825260209091200154600161017c84600263ffffffff61034c16565b8154811061018657fe5b906000526020600020015410156101a85761013582600263ffffffff61034c16565b610135600161011284600263ffffffff61034c16565b919050565b6000543373ffffffffffffffffffffffffffffffffffffffff9081169116146101eb57600080fd5b60018054808201825560008290527fb10e2d527612073b26eecdfd717e6a320cf44b4afac2b0732d9fcbe2b7fa0cf6018290556002546102309163ffffffff61037b16565b600281905561023e90610388565b50565b6000805481903373ffffffffffffffffffffffffffffffffffffffff90811691161461026c57600080fd5b600180548190811061027a57fe5b90600052602060002001549050600160025481548110151561029857fe5b90600052602060002001546001808154811015156102b257fe5b906000526020600020018190555060016002548154811015156102d157fe5b60009182526020822001556002546102f090600163ffffffff61045c16565b6002556102fd600161046e565b600180546103109163ffffffff61045c16565b61031b600182610552565b508091505b5090565b60025481565b600060018081548110151561033b57fe5b906000526020600020015490505b90565b600082151561035d57506000610375565b5081810281838281151561036d57fe5b041461037557fe5b92915050565b8181018281101561037557fe5b6001805482916000918390811061039b57fe5b906000526020600020015490505b60016103bc84600263ffffffff61053d16565b815481106103c657fe5b90600052602060002001548110156104335760016103eb84600263ffffffff61053d16565b815481106103f557fe5b906000526020600020015460018481548110151561040f57fe5b60009182526020909120015561042c83600263ffffffff61053d16565b92506103a9565b828214610457578060018481548110151561044a57fe5b6000918252602090912001555b505050565b60008282111561046857fe5b50900390565b600080600083925060018481548110151561048557fe5b9060005260206000200154915061049b846100f4565b90505b60025481111580156104c7575060018054829081106104b957fe5b906000526020600020015482115b156105135760018054829081106104da57fe5b90600052602060002001546001858154811015156104f457fe5b60009182526020909120015592508261050c816100f4565b905061049e565b838314610537578160018581548110151561052a57fe5b6000918252602090912001555b50505050565b6000818381151561054a57fe5b049392505050565b8154818355818111156104575760008381526020902061045791810190830161034991905b8082111561032057600081556001016105775600a165627a7a723058207fc02cfcdf37691a39c34e1faf50153f66b40bd9d3364ce22eea5f3ea5d8daec0029",
  "source": "pragma solidity ^0.4.22;\n\nimport 'openzeppelin-solidity/contracts/token/ERC721/ERC721Receiver.sol';\nimport 'openzeppelin-solidity/contracts/math/SafeMath.sol';\nimport './Cards.sol';\n\n// Lib deps\nimport '../Queue/PriorityQueue.sol';\nimport '../Libraries/ERC721PlasmaRLP.sol';\nimport '../Libraries/ECVerify.sol';\nimport '../Libraries/Merkle.sol';\n\ncontract RootChain is ERC721Receiver {\n    /*\n     * Events\n     */\n    event Deposit(uint256 slot, uint256 depositBlockNumber, uint256 denomination, address indexed from);\n    event CanWithdraw(address  owner, uint  uid);\n    event ExitStarted(uint indexed slot, uint indexed priority, address indexed owner, uint created_at);\n    event FinalizedExit(uint priority, address  owner, uint256  uid);\n\n    using SafeMath for uint256;\n    using ERC721PlasmaRLP for bytes;\n    using ERC721PlasmaRLP for ERC721PlasmaRLP.txData;\n    using ECVerify for bytes32;\n    using Merkle for bytes32;\n\n    /*\n     * Storage\n     */\n\n    address public authority;\n\n    // exits\n    PriorityQueue exitsQueue;\n    mapping(uint256 => Exit) public exits;\n    struct Exit {\n        address owner;\n        uint256 slot;\n        uint256 created_at;\n    }\n\n    // tracking of NFTs deposited in each slot\n    uint public NUM_COINS;\n    mapping (uint => NFT_UTXO) public coins; \n    struct NFT_UTXO {\n        uint256 uid; // there are up to 2^256 cards, can probably make it less\n        uint256 denomination; // an owner cannot own more than 256 of a card. Currently set to 1 always, subject to change once the token changes\n        address owner; // who owns that nft\n        bool canExit;\n    }\n\n    // child chain\n    uint256 public childBlockInterval;\n    uint256 public currentChildBlock;\n    uint256 public currentDepositBlock;\n    uint256 public lastParentBlock;\n    struct childBlock {\n        bytes32 root;\n        uint256 created_at;\n    }\n\n    uint public depositCount;\n    mapping(uint => childBlock) public childChain;\n    mapping(address => uint256[]) public pendingWithdrawals; //  the pending cards to withdraw\n    CryptoCards cryptoCards;\n\n    /*\n     * Modifiers\n     */\n    modifier isAuthority() {\n        require(msg.sender == authority);\n        _;\n    }\n\n    constructor () public{\n        authority = msg.sender;\n\n\t\tchildBlockInterval = 1000;\n        currentChildBlock = childBlockInterval;\n        currentDepositBlock = 1;\n        lastParentBlock = block.number; // to ensure no chain reorgs\n\n        exitsQueue = new PriorityQueue();\n    }\n\n    function setCryptoCards(CryptoCards _cryptoCards) isAuthority public {\n        cryptoCards = _cryptoCards;\n    }\n\n    /// @param root 32 byte merkleRoot of ChildChain block\n    /// @notice childChain blocks can only be submitted at most every 6 root chain blocks\n    function submitBlock(bytes32 root)\n        public\n        isAuthority\n    {\n        // ensure finality on previous blocks before submitting another\n        // require(block.number >= lastParentBlock.add(6)); // commented out while prototyping\n\n        childChain[currentChildBlock] = childBlock({\n            root: root,\n            created_at: block.timestamp\n        });\n\n        currentChildBlock = currentChildBlock.add(childBlockInterval);\n        currentDepositBlock = 1;\n        lastParentBlock = block.number;\n\t}\n\n\n    /// @dev Allows anyone to deposit funds into the Plasma chain, called when contract receives ERC721\n    function deposit(address from, uint256 uid, uint256 denomination)\n        private\n    {\n        // Update state \"tree\"\n        coins[NUM_COINS] = NFT_UTXO({\n                uid: uid, \n                denomination: denomination,\n                owner: from, \n                canExit: false // cannot directly withdraw a coin, need to go through normal exit process\n            });\n        // TX hash is always the hash slot of the coin\n        bytes32 txHash = keccak256(NUM_COINS); \n        uint256 depositBlockNumber = getDepositBlock();\n\n        childChain[depositBlockNumber] = childBlock({\n            root: txHash,\n            created_at: block.timestamp\n        });\n\n        currentDepositBlock = currentDepositBlock.add(1);\n        emit Deposit(NUM_COINS, depositBlockNumber, denomination, from); // create a utxo at `uid`\n\n        NUM_COINS += 1;\n    }\n\n\n\n    // Assume that transactions are signed\n    function startExit(\n        bytes prevTxBytes, bytes exitingTxBytes, \n        bytes prevTxInclusionProof, bytes exitingTxInclusionProof) \n        external\n    {\n        ERC721PlasmaRLP.txData memory exitingTxData = exitingTxBytes.createExitingTx();\n        bytes32 txHash;\n\n        //  Need to check that the exiting transaction has a valid signatrue by its owner in order to prevent someone else exiting the owner's funds when they don't want it.\n\n        if (exitingTxData.prevBlock % childBlockInterval != 0 ) { \n            // If it's an exit of a deposit transaction then we need to check that:\n            // the transaction hash was indeed the root of the claimed deposit block\n            txHash = keccak256(exitingTxData.slot);\n            require(txHash.ecverify(exitingTxData.sig, exitingTxData.owner), \"Invalid sig\");\n            require(txHash == childChain[exitingTxData.prevBlock].root, \n                    \"Deposit Tx not included in block\");\n        } else {\n            txHash = keccak256(exitingTxBytes);\n            ERC721PlasmaRLP.txData memory prevTxData = prevTxBytes.createExitingTx();\n            // Check that exiting tx is indeed linked to the previous tx\n            require(txHash.ecverify(exitingTxData.sig, prevTxData.owner), \"Invalid sig\");\n            // Only the tx owner can exit that transaction. In the context of delegated exits, we wold need to check a signed message.\n            require(exitingTxData.owner == msg.sender, \"Invalid sender\");\n\n            // Otherwise we need to check for a proper inclusion of the transaction and the\n            // referenced transaction in the blocks' merkle roots\n            // require(checkBlockInclusion(\n            //         prevTxBytes, exitingTxBytes,\n            //         prevTxInclusionProof, exitingTxInclusionProof\n            //     ), \n            //     \"Inclusion proof failed\"\n            // );\n        }\n        uint priority = exitingTxData.prevBlock * 10000000  + exitingTxData.slot * 10000;\n\n        exitsQueue.insert(priority);\n        exits[priority] = Exit({\n            owner: exitingTxData.owner, \n            slot: exitingTxData.slot, \n            created_at: block.timestamp\n        });\n        emit ExitStarted(exitingTxData.slot, priority, exitingTxData.owner, block.timestamp);\n    }\n\n    function checkBlockInclusion(\n            bytes prevTxBytes, bytes exitingTxBytes,\n            bytes prevTxInclusionProof, bytes exitingTxInclusionProof) \n            private\n            view\n            returns (bool)\n    {\n        ERC721PlasmaRLP.txData memory prevTxData = prevTxBytes.createExitingTx();\n        bytes32 prevMerkleHash = keccak256(prevTxBytes);\n        bytes32 prevRoot = childChain[prevTxData.prevBlock].root;\n\n\n        ERC721PlasmaRLP.txData memory exitingTxData = exitingTxBytes.createExitingTx();\n        bytes32 merkleHash = keccak256(exitingTxBytes);\n        bytes32 root = childChain[exitingTxData.prevBlock].root;\n\n        require(\n            prevMerkleHash.checkMembership(\n                prevTxData.slot,\n                prevRoot, \n                prevTxInclusionProof\n            ),\n            \"Previous tx not included in claimed block\"\n        );\n\n        require(\n            merkleHash.checkMembership(\n                exitingTxData.slot, \n                root, \n                exitingTxInclusionProof\n            ),\n            \"Exiting tx not included in claimed block\"\n        );\n\n        return true;\n    }\n\n\n    function finalizeExits() public {\n        require(exitsQueue.currentSize() > 0, \"exit queue empty\");\n\n        uint256 priority = exitsQueue.getMin();\n        Exit memory currentExit = exits[priority];\n\n        // finalize exits that are older than `1 week`.\n        while (exitsQueue.currentSize() > 0 && \n               (block.timestamp - currentExit.created_at) > 1 weeks) {\n            // this can occur if challengeExit is sucessful on an exit\n            if (currentExit.owner == address(0)) { // handles exits\n                exitsQueue.delMin();\n                if (exitsQueue.currentSize() == 0) return; // no revert because we wwant to keep the delete\n\n                // move onto the next oldest exit\n                priority = exitsQueue.getMin();\n                currentExit = exits[priority];\n                continue; // Prevent incorrect processing of deleted exits.\n            }\n\n            // Change owner of coin at exit.slot\n            coins[currentExit.slot].owner = currentExit.owner;\n            coins[currentExit.slot].canExit = true;\n\n            emit FinalizedExit(priority, currentExit.owner, currentExit.slot);\n            emit CanWithdraw(currentExit.owner, currentExit.slot);\n\n            // delete the finalized exit\n            exitsQueue.delMin();\n            delete exits[priority];\n\n            // move onto the next oldest exit\n            if (exitsQueue.currentSize() == 0) {\n                return;\n            }\n            priority = exitsQueue.getMin();\n            currentExit = exits[priority];\n        }\n    }\n\n    // Withdraw a UTXO that has been exited\n    function withdraw(uint slot) external {\n        require(coins[slot].owner == msg.sender, \"You do not own that UTXO\");\n        require(coins[slot].canExit, \"You cannot exit that coin!\");\n        cryptoCards.safeTransferFrom(address(this), msg.sender, coins[slot].uid);\n    }\n\n    function getDepositBlock() public view returns (uint256) {\n        return currentChildBlock.sub(childBlockInterval).add(currentDepositBlock);\n    }\n\n    /// receiver for erc721 to trigger a deposit\n    function onERC721Received(address _from, uint256 _uid, bytes) \n        public \n        returns(bytes4) \n    {\n        require(msg.sender == address(cryptoCards)); // can only be called by the associated cryptocards contract. \n        deposit(_from, _uid, 1); //, _data);\n        return ERC721_RECEIVED;\n    }\n\n\n\n}\n\n",
  "sourcePath": "/home/opsec/loom/PLASMA-RESEARCH/cash-erc721/server/contracts/Core/RootChain.sol",
  "compiler": {
    "name": "solc",
    "version": "0.4.23+commit.124ca40d.Emscripten.clang"
  },
  "schemaVersion": "2.0.0",
  "updatedAt": "2018-05-20T13:58:04.000Z"
}