{
  "contractName": "RootChain",
  "abi": [
    {
      "constant": true,
      "inputs": [],
      "name": "lastParentBlock",
      "outputs": [
        {
          "name": "",
          "type": "uint256"
        }
      ],
      "payable": false,
      "stateMutability": "view",
      "type": "function"
    },
    {
      "constant": true,
      "inputs": [],
      "name": "depositCount",
      "outputs": [
        {
          "name": "",
          "type": "uint256"
        }
      ],
      "payable": false,
      "stateMutability": "view",
      "type": "function"
    },
    {
      "constant": true,
      "inputs": [],
      "name": "childBlockInterval",
      "outputs": [
        {
          "name": "",
          "type": "uint256"
        }
      ],
      "payable": false,
      "stateMutability": "view",
      "type": "function"
    },
    {
      "constant": true,
      "inputs": [
        {
          "name": "",
          "type": "address"
        },
        {
          "name": "",
          "type": "uint256"
        }
      ],
      "name": "pendingWithdrawals",
      "outputs": [
        {
          "name": "",
          "type": "uint256"
        }
      ],
      "payable": false,
      "stateMutability": "view",
      "type": "function"
    },
    {
      "constant": true,
      "inputs": [],
      "name": "currentChildBlock",
      "outputs": [
        {
          "name": "",
          "type": "uint256"
        }
      ],
      "payable": false,
      "stateMutability": "view",
      "type": "function"
    },
    {
      "constant": true,
      "inputs": [],
      "name": "currentDepositBlock",
      "outputs": [
        {
          "name": "",
          "type": "uint256"
        }
      ],
      "payable": false,
      "stateMutability": "view",
      "type": "function"
    },
    {
      "constant": true,
      "inputs": [],
      "name": "authority",
      "outputs": [
        {
          "name": "",
          "type": "address"
        }
      ],
      "payable": false,
      "stateMutability": "view",
      "type": "function"
    },
    {
      "constant": true,
      "inputs": [
        {
          "name": "",
          "type": "uint256"
        }
      ],
      "name": "childChain",
      "outputs": [
        {
          "name": "root",
          "type": "bytes32"
        },
        {
          "name": "created_at",
          "type": "uint256"
        }
      ],
      "payable": false,
      "stateMutability": "view",
      "type": "function"
    },
    {
      "inputs": [],
      "payable": false,
      "stateMutability": "nonpayable",
      "type": "constructor"
    },
    {
      "anonymous": false,
      "inputs": [
        {
          "indexed": true,
          "name": "depositor",
          "type": "address"
        },
        {
          "indexed": false,
          "name": "tokenId",
          "type": "uint256"
        },
        {
          "indexed": false,
          "name": "data",
          "type": "bytes"
        }
      ],
      "name": "Deposit",
      "type": "event"
    },
    {
      "anonymous": false,
      "inputs": [
        {
          "indexed": false,
          "name": "owner",
          "type": "address"
        },
        {
          "indexed": false,
          "name": "tokenId",
          "type": "uint256"
        }
      ],
      "name": "CanWithdraw",
      "type": "event"
    },
    {
      "anonymous": false,
      "inputs": [
        {
          "indexed": false,
          "name": "priority",
          "type": "uint256"
        },
        {
          "indexed": false,
          "name": "owner",
          "type": "address"
        },
        {
          "indexed": false,
          "name": "tokenId",
          "type": "uint256"
        }
      ],
      "name": "FinalizedExit",
      "type": "event"
    },
    {
      "constant": false,
      "inputs": [
        {
          "name": "_cryptoCards",
          "type": "address"
        }
      ],
      "name": "setCryptoCards",
      "outputs": [],
      "payable": false,
      "stateMutability": "nonpayable",
      "type": "function"
    },
    {
      "constant": false,
      "inputs": [
        {
          "name": "root",
          "type": "bytes32"
        }
      ],
      "name": "submitBlock",
      "outputs": [],
      "payable": false,
      "stateMutability": "nonpayable",
      "type": "function"
    },
    {
      "constant": false,
      "inputs": [
        {
          "name": "txPos",
          "type": "uint256[2]"
        },
        {
          "name": "owner",
          "type": "address"
        },
        {
          "name": "tokenId",
          "type": "uint256"
        }
      ],
      "name": "startExit",
      "outputs": [],
      "payable": false,
      "stateMutability": "nonpayable",
      "type": "function"
    },
    {
      "constant": false,
      "inputs": [],
      "name": "finalizeExits",
      "outputs": [],
      "payable": false,
      "stateMutability": "nonpayable",
      "type": "function"
    },
    {
      "constant": false,
      "inputs": [],
      "name": "withdraw",
      "outputs": [],
      "payable": false,
      "stateMutability": "nonpayable",
      "type": "function"
    },
    {
      "constant": true,
      "inputs": [],
      "name": "getDepositBlock",
      "outputs": [
        {
          "name": "",
          "type": "uint256"
        }
      ],
      "payable": false,
      "stateMutability": "view",
      "type": "function"
    },
    {
      "constant": false,
      "inputs": [
        {
          "name": "_from",
          "type": "address"
        },
        {
          "name": "_tokenId",
          "type": "uint256"
        },
        {
          "name": "_data",
          "type": "bytes"
        }
      ],
      "name": "onERC721Received",
      "outputs": [
        {
          "name": "",
          "type": "bytes4"
        }
      ],
      "payable": false,
      "stateMutability": "nonpayable",
      "type": "function"
    }
  ],
  "bytecode": "0x608060405234801561001057600080fd5b5060008054600160a060020a03191633600160a060020a03161790556103e8600381905560045560016005554360065561004861008a565b604051809103906000f080158015610064573d6000803e3d6000fd5b5060018054600160a060020a031916600160a060020a039290921691909117905561009a565b60405161068580610fe283390190565b610f39806100a96000396000f3006080604052600436106100c15763ffffffff60e060020a6000350416630fc3932681146100c6578063117546c5146101165780632dfdf0b51461013d578063329be5d51461015257806338a9e0bc146101735780633ccfd60b1461018857806344dc49701461019d5780637a95f1e8146101c1578063a98c7f2c146101d6578063baa47694146101eb578063bcd5926114610203578063bf7e214f14610218578063c6ab44cd14610249578063f0b9e5ba1461025e578063f95643b1146102fc575b600080fd5b3480156100d257600080fd5b5060408051808201825261011491369160049160449190839060029083908390808284375093965050508235600160a060020a0316935050506020013561032d565b005b34801561012257600080fd5b5061012b610496565b60408051918252519081900360200190f35b34801561014957600080fd5b5061012b61049c565b34801561015e57600080fd5b50610114600160a060020a03600435166104a2565b34801561017f57600080fd5b5061012b6104ec565b34801561019457600080fd5b506101146104f2565b3480156101a957600080fd5b5061012b600160a060020a0360043516602435610633565b3480156101cd57600080fd5b5061012b610663565b3480156101e257600080fd5b5061012b610669565b3480156101f757600080fd5b5061011460043561066f565b34801561020f57600080fd5b5061012b6106fd565b34801561022457600080fd5b5061022d61072d565b60408051600160a060020a039092168252519081900360200190f35b34801561025557600080fd5b5061011461073c565b34801561026a57600080fd5b50604080516020600460443581810135601f81018490048402850184019095528484526102c7948235600160a060020a0316946024803595369594606494920191908190840183828082843750949750610d1a9650505050505050565b604080517fffffffff000000000000000000000000000000000000000000000000000000009092168252519081900360200190f35b34801561030857600080fd5b50610314600435610d6c565b6040805192835260208301919091528051918290030190f35b604080516c01000000000000000000000000600160a060020a03851602815260148101839052905190819003603401902060208401518451600354612710909202633b9aca009091020190856000602002015181151561038957fe5b06156103ab57845160009081526008602052604090205482146103ab57600080fd5b600154604080517f90b5561d000000000000000000000000000000000000000000000000000000008152600481018490529051600160a060020a03909216916390b5561d9160248082019260009290919082900301818387803b15801561041157600080fd5b505af1158015610425573d6000803e3d6000fd5b505060408051606081018252600160a060020a0397881681526020808201978852428284019081526000968752600291829052929095209051815473ffffffffffffffffffffffffffffffffffffffff19169816979097178755945160018701555050915192909101919091555050565b60065481565b60075481565b60005433600160a060020a039081169116146104bd57600080fd5b600a805473ffffffffffffffffffffffffffffffffffffffff1916600160a060020a0392909216919091179055565b60035481565b600160a060020a0333166000908152600960209081526040808320805482518185028101850190935280835260609493849392919083018282801561055657602002820191906000526020600020905b815481526020019060010190808311610542575b5050505050925082519150600090505b8181101561062e57600a548351600160a060020a03909116906342842e0e903090339087908690811061059557fe5b906020019060200201516040518463ffffffff1660e060020a0281526004018084600160a060020a0316600160a060020a0316815260200183600160a060020a0316600160a060020a031681526020018281526020019350505050600060405180830381600087803b15801561060a57600080fd5b505af115801561061e573d6000803e3d6000fd5b5050600190920191506105669050565b505050565b60096020528160005260406000208181548110151561064e57fe5b90600052602060002001600091509150505481565b60045481565b60055481565b60005433600160a060020a0390811691161461068a57600080fd5b6006805461069d9163ffffffff610d8516565b4310156106a957600080fd5b6040805180820182528281524260208083019182526004805460009081526008909252939020915182555160019091015560035490546106ee9163ffffffff610d8516565b60045550600160055543600655565b600061072860055461071c600354600454610d9890919063ffffffff16565b9063ffffffff610d8516565b905090565b600054600160a060020a031681565b6000610746610ee2565b6001546040805160e060020a63bda1504b0281529051600092600160a060020a03169163bda1504b91600480830192602092919082900301818787803b15801561078f57600080fd5b505af11580156107a3573d6000803e3d6000fd5b505050506040513d60208110156107b957600080fd5b50511161082757604080517f08c379a000000000000000000000000000000000000000000000000000000000815260206004820152601060248201527f6578697420717565756520656d70747900000000000000000000000000000000604482015290519081900360640190fd5b600160009054906101000a9004600160a060020a0316600160a060020a031663d6362e976040518163ffffffff1660e060020a028152600401602060405180830381600087803b15801561087a57600080fd5b505af115801561088e573d6000803e3d6000fd5b505050506040513d60208110156108a457600080fd5b505160008181526002602081815260409283902083516060810185528154600160a060020a03168152600182015492810192909252909101549181019190915290925090505b6001546040805160e060020a63bda1504b0281529051600092600160a060020a03169163bda1504b91600480830192602092919082900301818787803b15801561093357600080fd5b505af1158015610947573d6000803e3d6000fd5b505050506040513d602081101561095d57600080fd5b5051118015610974575062093a8081604001514203115b15610d16578051600160a060020a03161515610b5157600160009054906101000a9004600160a060020a0316600160a060020a031663b07576ac6040518163ffffffff1660e060020a028152600401602060405180830381600087803b1580156109dd57600080fd5b505af11580156109f1573d6000803e3d6000fd5b505050506040513d6020811015610a0757600080fd5b50506001546040805160e060020a63bda1504b0281529051600160a060020a039092169163bda1504b916004808201926020929091908290030181600087803b158015610a5357600080fd5b505af1158015610a67573d6000803e3d6000fd5b505050506040513d6020811015610a7d57600080fd5b50511515610a8a57610d16565b600160009054906101000a9004600160a060020a0316600160a060020a031663d6362e976040518163ffffffff1660e060020a028152600401602060405180830381600087803b158015610add57600080fd5b505af1158015610af1573d6000803e3d6000fd5b505050506040513d6020811015610b0757600080fd5b505160008181526002602081815260409283902083516060810185528154600160a060020a03168152600182015492810192909252909101549181019190915290925090506108ea565b8051600160a060020a03908116600090815260096020908152604080832082860180518254600181018455928652948490209091019390935584519251815187815293909416918301919091528181019290925290517fbd50b348996c7886c27e252b1b158f20c6cb5f036bd5c1b1039f1111a0ba78829181900360600190a1805160208083015160408051600160a060020a0390941684529183015280517fcb9ff625f589aa0e687e6e3e13884bf647901a8593d2d9de711f09cc2f3a52a49281900390910190a1600160009054906101000a9004600160a060020a0316600160a060020a031663b07576ac6040518163ffffffff1660e060020a028152600401602060405180830381600087803b158015610c6d57600080fd5b505af1158015610c81573d6000803e3d6000fd5b505050506040513d6020811015610c9757600080fd5b50506000828152600260208181526040808420805473ffffffffffffffffffffffffffffffffffffffff19168155600180820186905593018490559154825160e060020a63bda1504b0281529251600160a060020a039091169363bda1504b936004808201949392918390030190829087803b158015610a5357600080fd5b5050565b600a5460009033600160a060020a03908116911614610d3857600080fd5b610d43848484610daa565b507ff0b9e5ba000000000000000000000000000000000000000000000000000000009392505050565b6008602052600090815260409020805460019091015482565b81810182811015610d9257fe5b92915050565b600082821115610da457fe5b50900390565b604080516c01000000000000000000000000600160a060020a0386160281526014810184905290519081900360340190206000610de56106fd565b6040805180820182528481524260208083019182526000858152600890915292909220905181559051600191820155600454919250610e2a919063ffffffff610d8516565b60058190555084600160a060020a03167f87de3cfd3de44d9b830a98f5554f3ff79f1fafd7b3579d113ce92d82d3def2a185856040518083815260200180602001828103825283818151815260200191508051906020019080838360005b83811015610ea0578181015183820152602001610e88565b50505050905090810190601f168015610ecd5780820380516001836020036101000a031916815260200191505b50935050505060405180910390a25050505050565b6060604051908101604052806000600160a060020a03168152602001600081526020016000815250905600a165627a7a72305820d5fc86430441eecd5e37b54f8399f2b4f25178b4bec10e8d3448f620cc4f794d0029608060405234801561001057600080fd5b5060008054600160a060020a03191633600160a060020a031617815560408051602081019091529081526100479060019081610052565b5060006002556100bf565b828054828255906000526020600020908101928215610092579160200282015b82811115610092578251829060ff16905591602001919060010190610072565b5061009e9291506100a2565b5090565b6100bc91905b8082111561009e57600081556001016100a8565b90565b6105b7806100ce6000396000f30060806040526004361061006c5763ffffffff7c01000000000000000000000000000000000000000000000000000000006000350416632dcdcd0c811461007157806390b5561d1461009b578063b07576ac146100b5578063bda1504b146100ca578063d6362e97146100df575b600080fd5b34801561007d57600080fd5b506100896004356100f4565b60408051918252519081900360200190f35b3480156100a757600080fd5b506100b36004356101c3565b005b3480156100c157600080fd5b50610089610241565b3480156100d657600080fd5b50610089610324565b3480156100eb57600080fd5b5061008961032a565b600060025461011e600161011260028661034c90919063ffffffff16565b9063ffffffff61037b16565b111561013c5761013582600263ffffffff61034c16565b90506101be565b60016101538161011285600263ffffffff61034c16565b8154811061015d57fe5b600091825260209091200154600161017c84600263ffffffff61034c16565b8154811061018657fe5b906000526020600020015410156101a85761013582600263ffffffff61034c16565b610135600161011284600263ffffffff61034c16565b919050565b6000543373ffffffffffffffffffffffffffffffffffffffff9081169116146101eb57600080fd5b60018054808201825560008290527fb10e2d527612073b26eecdfd717e6a320cf44b4afac2b0732d9fcbe2b7fa0cf6018290556002546102309163ffffffff61037b16565b600281905561023e90610388565b50565b6000805481903373ffffffffffffffffffffffffffffffffffffffff90811691161461026c57600080fd5b600180548190811061027a57fe5b90600052602060002001549050600160025481548110151561029857fe5b90600052602060002001546001808154811015156102b257fe5b906000526020600020018190555060016002548154811015156102d157fe5b60009182526020822001556002546102f090600163ffffffff61045c16565b6002556102fd600161046e565b600180546103109163ffffffff61045c16565b61031b600182610552565b508091505b5090565b60025481565b600060018081548110151561033b57fe5b906000526020600020015490505b90565b600082151561035d57506000610375565b5081810281838281151561036d57fe5b041461037557fe5b92915050565b8181018281101561037557fe5b6001805482916000918390811061039b57fe5b906000526020600020015490505b60016103bc84600263ffffffff61053d16565b815481106103c657fe5b90600052602060002001548110156104335760016103eb84600263ffffffff61053d16565b815481106103f557fe5b906000526020600020015460018481548110151561040f57fe5b60009182526020909120015561042c83600263ffffffff61053d16565b92506103a9565b828214610457578060018481548110151561044a57fe5b6000918252602090912001555b505050565b60008282111561046857fe5b50900390565b600080600083925060018481548110151561048557fe5b9060005260206000200154915061049b846100f4565b90505b60025481111580156104c7575060018054829081106104b957fe5b906000526020600020015482115b156105135760018054829081106104da57fe5b90600052602060002001546001858154811015156104f457fe5b60009182526020909120015592508261050c816100f4565b905061049e565b838314610537578160018581548110151561052a57fe5b6000918252602090912001555b50505050565b6000818381151561054a57fe5b049392505050565b8154818355818111156104575760008381526020902061045791810190830161034991905b8082111561032057600081556001016105775600a165627a7a723058202ac7e810b9be978ad2cec5acace74a311e9c0872c4380023edc3085e1684ae020029",
  "source": "pragma solidity ^0.4.22;\n\nimport 'zeppelin-solidity/contracts/token/ERC721/ERC721Receiver.sol';\nimport 'zeppelin-solidity/contracts/math/SafeMath.sol';\nimport './Queue/PriorityQueue.sol';\nimport './Cards.sol';\n\ncontract RootChain is ERC721Receiver {\n    /*\n     * Events\n     */\n    event Deposit(address indexed depositor, uint256 tokenId, bytes data);\n    event CanWithdraw(address  owner, uint  tokenId);\n    event FinalizedExit(uint priority, address  owner, uint256  tokenId);\n\n    using SafeMath for uint256;\n\n    /*\n     * Storage\n     */\n\n    address public authority;\n\n    // exits\n    PriorityQueue exitsQueue;\n    mapping(uint256 => Exit) exits;\n    struct Exit {\n        address owner;\n        uint tokenId;\n        uint256 created_at;\n    }\n\n    // child chain\n    uint256 public childBlockInterval;\n    uint256 public currentChildBlock;\n    uint256 public currentDepositBlock;\n    uint256 public lastParentBlock;\n    struct childBlock {\n        bytes32 root;\n        uint256 created_at;\n    }\n\n    uint public depositCount;\n    mapping(uint => childBlock) public childChain;\n    mapping(address => uint256[]) public pendingWithdrawals; //  the pending cards to withdraw\n    CryptoCards cryptoCards;\n\n    /*\n     * Modifiers\n     */\n    modifier isAuthority() {\n        require(msg.sender == authority);\n        _;\n    }\n\n    constructor () public{\n        authority = msg.sender;\n\n\t\tchildBlockInterval = 1000;\n        currentChildBlock = childBlockInterval;\n        currentDepositBlock = 1;\n        lastParentBlock = block.number; // to ensure no chain reorgs\n\n        exitsQueue = new PriorityQueue();\n    }\n\n    function setCryptoCards(CryptoCards _cryptoCards) isAuthority public {\n        cryptoCards = _cryptoCards;\n    }\n\n    /// @param root 32 byte merkleRoot of ChildChain block\n    /// @notice childChain blocks can only be submitted at most every 6 root chain blocks\n    function submitBlock(bytes32 root)\n        public\n        isAuthority\n    {\n        // ensure finality on previous blocks before submitting another\n        require(block.number >= lastParentBlock.add(6));\n\n        childChain[currentChildBlock] = childBlock({\n            root: root,\n            created_at: block.timestamp\n        });\n\n        currentChildBlock = currentChildBlock.add(childBlockInterval);\n        currentDepositBlock = 1;\n        lastParentBlock = block.number;\n\t}\n\n\n    /// @dev Allows anyone to deposit funds into the Plasma chain, called when contract receives ERC721\n    function deposit(address from, uint tokenId, bytes _data)\n        private\n    {\n        // TODO: Serialize, do whatever with _data for UTXO/ChainID transfer\n\n        bytes32 root = keccak256(from, tokenId);\n        uint256 position = getDepositBlock();\n\n        childChain[position] = childBlock({\n            root: root,\n            created_at: block.timestamp\n        });\n\n        currentDepositBlock = currentChildBlock.add(1);\n        emit Deposit(from, tokenId, _data); // create a utxo at `uid`\n    }\n\n    /// @param txPos [0] Plasma block number in which the transaction occured\n    /// @param txPos [1] Transaction Index within the block\n    /// @param txPos [2] Output Index within the transaction (either 0 or 1)\n    // https://github.com/FourthState/plasma-mvp-rootchain/blob/master/contracts/RootChain/RootChain.sol#L165\n    function startExit(uint256[2] txPos, address owner, uint tokenId /* and proofs */) public {\n        bytes32 txHash = keccak256(owner, tokenId);\n        uint256 priority = 1000000000*txPos[0] + 10000*txPos[1];\n\n        if (txPos[0] % childBlockInterval != 0 ) { // if exiting a deposit transaction\n            require(txHash == childChain[txPos[0]].root); \n        } // todo: else check that signatures are correct \n\n        exitsQueue.insert(priority);\n        exits[priority] = Exit({\n            owner: owner, \n            tokenId: tokenId, \n            created_at: block.timestamp\n        });\n    }\n\n    function finalizeExits() public {\n        require(exitsQueue.currentSize() > 0, \"exit queue empty\");\n\n        uint256 priority = exitsQueue.getMin();\n        Exit memory currentExit = exits[priority];\n\n        // finalize exits that are older than `1 week`.\n        while (exitsQueue.currentSize() > 0 && \n               (block.timestamp - currentExit.created_at) > 1 weeks) {\n            // this can occur if challengeExit is sucessful on an exit\n            if (currentExit.owner == address(0)) { // handles exits\n                exitsQueue.delMin();\n                if (exitsQueue.currentSize() == 0) return; // no revert because we wwant to keep the delete\n\n                // move onto the next oldest exit\n                priority = exitsQueue.getMin();\n                currentExit = exits[priority];\n                continue; // Prevent incorrect processing of deleted exits.\n            }\n\n            // add token Id to the ones the owner can withdraw\n            pendingWithdrawals[currentExit.owner].push(currentExit.tokenId);\n            emit FinalizedExit(priority, currentExit.owner, currentExit.tokenId);\n            emit CanWithdraw(currentExit.owner, currentExit.tokenId);\n\n            // delete the finalized exit\n            exitsQueue.delMin();\n            delete exits[priority];\n\n            // move onto the next oldest exit\n            if (exitsQueue.currentSize() == 0) {\n                return;\n            }\n            priority = exitsQueue.getMin();\n            currentExit = exits[priority];\n        }\n    }\n\n    // maybe add a count paramter to add a max amount of tokens the owner can withdraw\n    // a pop function would be very helpful here for popping a certain number of tokens\n    function withdraw() external {\n        uint[] memory tokens = pendingWithdrawals[msg.sender];\n        uint length = tokens.length;\n        // for each token that is confirmed for withdrawal let the owner get it\n        for (uint i = 0 ; i < length ; i ++ ) {\n            cryptoCards.safeTransferFrom(address(this), msg.sender, tokens[i]);\n        }\n    }\n\n    function getDepositBlock() public view returns (uint256) {\n        return currentChildBlock.sub(childBlockInterval).add(currentDepositBlock);\n    }\n\n    /// receiver for erc721 to trigger a deposit\n    function onERC721Received(address _from, uint256 _tokenId, bytes _data) \n        public \n        returns(bytes4) \n    {\n        require(msg.sender == address(cryptoCards)); // can only be called by the associated cryptocards contract. \n        deposit(_from, _tokenId, _data);\n        return ERC721_RECEIVED;\n    }\n\n\n\n}\n\n",
  "sourcePath": "/home/opsec/loom/PLASMA-RESEARCH/cash-erc721/server/contracts/RootChain.sol",
  "compiler": {
    "name": "solc",
    "version": "0.4.23+commit.124ca40d.Emscripten.clang"
  },
  "schemaVersion": "2.0.0",
  "updatedAt": "2018-05-09T21:48:17.645Z"
}