{
  "contractName": "RootChain",
  "abi": [
    {
      "constant": true,
      "inputs": [],
      "name": "lastParentBlock",
      "outputs": [
        {
          "name": "",
          "type": "uint256"
        }
      ],
      "payable": false,
      "stateMutability": "view",
      "type": "function"
    },
    {
      "constant": true,
      "inputs": [],
      "name": "depositCount",
      "outputs": [
        {
          "name": "",
          "type": "uint256"
        }
      ],
      "payable": false,
      "stateMutability": "view",
      "type": "function"
    },
    {
      "constant": true,
      "inputs": [
        {
          "name": "",
          "type": "uint256"
        }
      ],
      "name": "exits",
      "outputs": [
        {
          "name": "owner",
          "type": "address"
        },
        {
          "name": "created_at",
          "type": "uint256"
        }
      ],
      "payable": false,
      "stateMutability": "view",
      "type": "function"
    },
    {
      "constant": true,
      "inputs": [],
      "name": "childBlockInterval",
      "outputs": [
        {
          "name": "",
          "type": "uint256"
        }
      ],
      "payable": false,
      "stateMutability": "view",
      "type": "function"
    },
    {
      "constant": true,
      "inputs": [
        {
          "name": "",
          "type": "address"
        },
        {
          "name": "",
          "type": "uint256"
        }
      ],
      "name": "pendingWithdrawals",
      "outputs": [
        {
          "name": "",
          "type": "uint256"
        }
      ],
      "payable": false,
      "stateMutability": "view",
      "type": "function"
    },
    {
      "constant": true,
      "inputs": [],
      "name": "NUM_COINS",
      "outputs": [
        {
          "name": "",
          "type": "uint256"
        }
      ],
      "payable": false,
      "stateMutability": "view",
      "type": "function"
    },
    {
      "constant": true,
      "inputs": [],
      "name": "currentChildBlock",
      "outputs": [
        {
          "name": "",
          "type": "uint256"
        }
      ],
      "payable": false,
      "stateMutability": "view",
      "type": "function"
    },
    {
      "constant": true,
      "inputs": [],
      "name": "currentDepositBlock",
      "outputs": [
        {
          "name": "",
          "type": "uint256"
        }
      ],
      "payable": false,
      "stateMutability": "view",
      "type": "function"
    },
    {
      "constant": true,
      "inputs": [
        {
          "name": "",
          "type": "uint256"
        }
      ],
      "name": "exitSlots",
      "outputs": [
        {
          "name": "",
          "type": "uint256"
        }
      ],
      "payable": false,
      "stateMutability": "view",
      "type": "function"
    },
    {
      "constant": true,
      "inputs": [],
      "name": "authority",
      "outputs": [
        {
          "name": "",
          "type": "address"
        }
      ],
      "payable": false,
      "stateMutability": "view",
      "type": "function"
    },
    {
      "constant": true,
      "inputs": [
        {
          "name": "",
          "type": "uint256"
        }
      ],
      "name": "coins",
      "outputs": [
        {
          "name": "uid",
          "type": "uint256"
        },
        {
          "name": "denomination",
          "type": "uint256"
        },
        {
          "name": "owner",
          "type": "address"
        },
        {
          "name": "canExit",
          "type": "bool"
        }
      ],
      "payable": false,
      "stateMutability": "view",
      "type": "function"
    },
    {
      "constant": true,
      "inputs": [
        {
          "name": "",
          "type": "uint256"
        }
      ],
      "name": "childChain",
      "outputs": [
        {
          "name": "root",
          "type": "bytes32"
        },
        {
          "name": "created_at",
          "type": "uint256"
        }
      ],
      "payable": false,
      "stateMutability": "view",
      "type": "function"
    },
    {
      "inputs": [],
      "payable": false,
      "stateMutability": "nonpayable",
      "type": "constructor"
    },
    {
      "anonymous": false,
      "inputs": [
        {
          "indexed": false,
          "name": "slot",
          "type": "uint256"
        },
        {
          "indexed": false,
          "name": "depositBlockNumber",
          "type": "uint256"
        },
        {
          "indexed": false,
          "name": "denomination",
          "type": "uint256"
        },
        {
          "indexed": true,
          "name": "from",
          "type": "address"
        }
      ],
      "name": "Deposit",
      "type": "event"
    },
    {
      "anonymous": false,
      "inputs": [
        {
          "indexed": true,
          "name": "slot",
          "type": "uint256"
        },
        {
          "indexed": true,
          "name": "owner",
          "type": "address"
        },
        {
          "indexed": false,
          "name": "created_at",
          "type": "uint256"
        }
      ],
      "name": "ExitStarted",
      "type": "event"
    },
    {
      "anonymous": false,
      "inputs": [
        {
          "indexed": false,
          "name": "owner",
          "type": "address"
        },
        {
          "indexed": false,
          "name": "uid",
          "type": "uint256"
        }
      ],
      "name": "FinalizedExit",
      "type": "event"
    },
    {
      "constant": false,
      "inputs": [
        {
          "name": "_cryptoCards",
          "type": "address"
        }
      ],
      "name": "setCryptoCards",
      "outputs": [],
      "payable": false,
      "stateMutability": "nonpayable",
      "type": "function"
    },
    {
      "constant": false,
      "inputs": [
        {
          "name": "root",
          "type": "bytes32"
        }
      ],
      "name": "submitBlock",
      "outputs": [],
      "payable": false,
      "stateMutability": "nonpayable",
      "type": "function"
    },
    {
      "constant": false,
      "inputs": [
        {
          "name": "slot",
          "type": "uint256"
        },
        {
          "name": "prevTxBytes",
          "type": "bytes"
        },
        {
          "name": "exitingTxBytes",
          "type": "bytes"
        },
        {
          "name": "prevTxInclusionProof",
          "type": "bytes"
        },
        {
          "name": "exitingTxInclusionProof",
          "type": "bytes"
        },
        {
          "name": "sigs",
          "type": "bytes"
        },
        {
          "name": "prevTxIncBlock",
          "type": "uint256"
        },
        {
          "name": "exitingTxIncBlock",
          "type": "uint256"
        }
      ],
      "name": "startExit",
      "outputs": [],
      "payable": false,
      "stateMutability": "nonpayable",
      "type": "function"
    },
    {
      "constant": true,
      "inputs": [
        {
          "name": "sigs",
          "type": "bytes"
        },
        {
          "name": "i",
          "type": "uint256"
        }
      ],
      "name": "getSig",
      "outputs": [
        {
          "name": "",
          "type": "bytes"
        }
      ],
      "payable": false,
      "stateMutability": "pure",
      "type": "function"
    },
    {
      "constant": false,
      "inputs": [],
      "name": "finalizeExits",
      "outputs": [],
      "payable": false,
      "stateMutability": "nonpayable",
      "type": "function"
    },
    {
      "constant": false,
      "inputs": [
        {
          "name": "slot",
          "type": "uint256"
        }
      ],
      "name": "challengeExit",
      "outputs": [],
      "payable": false,
      "stateMutability": "nonpayable",
      "type": "function"
    },
    {
      "constant": false,
      "inputs": [
        {
          "name": "slot",
          "type": "uint256"
        }
      ],
      "name": "withdraw",
      "outputs": [],
      "payable": false,
      "stateMutability": "nonpayable",
      "type": "function"
    },
    {
      "constant": true,
      "inputs": [],
      "name": "getDepositBlock",
      "outputs": [
        {
          "name": "",
          "type": "uint256"
        }
      ],
      "payable": false,
      "stateMutability": "view",
      "type": "function"
    },
    {
      "constant": false,
      "inputs": [
        {
          "name": "_from",
          "type": "address"
        },
        {
          "name": "_uid",
          "type": "uint256"
        },
        {
          "name": "_data",
          "type": "bytes"
        }
      ],
      "name": "onERC721Received",
      "outputs": [
        {
          "name": "",
          "type": "bytes4"
        }
      ],
      "payable": false,
      "stateMutability": "nonpayable",
      "type": "function"
    }
  ],
  "bytecode": "0x608060405234801561001057600080fd5b5060008054600160a060020a033316600160a060020a03199091161790556103e8600581905560065560016007554360085561185e806100516000396000f30060806040526004361061011c5763ffffffff7c0100000000000000000000000000000000000000000000000000000000600035041663117546c58114610121578063245cab33146101485780632dfdf0b5146102185780632e1a7d4d1461022d578063329be5d514610247578063342de1791461026857806338a9e0bc146102a357806344dc4970146102b857806366e30d97146102dc5780637a95f1e8146102f1578063a98c7f2c14610306578063baa476941461031b578063bcd5926114610333578063bcd5df3914610348578063bf7e214f14610360578063c661065714610391578063c6ab44cd146103d9578063d662431c146103ee578063e76488c914610406578063f0b9e5ba14610460578063f95643b1146104fe575b600080fd5b34801561012d57600080fd5b5061013661052f565b60408051918252519081900360200190f35b34801561015457600080fd5b506040805160206004803580820135601f81018490048402850184019095528484526101a394369492936024939284019190819084018382808284375094975050933594506105359350505050565b6040805160208082528351818301528351919283929083019185019080838360005b838110156101dd5781810151838201526020016101c5565b50505050905090810190601f16801561020a5780820380516001836020036101000a031916815260200191505b509250505060405180910390f35b34801561022457600080fd5b5061013661054d565b34801561023957600080fd5b50610245600435610553565b005b34801561025357600080fd5b50610245600160a060020a03600435166106ec565b34801561027457600080fd5b50610280600435610736565b60408051600160a060020a03909316835260208301919091528051918290030190f35b3480156102af57600080fd5b5061013661075b565b3480156102c457600080fd5b50610136600160a060020a0360043516602435610761565b3480156102e857600080fd5b50610136610791565b3480156102fd57600080fd5b50610136610797565b34801561031257600080fd5b5061013661079d565b34801561032757600080fd5b506102456004356107a3565b34801561033f57600080fd5b50610136610812565b34801561035457600080fd5b50610136600435610842565b34801561036c57600080fd5b50610375610861565b60408051600160a060020a039092168252519081900360200190f35b34801561039d57600080fd5b506103a9600435610870565b604080519485526020850193909352600160a060020a039091168383015215156060830152519081900360800190f35b3480156103e557600080fd5b506102456108b7565b3480156103fa57600080fd5b50610245600435610a06565b34801561041257600080fd5b5061024560048035906024803580820192908101359160443580820192908101359160643580820192908101359160843580820192908101359160a43590810191013560c43560e435610a52565b34801561046c57600080fd5b50604080516020600460443581810135601f81018490048402850184019095528484526104c9948235600160a060020a0316946024803595369594606494920191908190840183828082843750949750610d6b9650505050505050565b604080517fffffffff000000000000000000000000000000000000000000000000000000009092168252519081900360200190f35b34801561050a57600080fd5b50610516600435610dbf565b6040805192835260208301919091528051918290030190f35b60085481565b606061054683836041026041610dd8565b9392505050565b60095481565b60008181526004602052604090206002015433600160a060020a039081169116146105c8576040805160e560020a62461bcd02815260206004820152601860248201527f596f7520646f206e6f74206f776e2074686174205554584f0000000000000000604482015290519081900360640190fd5b60008181526004602052604090206002015474010000000000000000000000000000000000000000900460ff16151561064b576040805160e560020a62461bcd02815260206004820152601a60248201527f596f752063616e6e6f742065786974207468617420636f696e21000000000000604482015290519081900360640190fd5b600c5460008281526004602081905260408083205481517f42842e0e000000000000000000000000000000000000000000000000000000008152600160a060020a033081169482019490945233841660248201526044810191909152905191909316926342842e0e92606480830193919282900301818387803b1580156106d157600080fd5b505af11580156106e5573d6000803e3d6000fd5b5050505050565b60005433600160a060020a0390811691161461070757600080fd5b600c805473ffffffffffffffffffffffffffffffffffffffff1916600160a060020a0392909216919091179055565b60026020526000908152604090208054600190910154600160a060020a039091169082565b60055481565b600b6020528160005260406000208181548110151561077c57fe5b90600052602060002001600091509150505481565b60035481565b60065481565b60075481565b60005433600160a060020a039081169116146107be57600080fd5b604080518082018252828152426020808301918252600680546000908152600a909252939020915182555160019091015560055490546108039163ffffffff610e5916565b60065550600160075543600855565b600061083d600754610831600554600654610e6c90919063ffffffff16565b9063ffffffff610e5916565b905090565b600180548290811061085057fe5b600091825260209091200154905081565b600054600160a060020a031681565b600460205260009081526040902080546001820154600290920154909190600160a060020a0381169074010000000000000000000000000000000000000000900460ff1684565b6108bf6117c1565b6001546000805b82811015610a005760018054829081106108dc57fe5b600091825260208083209091015480835260028083526040808520815180830183528154600160a060020a031680825260018084018054848a0152878a52600489529489208601805474ff00000000000000000000000000000000000000001973ffffffffffffffffffffffffffffffffffffffff199182169094179390931674010000000000000000000000000000000000000000179055949096528154909516905593909355825491965093508290811061099557fe5b90600052602060002001600090557fbfb2a2a2bf8accbfc2bdd215e370601e347fe5d0f79ed15859da98410dac767a8460000151836040518083600160a060020a0316600160a060020a031681526020018281526020019250505060405180910390a16001016108c6565b50505050565b6000818152600260205260408120805473ffffffffffffffffffffffffffffffffffffffff19168155600190810191909155805482908110610a4457fe5b600091825260208220015550565b60055481811515610a5f57fe5b0615610b2957610ace8a8a8080601f0160208091040260200160405190810160405280939291908181526020018383808284375050604080516020601f8c018190048102820181019092528a815294508a9350899250829150840183828082843750889450610e7e9350505050565b1515610b24576040805160e560020a62461bcd02815260206004820152601d60248201527f4e6f7420696e636c7564656420696e206465706f73697420626c6f636b000000604482015290519081900360640190fd5b610c83565b610c2d8c8c8080601f0160208091040260200160405190810160405280939291908181526020018383808284378201915050505050508b8b8080601f0160208091040260200160405190810160405280939291908181526020018383808284378201915050505050508a8a8080601f01602080910402602001604051908101604052809392919081815260200183838082843782019150505050505089898080601f0160208091040260200160405190810160405280939291908181526020018383808284375050604080516020601f8f018190048102820181019092528d815294508d93508c925082915084018382808284378201915050505050508787610fcd565b1515610c83576040805160e560020a62461bcd02815260206004820152601660248201527f4e6f7420696e636c7564656420696e20626c6f636b7300000000000000000000604482015290519081900360640190fd5b60018d9080600181540180825580915050906001820390600052602060002001600090919290919091505550604080519081016040528033600160a060020a0316815260200142815250600260008f815260200190815260200160002060008201518160000160006101000a815481600160a060020a030219169083600160a060020a031602179055506020820151816001015590505033600160a060020a03168d7f59b4b409ab72e8788a71aa1de988d511a6075bf02880862b01af2407536c6486426040518082815260200191505060405180910390a350505050505050505050505050565b600c5460009033600160a060020a03908116911614610d8957600080fd5b610d968484600185611063565b507ff0b9e5ba000000000000000000000000000000000000000000000000000000009392505050565b600a602052600090815260409020805460019091015482565b606080828401855110151515610ded57600080fd5b82158015610e0657604051915060208201604052610e50565b6040519150601f8416801560200281840101858101878315602002848b0101015b81831015610e3f578051835260209283019201610e27565b5050858452601f01601f1916604052505b50949350505050565b81810182811015610e6657fe5b92915050565b600082821115610e7857fe5b50900390565b6000610e886117d8565b6000610e9386611285565b9150856040518082805190602001908083835b60208310610ec55780518252601f199092019160209182019101610ea6565b5181516020939093036101000a600019018019909116921691909117905260405192018290039091206060860151909450610f06935084925088915061135f565b1515610f5c576040805160e560020a62461bcd02815260206004820152600b60248201527f496e76616c696420736967000000000000000000000000000000000000000000604482015290519081900360640190fd5b6000848152600a60205260409020548114610fc1576040805160e560020a62461bcd02815260206004820181905260248201527f4465706f736974205478206e6f7420696e636c7564656420696e20626c6f636b604482015290519081900360640190fd5b50600195945050505050565b6000610fd76117d8565b610fdf6117d8565b600080610feb8c611285565b9350610ff68b611285565b92508a6040518082805190602001908083835b602083106110285780518252601f199092019160209182019101611009565b51815160209384036101000a600019018019909216911617905260009b909b525050600a9098525060019d9c50505050505050505050505050565b61106b6117d8565b60008061107784611285565b60035481519194501461108957600080fd5b6040830151851461109957600080fd5b86600160a060020a03168360600151600160a060020a03161415156110bd57600080fd5b6020830151156110cc57600080fd5b604080516080810182528781526020808201888152600160a060020a038b81168486019081526000606086018181526003548252600486529087902095518655925160018601555160029094018054925173ffffffffffffffffffffffffffffffffffffffff19909316949091169390931774ff000000000000000000000000000000000000000019167401000000000000000000000000000000000000000091151591909102179091559051855186928291908401908083835b602083106111a65780518252601f199092019160209182019101611187565b6001836020036101000a038019825116818451168082178552505050505050905001915050604051809103902091506111dd610812565b6040805180820182528481524260208083019182526000858152600a90915292909220905181559051600191820155600754919250611222919063ffffffff610e5916565b600755600354604080519182526020820183905281810187905251600160a060020a038916917f51e752a40f05002d50a3d3ecb6ca75f7a8483cc0d7fa980817e56b7c6444e7c1919081900360600190a250506003805460010190555050505050565b61128d6117d8565b60606112a261129b84611390565b60056113be565b905060a0604051908101604052806112d18360008151811015156112c257fe5b9060200190602002015161144c565b81526020016112e88360018151811015156112c257fe5b81526020016112ff8360028151811015156112c257fe5b815260200161132583600381518110151561131657fe5b90602001906020020151611470565b600160a060020a0316815260200161135483600481518110151561134557fe5b90602001906020020151611498565b905291505b50919050565b600061137361136d856114ec565b84611585565b600160a060020a031682600160a060020a03161490509392505050565b6113986117c1565b5080516040805180820190915260208084018083529082018390529091905b5050919050565b60606113c8611811565b60008360405190808252806020026020018201604052801561140457816020015b6113f16117c1565b8152602001906001900390816113e95790505b50925061141085611657565b91505b83811015611444576114248261167c565b838281518110151561143257fe5b60209081029091010152600101611413565b505092915050565b600080600061145a846116ae565b90516020919091036101000a9004949350505050565b600080600061147e846116ae565b50516c010000000000000000000000009004949350505050565b60208101516060908015156114ac57611359565b806040519080825280601f01601f1916602001820160405280156114da578160200160208202803883390190505b50915061135983600001518383611711565b604080518082018252601c8082527f19457468657265756d205369676e6564204d6573736167653a0a333200000000602083019081529251600093839286929182918083835b602083106115515780518252601f199092019160209182019101611532565b51815160209384036101000a6000190180199092169116179052920193845250604051928390030190912095945050505050565b6000806000808451604114151561159f576000935061164e565b50505060208201516040830151604184015160ff16601b8110156115c157601b015b8060ff16601b141580156115d957508060ff16601c14155b156115e7576000935061164e565b60408051600080825260208083018085528a905260ff8516838501526060830187905260808301869052925160019360a0808501949193601f19840193928390039091019190865af1158015611641573d6000803e3d6000fd5b5050506020604051035193505b50505092915050565b61165f611811565b600061166a8361174f565b83519383529092016020820152919050565b6116846117c1565b6020820151600061169482611795565b828452602080850182905292019390910192909252919050565b805180516000918291821a908260808310156116d05781945060019350611709565b60b88310156116ee5760018660200151039350816001019450611709565b60b78303905080600187602001510303935080820160010194505b505050915091565b6020601f820104836020840160005b8381101561173c57602081028381015190830152600101611720565b5060008551602001860152505050505050565b8051805160009190821a90608082101561176c57600092506113b7565b60b8821080611787575060c08210158015611787575060f882105b156113b757600192506113b7565b8051600090811a60808110156117ae5760019150611359565b60b881101561135957607e190192915050565b604080518082019091526000808252602082015290565b60a0604051908101604052806000815260200160008152602001600081526020016000600160a060020a03168152602001606081525090565b6060604051908101604052806118256117c1565b81526020016000815250905600a165627a7a723058204736e8f95bdcca237895d65fd1f9a98ac8eb365e06c3857f6adeb1ab9c69a6690029",
  "source": "pragma solidity ^0.4.22;\n\nimport 'openzeppelin-solidity/contracts/token/ERC721/ERC721Receiver.sol';\nimport 'openzeppelin-solidity/contracts/math/SafeMath.sol';\nimport './Cards.sol';\n\n// Lib deps\nimport '../Libraries/ERC721PlasmaRLP.sol';\nimport '../Libraries/ECVerify.sol';\nimport '../Libraries/ByteUtils.sol';\nimport '../Libraries/Merkle.sol';\n\ncontract RootChain is ERC721Receiver {\n    /*\n     * Events\n     */\n    event Deposit(uint256 slot, uint256 depositBlockNumber, uint256 denomination, address indexed from);\n    event ExitStarted(uint indexed slot, address indexed owner, uint created_at);\n    event FinalizedExit(address  owner, uint256  uid);\n\n    using SafeMath for uint256;\n    using ERC721PlasmaRLP for bytes;\n    using ERC721PlasmaRLP for ERC721PlasmaRLP.txData;\n    using ECVerify for bytes32;\n    using Merkle for bytes32;\n\n    /*\n     * Storage\n     */\n\n    address public authority;\n\n    // exits\n    uint[] public exitSlots;\n    mapping(uint256 => Exit) public exits;\n    struct Exit {\n        address owner;\n        uint256 created_at;\n    }\n\n    // tracking of NFTs deposited in each slot\n    uint public NUM_COINS;\n    mapping (uint => NFT_UTXO) public coins; \n    struct NFT_UTXO {\n        uint256 uid; // there are up to 2^256 cards, can probably make it less\n        uint256 denomination; // an owner cannot own more than 256 of a card. Currently set to 1 always, subject to change once the token changes\n        address owner; // who owns that nft\n        bool canExit;\n    }\n\n    // child chain\n    uint256 public childBlockInterval;\n    uint256 public currentChildBlock;\n    uint256 public currentDepositBlock;\n    uint256 public lastParentBlock;\n    struct childBlock {\n        bytes32 root;\n        uint256 created_at;\n    }\n\n    uint public depositCount;\n    mapping(uint => childBlock) public childChain;\n    mapping(address => uint256[]) public pendingWithdrawals; //  the pending cards to withdraw\n    CryptoCards cryptoCards;\n\n    /*\n     * Modifiers\n     */\n    modifier isAuthority() {\n        require(msg.sender == authority);\n        _;\n    }\n\n    constructor () public{\n        authority = msg.sender;\n\n\t\tchildBlockInterval = 1000;\n        currentChildBlock = childBlockInterval;\n        currentDepositBlock = 1;\n        lastParentBlock = block.number; // to ensure no chain reorgs\n\n    }\n\n    function setCryptoCards(CryptoCards _cryptoCards) isAuthority public {\n        cryptoCards = _cryptoCards;\n    }\n\n    /// @param root 32 byte merkleRoot of ChildChain block\n    /// @notice childChain blocks can only be submitted at most every 6 root chain blocks\n    function submitBlock(bytes32 root)\n        public\n        isAuthority\n    {\n        // ensure finality on previous blocks before submitting another\n        // require(block.number >= lastParentBlock.add(6)); // commented out while prototyping\n\n        childChain[currentChildBlock] = childBlock({\n            root: root,\n            created_at: block.timestamp\n        });\n\n        currentChildBlock = currentChildBlock.add(childBlockInterval);\n        currentDepositBlock = 1;\n        lastParentBlock = block.number;\n\t}\n\n\n    /// @dev Allows anyone to deposit funds into the Plasma chain, called when contract receives ERC721\n    function deposit(address from, uint256 uid, uint256 denomination, bytes txBytes)\n        private\n    {\n        ERC721PlasmaRLP.txData memory txData = txBytes.getTxData();\n        // Verify that the transaction data sent matches the coin data from ERC721\n        require(txData.slot == NUM_COINS);\n        require(txData.denomination == denomination);\n        require(txData.owner == from);\n        require(txData.prevBlock == 0);\n\n        // Update state \"tree\"\n        coins[NUM_COINS] = NFT_UTXO({\n                uid: uid, \n                denomination: denomination,\n                owner: from, \n                canExit: false \n        });\n\n        bytes32 txHash = keccak256(txBytes);\n        uint256 depositBlockNumber = getDepositBlock();\n\n        childChain[depositBlockNumber] = childBlock({\n            root: txHash, // save signed transaction hash as root\n            created_at: block.timestamp\n        });\n\n        currentDepositBlock = currentDepositBlock.add(1);\n        emit Deposit(NUM_COINS, depositBlockNumber, denomination, from); // create a utxo at slot `NUM_COINS`\n\n        NUM_COINS += 1;\n    }\n\n    function startExit(\n        uint slot,\n        bytes prevTxBytes, bytes exitingTxBytes, \n        bytes prevTxInclusionProof, bytes exitingTxInclusionProof, \n        bytes sigs,\n        uint prevTxIncBlock, uint exitingTxIncBlock) \n        external\n    {\n        // Different inclusion check depending on if we're exiting a deposit transaction or not\n        if (exitingTxIncBlock % childBlockInterval != 0 ) { \n           require(\n                checkDepositBlockInclusion(\n                    exitingTxBytes, \n                    sigs, // for deposit blocks this is just a single sig\n                    exitingTxIncBlock\n                ),\n                \"Not included in deposit block\"\n            );\n        } else {\n            require(\n                checkBlockInclusion(\n                    prevTxBytes, exitingTxBytes,\n                    prevTxInclusionProof, exitingTxInclusionProof,\n                    sigs,\n                    prevTxIncBlock, exitingTxIncBlock\n                ), \n                \"Not included in blocks\"\n            );\n        }\n\n        exitSlots.push(slot);\n        exits[slot] = Exit({\n            owner: msg.sender, \n            created_at: block.timestamp\n        });\n\n        emit ExitStarted(slot, msg.sender, block.timestamp);\n    }\n\n    function getSig(bytes sigs, uint i) public pure returns(bytes) {\n        return ByteUtils.slice(sigs, 65 * i,  65);\n    }\n\n    function checkDepositBlockInclusion(\n        bytes txBytes,\n        bytes signature,\n        uint txIncBlock\n    )\n         private \n         view \n         returns (bool) \n    {\n        ERC721PlasmaRLP.txData memory txData = txBytes.getTxData();\n        bytes32 txHash = keccak256(txBytes); \n        require(txHash.ecverify(signature, txData.owner), \"Invalid sig\");\n        require(\n            txHash == childChain[txIncBlock].root, \n            \"Deposit Tx not included in block\"\n        );\n\n        return true;\n    }\n\n\n    function checkBlockInclusion(\n            bytes prevTxBytes, bytes exitingTxBytes,\n            bytes prevTxInclusionProof, bytes exitingTxInclusionProof,\n            bytes sigs,\n            uint prevTxIncBlock, uint exitingTxIncBlock) \n            private\n            view\n            returns (bool)\n    {\n        ERC721PlasmaRLP.txData memory prevTxData = prevTxBytes.getTxData();\n        ERC721PlasmaRLP.txData memory exitingTxData = exitingTxBytes.getTxData();\n\n        bytes32 txHash = keccak256(exitingTxBytes);\n        bytes32 root = childChain[exitingTxIncBlock].root;\n\n        // FAILS require(txHash.ecverify(getSig(sigs, 1), prevTxData.owner), \"Invalid sig\");\n        // require(exitingTxData.owner == msg.sender, \"Invalid sender\");\n        /* \n        require(\n            txHash.checkMembership(\n                exitingTxData.slot, \n                root, \n                exitingTxInclusionProof\n            ),\n            \"Exiting tx not included in claimed block\"\n        );\n\n        bytes32 prevTxHash = keccak256(prevTxBytes);\n        bytes32 prevRoot = childChain[prevTxIncBlock].root;\n\n        if (prevTxIncBlock % childBlockInterval != 0 ) { \n            require(prevTxHash == prevRoot); // like in deposit block\n        } else {\n            require(\n                prevTxHash.checkMembership(\n                    prevTxData.slot,\n                    prevRoot, \n                    prevTxInclusionProof\n                ),\n                \"Previous tx not included in claimed block\"\n            );\n        }\n       */\n\n        return true;\n    }\n\n    function finalizeExits() external {\n        Exit memory currentExit;\n        uint exitSlotsLength = exitSlots.length;\n        uint slot;\n        for (uint i = 0; i < exitSlotsLength; i++) { \n            slot = exitSlots[i];\n            currentExit = exits[slot];\n\n            // Process an exit only if it has matured and hasn't been challenged. Only checking date since a challenged exit will dissapear. < Commented out during Development > \n            // if ((block.timestamp - currentExit.created_at) > 7 days ) {\n                // Change owner of coin at exit.slot and allow that coin to be exited\n                coins[slot].owner = currentExit.owner;\n                coins[slot].canExit = true;\n                \n                // delete the finalized exit\n                delete exits[slot];\n                delete exitSlots[i];\n\n                emit FinalizedExit(currentExit.owner, slot);\n            // }\n        }\n    }\n\n    function challengeExit(uint slot) external {\n        // perform validation\n        delete exits[slot];    \n        delete exitSlots[slot];\n    }\n\n    // Withdraw a UTXO that has been exited\n    function withdraw(uint slot) external {\n        require(coins[slot].owner == msg.sender, \"You do not own that UTXO\");\n        require(coins[slot].canExit, \"You cannot exit that coin!\");\n        cryptoCards.safeTransferFrom(address(this), msg.sender, coins[slot].uid);\n    }\n\n    function getDepositBlock() public view returns (uint256) {\n        return currentChildBlock.sub(childBlockInterval).add(currentDepositBlock);\n    }\n\n    /// receiver for erc721 to trigger a deposit\n    function onERC721Received(address _from, uint256 _uid, bytes _data) \n        public \n        returns(bytes4) \n    {\n        require(msg.sender == address(cryptoCards)); // can only be called by the associated cryptocards contract. \n        deposit(_from, _uid, 1, _data);\n        return ERC721_RECEIVED;\n    }\n}\n\n",
  "sourcePath": "/home/opsec/loom/PLASMA-RESEARCH/cash-erc721/server/contracts/Core/RootChain.sol",
  "compiler": {
    "name": "solc",
    "version": "0.4.23+commit.124ca40d.Emscripten.clang"
  },
  "schemaVersion": "2.0.0",
  "updatedAt": "2018-05-21T17:38:00.230Z"
}