{
  "contractName": "RootChain",
  "abi": [
    {
      "constant": true,
      "inputs": [],
      "name": "lastParentBlock",
      "outputs": [
        {
          "name": "",
          "type": "uint256"
        }
      ],
      "payable": false,
      "stateMutability": "view",
      "type": "function"
    },
    {
      "constant": true,
      "inputs": [],
      "name": "depositCount",
      "outputs": [
        {
          "name": "",
          "type": "uint256"
        }
      ],
      "payable": false,
      "stateMutability": "view",
      "type": "function"
    },
    {
      "constant": true,
      "inputs": [
        {
          "name": "",
          "type": "uint256"
        }
      ],
      "name": "exits",
      "outputs": [
        {
          "name": "owner",
          "type": "address"
        },
        {
          "name": "slot",
          "type": "uint256"
        },
        {
          "name": "created_at",
          "type": "uint256"
        }
      ],
      "payable": false,
      "stateMutability": "view",
      "type": "function"
    },
    {
      "constant": true,
      "inputs": [],
      "name": "childBlockInterval",
      "outputs": [
        {
          "name": "",
          "type": "uint256"
        }
      ],
      "payable": false,
      "stateMutability": "view",
      "type": "function"
    },
    {
      "constant": true,
      "inputs": [
        {
          "name": "",
          "type": "address"
        },
        {
          "name": "",
          "type": "uint256"
        }
      ],
      "name": "pendingWithdrawals",
      "outputs": [
        {
          "name": "",
          "type": "uint256"
        }
      ],
      "payable": false,
      "stateMutability": "view",
      "type": "function"
    },
    {
      "constant": true,
      "inputs": [],
      "name": "NUM_COINS",
      "outputs": [
        {
          "name": "",
          "type": "uint256"
        }
      ],
      "payable": false,
      "stateMutability": "view",
      "type": "function"
    },
    {
      "constant": true,
      "inputs": [],
      "name": "currentChildBlock",
      "outputs": [
        {
          "name": "",
          "type": "uint256"
        }
      ],
      "payable": false,
      "stateMutability": "view",
      "type": "function"
    },
    {
      "constant": true,
      "inputs": [],
      "name": "currentDepositBlock",
      "outputs": [
        {
          "name": "",
          "type": "uint256"
        }
      ],
      "payable": false,
      "stateMutability": "view",
      "type": "function"
    },
    {
      "constant": true,
      "inputs": [],
      "name": "authority",
      "outputs": [
        {
          "name": "",
          "type": "address"
        }
      ],
      "payable": false,
      "stateMutability": "view",
      "type": "function"
    },
    {
      "constant": true,
      "inputs": [
        {
          "name": "",
          "type": "uint256"
        }
      ],
      "name": "coins",
      "outputs": [
        {
          "name": "uid",
          "type": "uint256"
        },
        {
          "name": "denomination",
          "type": "uint256"
        },
        {
          "name": "owner",
          "type": "address"
        },
        {
          "name": "canExit",
          "type": "bool"
        }
      ],
      "payable": false,
      "stateMutability": "view",
      "type": "function"
    },
    {
      "constant": true,
      "inputs": [
        {
          "name": "",
          "type": "uint256"
        }
      ],
      "name": "childChain",
      "outputs": [
        {
          "name": "root",
          "type": "bytes32"
        },
        {
          "name": "created_at",
          "type": "uint256"
        }
      ],
      "payable": false,
      "stateMutability": "view",
      "type": "function"
    },
    {
      "inputs": [],
      "payable": false,
      "stateMutability": "nonpayable",
      "type": "constructor"
    },
    {
      "anonymous": false,
      "inputs": [
        {
          "indexed": false,
          "name": "slot",
          "type": "uint256"
        },
        {
          "indexed": false,
          "name": "depositBlockNumber",
          "type": "uint256"
        },
        {
          "indexed": false,
          "name": "denomination",
          "type": "uint256"
        },
        {
          "indexed": true,
          "name": "from",
          "type": "address"
        }
      ],
      "name": "Deposit",
      "type": "event"
    },
    {
      "anonymous": false,
      "inputs": [
        {
          "indexed": false,
          "name": "owner",
          "type": "address"
        },
        {
          "indexed": false,
          "name": "uid",
          "type": "uint256"
        }
      ],
      "name": "CanWithdraw",
      "type": "event"
    },
    {
      "anonymous": false,
      "inputs": [
        {
          "indexed": false,
          "name": "priority",
          "type": "uint256"
        },
        {
          "indexed": false,
          "name": "owner",
          "type": "address"
        },
        {
          "indexed": false,
          "name": "uid",
          "type": "uint256"
        }
      ],
      "name": "FinalizedExit",
      "type": "event"
    },
    {
      "constant": false,
      "inputs": [
        {
          "name": "_cryptoCards",
          "type": "address"
        }
      ],
      "name": "setCryptoCards",
      "outputs": [],
      "payable": false,
      "stateMutability": "nonpayable",
      "type": "function"
    },
    {
      "constant": false,
      "inputs": [
        {
          "name": "root",
          "type": "bytes32"
        }
      ],
      "name": "submitBlock",
      "outputs": [],
      "payable": false,
      "stateMutability": "nonpayable",
      "type": "function"
    },
    {
      "constant": false,
      "inputs": [
        {
          "name": "prevTxBytes",
          "type": "bytes"
        },
        {
          "name": "exitingTxBytes",
          "type": "bytes"
        },
        {
          "name": "prevTxInclusionProof",
          "type": "bytes"
        },
        {
          "name": "exitingTxInclusionProof",
          "type": "bytes"
        },
        {
          "name": "exitingTxSig",
          "type": "bytes"
        }
      ],
      "name": "startExit",
      "outputs": [],
      "payable": false,
      "stateMutability": "nonpayable",
      "type": "function"
    },
    {
      "constant": false,
      "inputs": [
        {
          "name": "prevTxBytes",
          "type": "bytes"
        },
        {
          "name": "exitingTxBytes",
          "type": "bytes"
        },
        {
          "name": "prevTxInclusionProof",
          "type": "bytes"
        },
        {
          "name": "exitingTxInclusionProof",
          "type": "bytes"
        }
      ],
      "name": "checkBlockInclusion",
      "outputs": [
        {
          "name": "",
          "type": "bool"
        }
      ],
      "payable": false,
      "stateMutability": "nonpayable",
      "type": "function"
    },
    {
      "constant": false,
      "inputs": [],
      "name": "finalizeExits",
      "outputs": [],
      "payable": false,
      "stateMutability": "nonpayable",
      "type": "function"
    },
    {
      "constant": false,
      "inputs": [
        {
          "name": "slot",
          "type": "uint256"
        }
      ],
      "name": "withdraw",
      "outputs": [],
      "payable": false,
      "stateMutability": "nonpayable",
      "type": "function"
    },
    {
      "constant": true,
      "inputs": [],
      "name": "getDepositBlock",
      "outputs": [
        {
          "name": "",
          "type": "uint256"
        }
      ],
      "payable": false,
      "stateMutability": "view",
      "type": "function"
    },
    {
      "constant": false,
      "inputs": [
        {
          "name": "_from",
          "type": "address"
        },
        {
          "name": "_uid",
          "type": "uint256"
        },
        {
          "name": "",
          "type": "bytes"
        }
      ],
      "name": "onERC721Received",
      "outputs": [
        {
          "name": "",
          "type": "bytes4"
        }
      ],
      "payable": false,
      "stateMutability": "nonpayable",
      "type": "function"
    }
  ],
  "bytecode": "0x608060405234801561001057600080fd5b5060008054600160a060020a03191633600160a060020a03161790556103e8600581905560065560016007554360085561004861008a565b604051809103906000f080158015610064573d6000803e3d6000fd5b5060018054600160a060020a031916600160a060020a039290921691909117905561009a565b60405161068580611d1083390190565b611c67806100a96000396000f3006080604052600436106100ed5763ffffffff60e060020a600035041663117546c581146100f25780632dfdf0b5146101195780632e1a7d4d1461012e578063329be5d514610148578063342de1791461016957806338a9e0bc146101a957806344dc4970146101be5780634b102bb6146101e257806366e30d97146102325780637a95f1e814610247578063a98c7f2c1461025c578063baa4769414610271578063bcd5926114610289578063bf7e214f1461029e578063c6610657146102cf578063c6ab44cd14610317578063e17abac41461032c578063f0b9e5ba14610453578063f95643b1146104f1575b600080fd5b3480156100fe57600080fd5b50610107610522565b60408051918252519081900360200190f35b34801561012557600080fd5b50610107610528565b34801561013a57600080fd5b5061014660043561052e565b005b34801561015457600080fd5b50610146600160a060020a03600435166106c7565b34801561017557600080fd5b50610181600435610711565b60408051600160a060020a039094168452602084019290925282820152519081900360600190f35b3480156101b557600080fd5b5061010761073d565b3480156101ca57600080fd5b50610107600160a060020a0360043516602435610743565b3480156101ee57600080fd5b506101466024600480358281019290820135918135808301929082013591604435808301929082013591606435808301929082013591608435918201910135610773565b34801561023e57600080fd5b50610107610b20565b34801561025357600080fd5b50610107610b26565b34801561026857600080fd5b50610107610b2c565b34801561027d57600080fd5b50610146600435610b32565b34801561029557600080fd5b50610107610bc1565b3480156102aa57600080fd5b506102b3610bf1565b60408051600160a060020a039092168252519081900360200190f35b3480156102db57600080fd5b506102e7600435610c00565b604080519485526020850193909352600160a060020a039091168383015215156060830152519081900360800190f35b34801561032357600080fd5b50610146610c47565b34801561033857600080fd5b506040805160206004803580820135601f810184900484028501840190955284845261043f94369492936024939284019190819084018382808284375050604080516020601f89358b018035918201839004830284018301909452808352979a99988101979196509182019450925082915084018382808284375050604080516020601f89358b018035918201839004830284018301909452808352979a99988101979196509182019450925082915084018382808284375050604080516020601f89358b018035918201839004830284018301909452808352979a9998810197919650918201945092508291508401838280828437509497506112579650505050505050565b604080519115158252519081900360200190f35b34801561045f57600080fd5b50604080516020600460443581810135601f81018490048402850184019095528484526104bc948235600160a060020a031694602480359536959460649492019190819084018382808284375094975061149b9650505050505050565b604080517fffffffff000000000000000000000000000000000000000000000000000000009092168252519081900360200190f35b3480156104fd57600080fd5b506105096004356114ee565b6040805192835260208301919091528051918290030190f35b60085481565b60095481565b60008181526004602052604090206002015433600160a060020a039081169116146105a3576040805160e560020a62461bcd02815260206004820152601860248201527f596f7520646f206e6f74206f776e2074686174205554584f0000000000000000604482015290519081900360640190fd5b60008181526004602052604090206002015474010000000000000000000000000000000000000000900460ff161515610626576040805160e560020a62461bcd02815260206004820152601a60248201527f596f752063616e6e6f742065786974207468617420636f696e21000000000000604482015290519081900360640190fd5b600c5460008281526004602081905260408083205481517f42842e0e000000000000000000000000000000000000000000000000000000008152600160a060020a033081169482019490945233841660248201526044810191909152905191909316926342842e0e92606480830193919282900301818387803b1580156106ac57600080fd5b505af11580156106c0573d6000803e3d6000fd5b5050505050565b60005433600160a060020a039081169116146106e257600080fd5b600c805473ffffffffffffffffffffffffffffffffffffffff1916600160a060020a0392909216919091179055565b6002602081905260009182526040909120805460018201549190920154600160a060020a039092169183565b60055481565b600b6020528160005260406000208181548110151561075e57fe5b90600052602060002001600091509150505481565b61077b611ba6565b610783611ba6565b6000806107bf8c8c8080601f01602080910402602001604051908101604052809392919081815260200183838082843750611507945050505050565b93506107fa8e8e8080601f01602080910402602001604051908101604052809392919081815260200183838082843750611507945050505050565b84516040805191825280519182900360209081018320601f8a01829004820284018201909252888352929550935061085491889088908190840183828082843750505060608901518794935091505063ffffffff6115bb16565b15156108aa576040805160e560020a62461bcd02815260206004820152600b60248201527f496e76616c696420736967000000000000000000000000000000000000000000604482015290519081900360640190fd5b60055484602001518115156108bb57fe5b0615610931576020808501516000908152600a9091526040902054821461092c576040805160e560020a62461bcd02815260206004820181905260248201527f4465706f736974205478206e6f7420696e636c7564656420696e20626c6f636b604482015290519081900360640190fd5b610a0e565b610a038e8e8080601f0160208091040260200160405190810160405280939291908181526020018383808284378201915050505050508d8d8080601f0160208091040260200160405190810160405280939291908181526020018383808284378201915050505050508c8c8080601f0160208091040260200160405190810160405280939291908181526020018383808284378201915050505050508b8b8080601f01602080910402602001604051908101604052809392919081815260200183838082843750611257945050505050565b1515610a0e57600080fd5b5082516020840151600154604080517f90b5561d0000000000000000000000000000000000000000000000000000000081526298968090930261271090940293909301600483018190529251600160a060020a03909116916390b5561d91602480830192600092919082900301818387803b158015610a8c57600080fd5b505af1158015610aa0573d6000803e3d6000fd5b50506040805160608082018352880151600160a060020a03908116825297516020808301918252428385019081526000978852600291829052939096209151825473ffffffffffffffffffffffffffffffffffffffff19169916989098178155965160018801555195909201949094555050505050505050505050505050565b60035481565b60065481565b60075481565b60005433600160a060020a03908116911614610b4d57600080fd5b600854610b6190600663ffffffff6115ec16565b431015610b6d57600080fd5b604080518082018252828152426020808301918252600680546000908152600a90925293902091518255516001909101556005549054610bb29163ffffffff6115ec16565b60065550600160075543600855565b6000610bec600754610be06005546006546115ff90919063ffffffff16565b9063ffffffff6115ec16565b905090565b600054600160a060020a031681565b600460205260009081526040902080546001820154600290920154909190600160a060020a0381169074010000000000000000000000000000000000000000900460ff1684565b6000610c51611bd8565b6001546040805160e060020a63bda1504b0281529051600092600160a060020a03169163bda1504b91600480830192602092919082900301818787803b158015610c9a57600080fd5b505af1158015610cae573d6000803e3d6000fd5b505050506040513d6020811015610cc457600080fd5b505111610d1b576040805160e560020a62461bcd02815260206004820152601060248201527f6578697420717565756520656d70747900000000000000000000000000000000604482015290519081900360640190fd5b600160009054906101000a9004600160a060020a0316600160a060020a031663d6362e976040518163ffffffff1660e060020a028152600401602060405180830381600087803b158015610d6e57600080fd5b505af1158015610d82573d6000803e3d6000fd5b505050506040513d6020811015610d9857600080fd5b505160008181526002602081815260409283902083516060810185528154600160a060020a03168152600182015492810192909252909101549181019190915290925090505b6001546040805160e060020a63bda1504b0281529051600092600160a060020a03169163bda1504b91600480830192602092919082900301818787803b158015610e2757600080fd5b505af1158015610e3b573d6000803e3d6000fd5b505050506040513d6020811015610e5157600080fd5b5051118015610e68575062093a8081604001514203115b15611253578051600160a060020a0316151561104557600160009054906101000a9004600160a060020a0316600160a060020a031663b07576ac6040518163ffffffff1660e060020a028152600401602060405180830381600087803b158015610ed157600080fd5b505af1158015610ee5573d6000803e3d6000fd5b505050506040513d6020811015610efb57600080fd5b50506001546040805160e060020a63bda1504b0281529051600160a060020a039092169163bda1504b916004808201926020929091908290030181600087803b158015610f4757600080fd5b505af1158015610f5b573d6000803e3d6000fd5b505050506040513d6020811015610f7157600080fd5b50511515610f7e57611253565b600160009054906101000a9004600160a060020a0316600160a060020a031663d6362e976040518163ffffffff1660e060020a028152600401602060405180830381600087803b158015610fd157600080fd5b505af1158015610fe5573d6000803e3d6000fd5b505050506040513d6020811015610ffb57600080fd5b505160008181526002602081815260409283902083516060810185528154600160a060020a0316815260018201549281019290925290910154918101919091529092509050610dde565b805160208083018051600090815260048352604080822060029081018054600160a060020a0397881673ffffffffffffffffffffffffffffffffffffffff199091161790558351835291819020909101805474ff0000000000000000000000000000000000000000191674010000000000000000000000000000000000000000179055845191518151878152929094169282019290925280820192909252517fbd50b348996c7886c27e252b1b158f20c6cb5f036bd5c1b1039f1111a0ba78829181900360600190a1805160208083015160408051600160a060020a0390941684529183015280517fcb9ff625f589aa0e687e6e3e13884bf647901a8593d2d9de711f09cc2f3a52a49281900390910190a1600160009054906101000a9004600160a060020a0316600160a060020a031663b07576ac6040518163ffffffff1660e060020a028152600401602060405180830381600087803b1580156111aa57600080fd5b505af11580156111be573d6000803e3d6000fd5b505050506040513d60208110156111d457600080fd5b50506000828152600260208181526040808420805473ffffffffffffffffffffffffffffffffffffffff19168155600180820186905593018490559154825160e060020a63bda1504b0281529251600160a060020a039091169363bda1504b936004808201949392918390030190829087803b158015610f4757600080fd5b5050565b6000611261611ba6565b60008061126c611ba6565b6000806112788b611507565b95508a6040518082805190602001908083835b602083106112aa5780518252601f19909201916020918201910161128b565b51815160209384036101000a600019018019909216911617905260408051929094018290039091208b8201516000908152600a909252929020549198509096506112f992508c91506115079050565b9250896040518082805190602001908083835b6020831061132b5780518252601f19909201916020918201910161130c565b51815160209384036101000a60001901801990921691161790526040805192909401829003909120888201516000908152600a909252929020548a51929650945061137d93508892508790508c611611565b15156113f9576040805160e560020a62461bcd02815260206004820152602960248201527f50726576696f7573207478206e6f7420696e636c7564656420696e20636c616960448201527f6d656420626c6f636b0000000000000000000000000000000000000000000000606482015290519081900360840190fd5b825161140e908390838b63ffffffff61161116565b151561148a576040805160e560020a62461bcd02815260206004820152602860248201527f45786974696e67207478206e6f7420696e636c7564656420696e20636c61696d60448201527f656420626c6f636b000000000000000000000000000000000000000000000000606482015290519081900360840190fd5b5060019a9950505050505050505050565b600c5460009033600160a060020a039081169116146114b957600080fd5b6114c58484600161169d565b507ff0b9e5ba000000000000000000000000000000000000000000000000000000009392505050565b600a602052600090815260409020805460019091015482565b61150f611ba6565b606061152461151d84611807565b6004611835565b905060806040519081016040528061155383600081518110151561154457fe5b906020019060200201516118c3565b815260200161156a83600181518110151561154457fe5b815260200161158183600281518110151561154457fe5b81526020016115a783600381518110151561159857fe5b906020019060200201516118e7565b600160a060020a0316905291505b50919050565b60006115cf6115c98561190f565b846119a8565b600160a060020a031682600160a060020a03161490509392505050565b818101828110156115f957fe5b92915050565b60008282111561160b57fe5b50900390565b600080600080845161020014151561162857600080fd5b5086905060205b610200811161168f578481015192506002870615156116665760408051928352602083018490528051928390030190912090611681565b60408051848152602081019390935280519283900301909120905b60028704965060200161162f565b509390931495945050505050565b604080516080810182528381526020808201848152600160a060020a03878116848601908152600060608601818152600380548352600487528883209751885594516001880155915160029096018054925173ffffffffffffffffffffffffffffffffffffffff19909316969093169590951774ff0000000000000000000000000000000000000000191674010000000000000000000000000000000000000000911515919091021790555483519081529251928390030190912090611761610bc1565b6040805180820182528481524260208083019182526000858152600a909152929092209051815590516001918201556007549192506117a6919063ffffffff6115ec16565b600755600354604080519182526020820183905281810185905251600160a060020a038716917f51e752a40f05002d50a3d3ecb6ca75f7a8483cc0d7fa980817e56b7c6444e7c1919081900360600190a25050600380546001019055505050565b61180f611c03565b5080516040805180820190915260208084018083529082018390529091905b5050919050565b606061183f611c1a565b60008360405190808252806020026020018201604052801561187b57816020015b611868611c03565b8152602001906001900390816118605790505b50925061188785611a7a565b91505b838110156118bb5761189b82611a9f565b83828151811015156118a957fe5b6020908102909101015260010161188a565b505092915050565b60008060006118d184611ad1565b90516020919091036101000a9004949350505050565b60008060006118f584611ad1565b50516c010000000000000000000000009004949350505050565b604080518082018252601c8082527f19457468657265756d205369676e6564204d6573736167653a0a333200000000602083019081529251600093839286929182918083835b602083106119745780518252601f199092019160209182019101611955565b51815160209384036101000a6000190180199092169116179052920193845250604051928390030190912095945050505050565b600080600080845160411415156119c25760009350611a71565b50505060208201516040830151604184015160ff16601b8110156119e457601b015b8060ff16601b141580156119fc57508060ff16601c14155b15611a0a5760009350611a71565b60408051600080825260208083018085528a905260ff8516838501526060830187905260808301869052925160019360a0808501949193601f19840193928390039091019190865af1158015611a64573d6000803e3d6000fd5b5050506020604051035193505b50505092915050565b611a82611c1a565b6000611a8d83611b34565b83519383529092016020820152919050565b611aa7611c03565b60208201516000611ab782611b7a565b828452602080850182905292019390910192909252919050565b805180516000918291821a90826080831015611af35781945060019350611b2c565b60b8831015611b115760018660200151039350816001019450611b2c565b60b78303905080600187602001510303935080820160010194505b505050915091565b8051805160009190821a906080821015611b51576000925061182e565b60b8821080611b6c575060c08210158015611b6c575060f882105b1561182e576001925061182e565b8051600090811a6080811015611b9357600191506115b5565b60b88110156115b557607e190192915050565b6080604051908101604052806000815260200160008152602001600081526020016000600160a060020a031681525090565b6060604051908101604052806000600160a060020a0316815260200160008152602001600081525090565b604080518082019091526000808252602082015290565b606060405190810160405280611c2e611c03565b81526020016000815250905600a165627a7a72305820c96ce3c83f1b11fd9bfd2b62c9265748f9474a1dac2a6c851821809d888db9f50029608060405234801561001057600080fd5b5060008054600160a060020a03191633600160a060020a031617815560408051602081019091529081526100479060019081610052565b5060006002556100bf565b828054828255906000526020600020908101928215610092579160200282015b82811115610092578251829060ff16905591602001919060010190610072565b5061009e9291506100a2565b5090565b6100bc91905b8082111561009e57600081556001016100a8565b90565b6105b7806100ce6000396000f30060806040526004361061006c5763ffffffff7c01000000000000000000000000000000000000000000000000000000006000350416632dcdcd0c811461007157806390b5561d1461009b578063b07576ac146100b5578063bda1504b146100ca578063d6362e97146100df575b600080fd5b34801561007d57600080fd5b506100896004356100f4565b60408051918252519081900360200190f35b3480156100a757600080fd5b506100b36004356101c3565b005b3480156100c157600080fd5b50610089610241565b3480156100d657600080fd5b50610089610324565b3480156100eb57600080fd5b5061008961032a565b600060025461011e600161011260028661034c90919063ffffffff16565b9063ffffffff61037b16565b111561013c5761013582600263ffffffff61034c16565b90506101be565b60016101538161011285600263ffffffff61034c16565b8154811061015d57fe5b600091825260209091200154600161017c84600263ffffffff61034c16565b8154811061018657fe5b906000526020600020015410156101a85761013582600263ffffffff61034c16565b610135600161011284600263ffffffff61034c16565b919050565b6000543373ffffffffffffffffffffffffffffffffffffffff9081169116146101eb57600080fd5b60018054808201825560008290527fb10e2d527612073b26eecdfd717e6a320cf44b4afac2b0732d9fcbe2b7fa0cf6018290556002546102309163ffffffff61037b16565b600281905561023e90610388565b50565b6000805481903373ffffffffffffffffffffffffffffffffffffffff90811691161461026c57600080fd5b600180548190811061027a57fe5b90600052602060002001549050600160025481548110151561029857fe5b90600052602060002001546001808154811015156102b257fe5b906000526020600020018190555060016002548154811015156102d157fe5b60009182526020822001556002546102f090600163ffffffff61045c16565b6002556102fd600161046e565b600180546103109163ffffffff61045c16565b61031b600182610552565b508091505b5090565b60025481565b600060018081548110151561033b57fe5b906000526020600020015490505b90565b600082151561035d57506000610375565b5081810281838281151561036d57fe5b041461037557fe5b92915050565b8181018281101561037557fe5b6001805482916000918390811061039b57fe5b906000526020600020015490505b60016103bc84600263ffffffff61053d16565b815481106103c657fe5b90600052602060002001548110156104335760016103eb84600263ffffffff61053d16565b815481106103f557fe5b906000526020600020015460018481548110151561040f57fe5b60009182526020909120015561042c83600263ffffffff61053d16565b92506103a9565b828214610457578060018481548110151561044a57fe5b6000918252602090912001555b505050565b60008282111561046857fe5b50900390565b600080600083925060018481548110151561048557fe5b9060005260206000200154915061049b846100f4565b90505b60025481111580156104c7575060018054829081106104b957fe5b906000526020600020015482115b156105135760018054829081106104da57fe5b90600052602060002001546001858154811015156104f457fe5b60009182526020909120015592508261050c816100f4565b905061049e565b838314610537578160018581548110151561052a57fe5b6000918252602090912001555b50505050565b6000818381151561054a57fe5b049392505050565b8154818355818111156104575760008381526020902061045791810190830161034991905b8082111561032057600081556001016105775600a165627a7a723058207fc02cfcdf37691a39c34e1faf50153f66b40bd9d3364ce22eea5f3ea5d8daec0029",
  "source": "pragma solidity ^0.4.22;\n\nimport 'openzeppelin-solidity/contracts/token/ERC721/ERC721Receiver.sol';\nimport 'openzeppelin-solidity/contracts/math/SafeMath.sol';\nimport './Cards.sol';\n\n// Lib deps\nimport '../Queue/PriorityQueue.sol';\nimport '../Libraries/ERC721PlasmaRLP.sol';\nimport '../Libraries/ECVerify.sol';\nimport '../Libraries/Merkle.sol';\n\ncontract RootChain is ERC721Receiver {\n    /*\n     * Events\n     */\n    event Deposit(uint256 slot, uint256 depositBlockNumber, uint256 denomination, address indexed from);\n    event CanWithdraw(address  owner, uint  uid);\n    event FinalizedExit(uint priority, address  owner, uint256  uid);\n\n    using SafeMath for uint256;\n    using ERC721PlasmaRLP for bytes;\n    using ERC721PlasmaRLP for ERC721PlasmaRLP.txData;\n    using ECVerify for bytes32;\n    using Merkle for bytes32;\n\n    /*\n     * Storage\n     */\n\n    address public authority;\n\n    // exits\n    PriorityQueue exitsQueue;\n    mapping(uint256 => Exit) public exits;\n    struct Exit {\n        address owner;\n        uint256 slot;\n        uint256 created_at;\n    }\n\n    // tracking of NFTs deposited in each slot\n    uint public NUM_COINS;\n    mapping (uint => NFT_UTXO) public coins; \n    struct NFT_UTXO {\n        uint256 uid; // there are up to 2^256 cards, can probably make it less\n        uint256 denomination; // an owner cannot own more than 256 of a card. Currently set to 1 always, subject to change once the token changes\n        address owner; // who owns that nft\n        bool canExit;\n    }\n\n    // child chain\n    uint256 public childBlockInterval;\n    uint256 public currentChildBlock;\n    uint256 public currentDepositBlock;\n    uint256 public lastParentBlock;\n    struct childBlock {\n        bytes32 root;\n        uint256 created_at;\n    }\n\n    uint public depositCount;\n    mapping(uint => childBlock) public childChain;\n    mapping(address => uint256[]) public pendingWithdrawals; //  the pending cards to withdraw\n    CryptoCards cryptoCards;\n\n    /*\n     * Modifiers\n     */\n    modifier isAuthority() {\n        require(msg.sender == authority);\n        _;\n    }\n\n    constructor () public{\n        authority = msg.sender;\n\n\t\tchildBlockInterval = 1000;\n        currentChildBlock = childBlockInterval;\n        currentDepositBlock = 1;\n        lastParentBlock = block.number; // to ensure no chain reorgs\n\n        exitsQueue = new PriorityQueue();\n    }\n\n    function setCryptoCards(CryptoCards _cryptoCards) isAuthority public {\n        cryptoCards = _cryptoCards;\n    }\n\n    /// @param root 32 byte merkleRoot of ChildChain block\n    /// @notice childChain blocks can only be submitted at most every 6 root chain blocks\n    function submitBlock(bytes32 root)\n        public\n        isAuthority\n    {\n        // ensure finality on previous blocks before submitting another\n        require(block.number >= lastParentBlock.add(6));\n\n        childChain[currentChildBlock] = childBlock({\n            root: root,\n            created_at: block.timestamp\n        });\n\n        currentChildBlock = currentChildBlock.add(childBlockInterval);\n        currentDepositBlock = 1;\n        lastParentBlock = block.number;\n\t}\n\n\n    /// @dev Allows anyone to deposit funds into the Plasma chain, called when contract receives ERC721\n    function deposit(address from, uint256 uid, uint256 denomination)\n        private\n    {\n        // Update state \"tree\"\n        coins[NUM_COINS] = NFT_UTXO({\n                uid: uid, \n                denomination: denomination,\n                owner: from, \n                canExit: false // cannot directly withdraw a coin, need to go through normal exit process\n            });\n        // TX hash is always the hash slot of the coin\n        bytes32 txHash = keccak256(NUM_COINS); \n        uint256 depositBlockNumber = getDepositBlock();\n\n        childChain[depositBlockNumber] = childBlock({\n            root: txHash,\n            created_at: block.timestamp\n        });\n\n        currentDepositBlock = currentDepositBlock.add(1);\n        emit Deposit(NUM_COINS, depositBlockNumber, denomination, from); // create a utxo at `uid`\n\n        NUM_COINS += 1;\n    }\n\n    /// txBlk is not needed for sure, maybe to prevent replay attacks, still unclear. May help for splitting/merging\n\n    function startExit(\n        bytes prevTxBytes, bytes exitingTxBytes, \n        bytes prevTxInclusionProof, bytes exitingTxInclusionProof, \n        bytes exitingTxSig ) \n        external\n    {\n        ERC721PlasmaRLP.txData memory exitingTxData = exitingTxBytes.createExitingTx();\n        ERC721PlasmaRLP.txData memory prevTxData = prevTxBytes.createExitingTx();\n\n\n        //  Need to check that the exiting transaction has a valid signatrue by its owner in order to prevent someone else exiting the owner's funds when they don't want it.\n        bytes32 txHash = keccak256(exitingTxData.slot);\n        require(txHash.ecverify(exitingTxSig, exitingTxData.owner), \"Invalid sig\");\n\n        if (exitingTxData.prevBlock % childBlockInterval != 0 ) { \n            // If it's an exit of a deposit transaction then we need to check that:\n            // the transaction hash was indeed the root of the claimed deposit block\n            require(txHash == childChain[exitingTxData.prevBlock].root, \n                    \"Deposit Tx not included in block\");\n        } else {\n            // Otherwise we need to check for a proper inclusion of the transaction and the\n            // referenced transaction in the blocks' merkle roots\n            require(checkBlockInclusion(\n                    prevTxBytes, exitingTxBytes,\n                    prevTxInclusionProof, exitingTxInclusionProof\n                )\n            );\n        }\n        uint priority = exitingTxData.prevBlock * 10000000  + exitingTxData.slot * 10000;\n\n        exitsQueue.insert(priority);\n        exits[priority] = Exit({\n            owner: exitingTxData.owner, \n            slot: exitingTxData.slot, \n            created_at: block.timestamp\n        });\n    }\n\n    function checkBlockInclusion(\n            bytes prevTxBytes, bytes exitingTxBytes,\n            bytes prevTxInclusionProof, bytes exitingTxInclusionProof) \n            returns (bool)\n    {\n        ERC721PlasmaRLP.txData memory prevTxData = prevTxBytes.createExitingTx();\n        bytes32 prevMerkleHash = keccak256(prevTxBytes);\n        bytes32 prevRoot = childChain[prevTxData.prevBlock].root;\n\n\n        ERC721PlasmaRLP.txData memory exitingTxData = exitingTxBytes.createExitingTx();\n        bytes32 merkleHash = keccak256(exitingTxBytes);\n        bytes32 root = childChain[exitingTxData.prevBlock].root;\n\n        require(\n            prevMerkleHash.checkMembership(\n                prevTxData.slot,\n                prevRoot, \n                prevTxInclusionProof\n            ),\n            \"Previous tx not included in claimed block\"\n        );\n\n        require(\n            merkleHash.checkMembership(\n                exitingTxData.slot, \n                root, \n                exitingTxInclusionProof\n            ),\n            \"Exiting tx not included in claimed block\"\n        );\n\n        return true;\n    }\n\n\n    function finalizeExits() public {\n        require(exitsQueue.currentSize() > 0, \"exit queue empty\");\n\n        uint256 priority = exitsQueue.getMin();\n        Exit memory currentExit = exits[priority];\n\n        // finalize exits that are older than `1 week`.\n        while (exitsQueue.currentSize() > 0 && \n               (block.timestamp - currentExit.created_at) > 1 weeks) {\n            // this can occur if challengeExit is sucessful on an exit\n            if (currentExit.owner == address(0)) { // handles exits\n                exitsQueue.delMin();\n                if (exitsQueue.currentSize() == 0) return; // no revert because we wwant to keep the delete\n\n                // move onto the next oldest exit\n                priority = exitsQueue.getMin();\n                currentExit = exits[priority];\n                continue; // Prevent incorrect processing of deleted exits.\n            }\n\n            // Change owner of coin at exit.slot\n            coins[currentExit.slot].owner = currentExit.owner;\n            coins[currentExit.slot].canExit = true;\n\n            emit FinalizedExit(priority, currentExit.owner, currentExit.slot);\n            emit CanWithdraw(currentExit.owner, currentExit.slot);\n\n            // delete the finalized exit\n            exitsQueue.delMin();\n            delete exits[priority];\n\n            // move onto the next oldest exit\n            if (exitsQueue.currentSize() == 0) {\n                return;\n            }\n            priority = exitsQueue.getMin();\n            currentExit = exits[priority];\n        }\n    }\n\n    // Withdraw a UTXO that has been exited\n    function withdraw(uint slot) external {\n        require(coins[slot].owner == msg.sender, \"You do not own that UTXO\");\n        require(coins[slot].canExit, \"You cannot exit that coin!\");\n        cryptoCards.safeTransferFrom(address(this), msg.sender, coins[slot].uid);\n    }\n\n    function getDepositBlock() public view returns (uint256) {\n        return currentChildBlock.sub(childBlockInterval).add(currentDepositBlock);\n    }\n\n    /// receiver for erc721 to trigger a deposit\n    function onERC721Received(address _from, uint256 _uid, bytes) \n        public \n        returns(bytes4) \n    {\n        require(msg.sender == address(cryptoCards)); // can only be called by the associated cryptocards contract. \n        deposit(_from, _uid, 1); //, _data);\n        return ERC721_RECEIVED;\n    }\n\n\n\n}\n\n",
  "sourcePath": "/home/opsec/loom/PLASMA-RESEARCH/cash-erc721/server/contracts/Core/RootChain.sol",
  "compiler": {
    "name": "solc",
    "version": "0.4.23+commit.124ca40d.Emscripten.clang"
  },
  "schemaVersion": "2.0.0",
  "updatedAt": "2018-05-19T11:58:55.767Z"
}