{
  "contractName": "RootChain",
  "abi": [
    {
      "constant": true,
      "inputs": [],
      "name": "lastParentBlock",
      "outputs": [
        {
          "name": "",
          "type": "uint256"
        }
      ],
      "payable": false,
      "stateMutability": "view",
      "type": "function"
    },
    {
      "constant": true,
      "inputs": [],
      "name": "depositCount",
      "outputs": [
        {
          "name": "",
          "type": "uint256"
        }
      ],
      "payable": false,
      "stateMutability": "view",
      "type": "function"
    },
    {
      "constant": true,
      "inputs": [],
      "name": "childBlockInterval",
      "outputs": [
        {
          "name": "",
          "type": "uint256"
        }
      ],
      "payable": false,
      "stateMutability": "view",
      "type": "function"
    },
    {
      "constant": true,
      "inputs": [
        {
          "name": "",
          "type": "address"
        },
        {
          "name": "",
          "type": "uint256"
        }
      ],
      "name": "pendingWithdrawals",
      "outputs": [
        {
          "name": "",
          "type": "uint256"
        }
      ],
      "payable": false,
      "stateMutability": "view",
      "type": "function"
    },
    {
      "constant": true,
      "inputs": [],
      "name": "currentChildBlock",
      "outputs": [
        {
          "name": "",
          "type": "uint256"
        }
      ],
      "payable": false,
      "stateMutability": "view",
      "type": "function"
    },
    {
      "constant": true,
      "inputs": [],
      "name": "currentDepositBlock",
      "outputs": [
        {
          "name": "",
          "type": "uint256"
        }
      ],
      "payable": false,
      "stateMutability": "view",
      "type": "function"
    },
    {
      "constant": true,
      "inputs": [],
      "name": "authority",
      "outputs": [
        {
          "name": "",
          "type": "address"
        }
      ],
      "payable": false,
      "stateMutability": "view",
      "type": "function"
    },
    {
      "constant": true,
      "inputs": [
        {
          "name": "",
          "type": "uint256"
        }
      ],
      "name": "childChain",
      "outputs": [
        {
          "name": "root",
          "type": "bytes32"
        },
        {
          "name": "created_at",
          "type": "uint256"
        }
      ],
      "payable": false,
      "stateMutability": "view",
      "type": "function"
    },
    {
      "inputs": [],
      "payable": false,
      "stateMutability": "nonpayable",
      "type": "constructor"
    },
    {
      "anonymous": false,
      "inputs": [
        {
          "indexed": true,
          "name": "depositor",
          "type": "address"
        },
        {
          "indexed": false,
          "name": "tokenId",
          "type": "uint256"
        },
        {
          "indexed": false,
          "name": "data",
          "type": "bytes"
        }
      ],
      "name": "Deposit",
      "type": "event"
    },
    {
      "anonymous": false,
      "inputs": [
        {
          "indexed": false,
          "name": "owner",
          "type": "address"
        },
        {
          "indexed": false,
          "name": "tokenId",
          "type": "uint256"
        }
      ],
      "name": "CanWithdraw",
      "type": "event"
    },
    {
      "anonymous": false,
      "inputs": [
        {
          "indexed": false,
          "name": "priority",
          "type": "uint256"
        },
        {
          "indexed": false,
          "name": "owner",
          "type": "address"
        },
        {
          "indexed": false,
          "name": "tokenId",
          "type": "uint256"
        }
      ],
      "name": "FinalizedExit",
      "type": "event"
    },
    {
      "anonymous": false,
      "inputs": [
        {
          "indexed": false,
          "name": "x",
          "type": "uint256"
        },
        {
          "indexed": false,
          "name": "y",
          "type": "uint256"
        },
        {
          "indexed": false,
          "name": "z",
          "type": "address"
        }
      ],
      "name": "Debug",
      "type": "event"
    },
    {
      "constant": false,
      "inputs": [
        {
          "name": "_cryptoCards",
          "type": "address"
        }
      ],
      "name": "setCryptoCards",
      "outputs": [],
      "payable": false,
      "stateMutability": "nonpayable",
      "type": "function"
    },
    {
      "constant": false,
      "inputs": [
        {
          "name": "root",
          "type": "bytes32"
        }
      ],
      "name": "submitBlock",
      "outputs": [],
      "payable": false,
      "stateMutability": "nonpayable",
      "type": "function"
    },
    {
      "constant": false,
      "inputs": [
        {
          "name": "prevTx",
          "type": "bytes"
        },
        {
          "name": "exitingTx",
          "type": "bytes"
        },
        {
          "name": "exitingTxSig",
          "type": "bytes"
        }
      ],
      "name": "startExit",
      "outputs": [],
      "payable": false,
      "stateMutability": "nonpayable",
      "type": "function"
    },
    {
      "constant": false,
      "inputs": [],
      "name": "finalizeExits",
      "outputs": [],
      "payable": false,
      "stateMutability": "nonpayable",
      "type": "function"
    },
    {
      "constant": false,
      "inputs": [],
      "name": "withdraw",
      "outputs": [],
      "payable": false,
      "stateMutability": "nonpayable",
      "type": "function"
    },
    {
      "constant": true,
      "inputs": [],
      "name": "getDepositBlock",
      "outputs": [
        {
          "name": "",
          "type": "uint256"
        }
      ],
      "payable": false,
      "stateMutability": "view",
      "type": "function"
    },
    {
      "constant": false,
      "inputs": [
        {
          "name": "_from",
          "type": "address"
        },
        {
          "name": "_tokenId",
          "type": "uint256"
        },
        {
          "name": "_data",
          "type": "bytes"
        }
      ],
      "name": "onERC721Received",
      "outputs": [
        {
          "name": "",
          "type": "bytes4"
        }
      ],
      "payable": false,
      "stateMutability": "nonpayable",
      "type": "function"
    }
  ],
  "bytecode": "0x608060405234801561001057600080fd5b5060008054600160a060020a03191633600160a060020a03161790556103e8600381905560045560016005554360065561004861008a565b604051809103906000f080158015610064573d6000803e3d6000fd5b5060018054600160a060020a031916600160a060020a039290921691909117905561009a565b604051610685806113f383390190565b61134a806100a96000396000f3006080604052600436106100c15763ffffffff60e060020a600035041663117546c581146100c657806327276860146100ed5780632dfdf0b514610127578063329be5d51461013c57806338a9e0bc1461015d5780633ccfd60b1461017257806344dc4970146101875780637a95f1e8146101ab578063a98c7f2c146101c0578063baa47694146101d5578063bcd59261146101ed578063bf7e214f14610202578063c6ab44cd14610233578063f0b9e5ba14610248578063f95643b1146102e6575b600080fd5b3480156100d257600080fd5b506100db610317565b60408051918252519081900360200190f35b3480156100f957600080fd5b50610125602460048035828101929082013591813580830192908201359160443591820191013561031d565b005b34801561013357600080fd5b506100db610571565b34801561014857600080fd5b50610125600160a060020a0360043516610577565b34801561016957600080fd5b506100db6105c1565b34801561017e57600080fd5b506101256105c7565b34801561019357600080fd5b506100db600160a060020a0360043516602435610708565b3480156101b757600080fd5b506100db610738565b3480156101cc57600080fd5b506100db61073e565b3480156101e157600080fd5b50610125600435610744565b3480156101f957600080fd5b506100db6107d2565b34801561020e57600080fd5b50610217610802565b60408051600160a060020a039092168252519081900360200190f35b34801561023f57600080fd5b50610125610811565b34801561025457600080fd5b50604080516020600460443581810135601f81018490048402850184019095528484526102b1948235600160a060020a0316946024803595369594606494920191908190840183828082843750949750610def9650505050505050565b604080517fffffffff000000000000000000000000000000000000000000000000000000009092168252519081900360200190f35b3480156102f257600080fd5b506102fe600435610e41565b6040805192835260208301919091528051918290030190f35b60065481565b610325611290565b600080600080610333611290565b600061037960038c8c8080601f01602080910402602001604051908101604052809392919081815260200183838082843750949594505063ffffffff610e5a1692505050565b80516020808301516040808501518151858152938401839052600160a060020a038116848301529051949b5092995097509095507fe39a03b35f4680078b451ad193ed4cebf0b0a88881da365dd23ff18d32ef4a79919081900360600190a1600354868115156103e557fe5b0615610429576040805160008152602081018790526c01000000000000000000000000600160a060020a038716028183015290519081900360540190209250610470565b61046d60038e8e8080601f01602080910402602001604051908101604052809392919081815260200183838082843750949594505063ffffffff610e5a1692505050565b91505b50600154604080517f90b5561d0000000000000000000000000000000000000000000000000000000081526305f5e10088026127108802016004820181905291519192600160a060020a0316916390b5561d9160248082019260009290919082900301818387803b1580156104e457600080fd5b505af11580156104f8573d6000803e3d6000fd5b505060408051606081018252600160a060020a0397881681526020808201998a52428284019081526000968752600291829052929095209051815473ffffffffffffffffffffffffffffffffffffffff191698169790971787559651600187015550509351929093019190915550505050505050505050565b60075481565b60005433600160a060020a0390811691161461059257600080fd5b600a805473ffffffffffffffffffffffffffffffffffffffff1916600160a060020a0392909216919091179055565b60035481565b600160a060020a0333166000908152600960209081526040808320805482518185028101850190935280835260609493849392919083018282801561062b57602002820191906000526020600020905b815481526020019060010190808311610617575b5050505050925082519150600090505b8181101561070357600a548351600160a060020a03909116906342842e0e903090339087908690811061066a57fe5b906020019060200201516040518463ffffffff1660e060020a0281526004018084600160a060020a0316600160a060020a0316815260200183600160a060020a0316600160a060020a031681526020018281526020019350505050600060405180830381600087803b1580156106df57600080fd5b505af11580156106f3573d6000803e3d6000fd5b50506001909201915061063b9050565b505050565b60096020528160005260406000208181548110151561072357fe5b90600052602060002001600091509150505481565b60045481565b60055481565b60005433600160a060020a0390811691161461075f57600080fd5b600680546107729163ffffffff610ef516565b43101561077e57600080fd5b6040805180820182528281524260208083019182526004805460009081526008909252939020915182555160019091015560035490546107c39163ffffffff610ef516565b60045550600160055543600655565b60006107fd6005546107f1600354600454610f0890919063ffffffff16565b9063ffffffff610ef516565b905090565b600054600160a060020a031681565b600061081b6112bb565b6001546040805160e060020a63bda1504b0281529051600092600160a060020a03169163bda1504b91600480830192602092919082900301818787803b15801561086457600080fd5b505af1158015610878573d6000803e3d6000fd5b505050506040513d602081101561088e57600080fd5b5051116108fc57604080517f08c379a000000000000000000000000000000000000000000000000000000000815260206004820152601060248201527f6578697420717565756520656d70747900000000000000000000000000000000604482015290519081900360640190fd5b600160009054906101000a9004600160a060020a0316600160a060020a031663d6362e976040518163ffffffff1660e060020a028152600401602060405180830381600087803b15801561094f57600080fd5b505af1158015610963573d6000803e3d6000fd5b505050506040513d602081101561097957600080fd5b505160008181526002602081815260409283902083516060810185528154600160a060020a03168152600182015492810192909252909101549181019190915290925090505b6001546040805160e060020a63bda1504b0281529051600092600160a060020a03169163bda1504b91600480830192602092919082900301818787803b158015610a0857600080fd5b505af1158015610a1c573d6000803e3d6000fd5b505050506040513d6020811015610a3257600080fd5b5051118015610a49575062093a8081604001514203115b15610deb578051600160a060020a03161515610c2657600160009054906101000a9004600160a060020a0316600160a060020a031663b07576ac6040518163ffffffff1660e060020a028152600401602060405180830381600087803b158015610ab257600080fd5b505af1158015610ac6573d6000803e3d6000fd5b505050506040513d6020811015610adc57600080fd5b50506001546040805160e060020a63bda1504b0281529051600160a060020a039092169163bda1504b916004808201926020929091908290030181600087803b158015610b2857600080fd5b505af1158015610b3c573d6000803e3d6000fd5b505050506040513d6020811015610b5257600080fd5b50511515610b5f57610deb565b600160009054906101000a9004600160a060020a0316600160a060020a031663d6362e976040518163ffffffff1660e060020a028152600401602060405180830381600087803b158015610bb257600080fd5b505af1158015610bc6573d6000803e3d6000fd5b505050506040513d6020811015610bdc57600080fd5b505160008181526002602081815260409283902083516060810185528154600160a060020a03168152600182015492810192909252909101549181019190915290925090506109bf565b8051600160a060020a03908116600090815260096020908152604080832082860180518254600181018455928652948490209091019390935584519251815187815293909416918301919091528181019290925290517fbd50b348996c7886c27e252b1b158f20c6cb5f036bd5c1b1039f1111a0ba78829181900360600190a1805160208083015160408051600160a060020a0390941684529183015280517fcb9ff625f589aa0e687e6e3e13884bf647901a8593d2d9de711f09cc2f3a52a49281900390910190a1600160009054906101000a9004600160a060020a0316600160a060020a031663b07576ac6040518163ffffffff1660e060020a028152600401602060405180830381600087803b158015610d4257600080fd5b505af1158015610d56573d6000803e3d6000fd5b505050506040513d6020811015610d6c57600080fd5b50506000828152600260208181526040808420805473ffffffffffffffffffffffffffffffffffffffff19168155600180820186905593018490559154825160e060020a63bda1504b0281529251600160a060020a039091169363bda1504b936004808201949392918390030190829087803b158015610b2857600080fd5b5050565b600a5460009033600160a060020a03908116911614610e0d57600080fd5b610e18848484610f1a565b507ff0b9e5ba000000000000000000000000000000000000000000000000000000009392505050565b6008602052600090815260409020805460019091015482565b610e62611290565b6060610e76610e7085611058565b84611086565b9050606060405190810160405280610ea5836000815181101515610e9657fe5b90602001906020020151611114565b8152602001610ebc836001815181101515610e9657fe5b8152602001610ee2836002815181101515610ed357fe5b90602001906020020151611138565b600160a060020a03169052949350505050565b81810182811015610f0257fe5b92915050565b600082821115610f1457fe5b50900390565b604080516000808252602082018590526c01000000000000000000000000600160a060020a0387160282840152915190819003605401902090610f5b6107d2565b6040805180820182528481524260208083019182526000858152600890915292909220905181559051600191820155600454919250610fa0919063ffffffff610ef516565b60058190555084600160a060020a03167f87de3cfd3de44d9b830a98f5554f3ff79f1fafd7b3579d113ce92d82d3def2a185856040518083815260200180602001828103825283818151815260200191508051906020019080838360005b83811015611016578181015183820152602001610ffe565b50505050905090810190601f1680156110435780820380516001836020036101000a031916815260200191505b50935050505060405180910390a25050505050565b6110606112e6565b5080516040805180820190915260208084018083529082018390529091905b5050919050565b60606110906112fd565b6000836040519080825280602002602001820160405280156110cc57816020015b6110b96112e6565b8152602001906001900390816110b15790505b5092506110d885611160565b91505b8381101561110c576110ec82611185565b83828151811015156110fa57fe5b602090810290910101526001016110db565b505092915050565b6000806000611122846111b7565b90516020919091036101000a9004949350505050565b6000806000611146846111b7565b50516c010000000000000000000000009004949350505050565b6111686112fd565b60006111738361121a565b83519383529092016020820152919050565b61118d6112e6565b6020820151600061119d82611260565b828452602080850182905292019390910192909252919050565b805180516000918291821a908260808310156111d95781945060019350611212565b60b88310156111f75760018660200151039350816001019450611212565b60b78303905080600187602001510303935080820160010194505b505050915091565b8051805160009190821a906080821015611237576000925061107f565b60b8821080611252575060c08210158015611252575060f882105b1561107f576001925061107f565b8051600090811a6080811015611279576001915061128a565b60b881101561128a57607e19810191505b50919050565b60606040519081016040528060008152602001600081526020016000600160a060020a031681525090565b6060604051908101604052806000600160a060020a0316815260200160008152602001600081525090565b604080518082019091526000808252602082015290565b6060604051908101604052806113116112e6565b81526020016000815250905600a165627a7a72305820940598dd6a1c0a418500a9d3db733ff650448eb9e83a6316c24f0d854e2ea7a90029608060405234801561001057600080fd5b5060008054600160a060020a03191633600160a060020a031617815560408051602081019091529081526100479060019081610052565b5060006002556100bf565b828054828255906000526020600020908101928215610092579160200282015b82811115610092578251829060ff16905591602001919060010190610072565b5061009e9291506100a2565b5090565b6100bc91905b8082111561009e57600081556001016100a8565b90565b6105b7806100ce6000396000f30060806040526004361061006c5763ffffffff7c01000000000000000000000000000000000000000000000000000000006000350416632dcdcd0c811461007157806390b5561d1461009b578063b07576ac146100b5578063bda1504b146100ca578063d6362e97146100df575b600080fd5b34801561007d57600080fd5b506100896004356100f4565b60408051918252519081900360200190f35b3480156100a757600080fd5b506100b36004356101c3565b005b3480156100c157600080fd5b50610089610241565b3480156100d657600080fd5b50610089610324565b3480156100eb57600080fd5b5061008961032a565b600060025461011e600161011260028661034c90919063ffffffff16565b9063ffffffff61037b16565b111561013c5761013582600263ffffffff61034c16565b90506101be565b60016101538161011285600263ffffffff61034c16565b8154811061015d57fe5b600091825260209091200154600161017c84600263ffffffff61034c16565b8154811061018657fe5b906000526020600020015410156101a85761013582600263ffffffff61034c16565b610135600161011284600263ffffffff61034c16565b919050565b6000543373ffffffffffffffffffffffffffffffffffffffff9081169116146101eb57600080fd5b60018054808201825560008290527fb10e2d527612073b26eecdfd717e6a320cf44b4afac2b0732d9fcbe2b7fa0cf6018290556002546102309163ffffffff61037b16565b600281905561023e90610388565b50565b6000805481903373ffffffffffffffffffffffffffffffffffffffff90811691161461026c57600080fd5b600180548190811061027a57fe5b90600052602060002001549050600160025481548110151561029857fe5b90600052602060002001546001808154811015156102b257fe5b906000526020600020018190555060016002548154811015156102d157fe5b60009182526020822001556002546102f090600163ffffffff61045c16565b6002556102fd600161046e565b600180546103109163ffffffff61045c16565b61031b600182610552565b508091505b5090565b60025481565b600060018081548110151561033b57fe5b906000526020600020015490505b90565b600082151561035d57506000610375565b5081810281838281151561036d57fe5b041461037557fe5b92915050565b8181018281101561037557fe5b6001805482916000918390811061039b57fe5b906000526020600020015490505b60016103bc84600263ffffffff61053d16565b815481106103c657fe5b90600052602060002001548110156104335760016103eb84600263ffffffff61053d16565b815481106103f557fe5b906000526020600020015460018481548110151561040f57fe5b60009182526020909120015561042c83600263ffffffff61053d16565b92506103a9565b828214610457578060018481548110151561044a57fe5b6000918252602090912001555b505050565b60008282111561046857fe5b50900390565b600080600083925060018481548110151561048557fe5b9060005260206000200154915061049b846100f4565b90505b60025481111580156104c7575060018054829081106104b957fe5b906000526020600020015482115b156105135760018054829081106104da57fe5b90600052602060002001546001858154811015156104f457fe5b60009182526020909120015592508261050c816100f4565b905061049e565b838314610537578160018581548110151561052a57fe5b6000918252602090912001555b50505050565b6000818381151561054a57fe5b049392505050565b8154818355818111156104575760008381526020902061045791810190830161034991905b8082111561032057600081556001016105775600a165627a7a723058202ac7e810b9be978ad2cec5acace74a311e9c0872c4380023edc3085e1684ae020029",
  "source": "pragma solidity ^0.4.22;\n\nimport 'zeppelin-solidity/contracts/token/ERC721/ERC721Receiver.sol';\nimport 'zeppelin-solidity/contracts/math/SafeMath.sol';\nimport './Queue/PriorityQueue.sol';\nimport './Cards.sol';\nimport './ERC721PlasmaRLP.sol';\n\ncontract RootChain is ERC721Receiver {\n    /*\n     * Events\n     */\n    event Deposit(address indexed depositor, uint256 tokenId, bytes data);\n    event CanWithdraw(address  owner, uint  tokenId);\n    event FinalizedExit(uint priority, address  owner, uint256  tokenId);\n\n    using SafeMath for uint256;\n    using ERC721PlasmaRLP for bytes;\n    using ERC721PlasmaRLP for ERC721PlasmaRLP.txData;\n\n    /*\n     * Storage\n     */\n\n    address public authority;\n\n    // exits\n    PriorityQueue exitsQueue;\n    mapping(uint256 => Exit) exits;\n    struct Exit {\n        address owner;\n        uint tokenId;\n        uint256 created_at;\n    }\n\n    // child chain\n    uint256 public childBlockInterval;\n    uint256 public currentChildBlock;\n    uint256 public currentDepositBlock;\n    uint256 public lastParentBlock;\n    struct childBlock {\n        bytes32 root;\n        uint256 created_at;\n    }\n\n    uint public depositCount;\n    mapping(uint => childBlock) public childChain;\n    mapping(address => uint256[]) public pendingWithdrawals; //  the pending cards to withdraw\n    CryptoCards cryptoCards;\n\n    /*\n     * Modifiers\n     */\n    modifier isAuthority() {\n        require(msg.sender == authority);\n        _;\n    }\n\n    constructor () public{\n        authority = msg.sender;\n\n\t\tchildBlockInterval = 1000;\n        currentChildBlock = childBlockInterval;\n        currentDepositBlock = 1;\n        lastParentBlock = block.number; // to ensure no chain reorgs\n\n        exitsQueue = new PriorityQueue();\n    }\n\n    function setCryptoCards(CryptoCards _cryptoCards) isAuthority public {\n        cryptoCards = _cryptoCards;\n    }\n\n    /// @param root 32 byte merkleRoot of ChildChain block\n    /// @notice childChain blocks can only be submitted at most every 6 root chain blocks\n    function submitBlock(bytes32 root)\n        public\n        isAuthority\n    {\n        // ensure finality on previous blocks before submitting another\n        require(block.number >= lastParentBlock.add(6));\n\n        childChain[currentChildBlock] = childBlock({\n            root: root,\n            created_at: block.timestamp\n        });\n\n        currentChildBlock = currentChildBlock.add(childBlockInterval);\n        currentDepositBlock = 1;\n        lastParentBlock = block.number;\n\t}\n\n\n    /// @dev Allows anyone to deposit funds into the Plasma chain, called when contract receives ERC721\n    function deposit(address from, uint uid, bytes _data)\n        private\n    {\n        // TODO: Serialize, do whatever with _data for UTXO/ChainID transfer\n\n        bytes32 root = keccak256(uint256(0), uid, from);\n        uint256 position = getDepositBlock();\n\n        childChain[position] = childBlock({\n            root: root,\n            created_at: block.timestamp\n        });\n\n        currentDepositBlock = currentChildBlock.add(1);\n        emit Deposit(from, uid, _data); // create a utxo at `uid`\n    }\n\n    // Function still WIP\n    /// Concept: Pass in the transaction that is being exited along with a reference to a previous valid transaction\n    /// IF the previous transaction has valid merkle proof and was included in the specified block , then check that the signature on the previous transaction's new_owner is valid for the ecrecover for the current transaction. if valid, add to texits \n    // https://github.com/FourthState/plasma-mvp-rootchain/blob/master/contracts/RootChain/RootChain.sol#L165\n    event Debug(uint x, uint y, address z);\n    function startExit(\n        bytes prevTx,\n        bytes exitingTx, \n        bytes exitingTxSig\n        /* bytes prevTxInclusionProof\n        bytes exitingTxInclusionProof*/\n    ) \n        external\n    {\n        ERC721PlasmaRLP.txData memory exitingTxData = exitingTx.createExitingTx(3);\n        uint prevBlock = exitingTxData.prevBlock;\n        uint uid = exitingTxData.uid;\n        address owner = exitingTxData.owner;\n        emit Debug(prevBlock, uid, owner);\n\n        if (prevBlock % childBlockInterval != 0 ) { // if exiting a deposit transaction, no need to provide a previous tx \n            bytes32 txHash = keccak256(uint256(0), uid, owner);\n            // require(txHash == childChain[prevBlock].root);\n        } else { \n            ERC721PlasmaRLP.txData memory prevTxData = prevTx.createExitingTx(3);\n            exitingTxSig;\n            // Check that the prevTx.owner is the one who signed the exitingTx\n\n            // Check that both transactions have been included in a block\n\n        }\n\n\n        uint priority = prevBlock * 100000000  + uid * 10000;\n            // Also need to check signatures that match. It's OK if previous tx is invalid since someone will be able to challenge that exit as specified in the spec. \n\n        exitsQueue.insert(priority);\n        exits[priority] = Exit({\n            owner: owner, \n            tokenId: uid, \n            created_at: block.timestamp\n        });\n    }\n\n    function finalizeExits() public {\n        require(exitsQueue.currentSize() > 0, \"exit queue empty\");\n\n        uint256 priority = exitsQueue.getMin();\n        Exit memory currentExit = exits[priority];\n\n        // finalize exits that are older than `1 week`.\n        while (exitsQueue.currentSize() > 0 && \n               (block.timestamp - currentExit.created_at) > 1 weeks) {\n            // this can occur if challengeExit is sucessful on an exit\n            if (currentExit.owner == address(0)) { // handles exits\n                exitsQueue.delMin();\n                if (exitsQueue.currentSize() == 0) return; // no revert because we wwant to keep the delete\n\n                // move onto the next oldest exit\n                priority = exitsQueue.getMin();\n                currentExit = exits[priority];\n                continue; // Prevent incorrect processing of deleted exits.\n            }\n\n            // add token Id to the ones the owner can withdraw\n            pendingWithdrawals[currentExit.owner].push(currentExit.tokenId);\n            emit FinalizedExit(priority, currentExit.owner, currentExit.tokenId);\n            emit CanWithdraw(currentExit.owner, currentExit.tokenId);\n\n            // delete the finalized exit\n            exitsQueue.delMin();\n            delete exits[priority];\n\n            // move onto the next oldest exit\n            if (exitsQueue.currentSize() == 0) {\n                return;\n            }\n            priority = exitsQueue.getMin();\n            currentExit = exits[priority];\n        }\n    }\n\n    // maybe add a count paramter to add a max amount of tokens the owner can withdraw\n    // a pop function would be very helpful here for popping a certain number of tokens\n    function withdraw() external {\n        uint[] memory tokens = pendingWithdrawals[msg.sender];\n        uint length = tokens.length;\n        // for each token that is confirmed for withdrawal let the owner get it\n        for (uint i = 0 ; i < length ; i ++ ) {\n            cryptoCards.safeTransferFrom(address(this), msg.sender, tokens[i]);\n        }\n    }\n\n    function getDepositBlock() public view returns (uint256) {\n        return currentChildBlock.sub(childBlockInterval).add(currentDepositBlock);\n    }\n\n    /// receiver for erc721 to trigger a deposit\n    function onERC721Received(address _from, uint256 _tokenId, bytes _data) \n        public \n        returns(bytes4) \n    {\n        require(msg.sender == address(cryptoCards)); // can only be called by the associated cryptocards contract. \n        deposit(_from, _tokenId, _data);\n        return ERC721_RECEIVED;\n    }\n\n\n\n}\n\n",
  "sourcePath": "/home/opsec/loom/PLASMA-RESEARCH/cash-erc721/server/contracts/RootChain.sol",
  "compiler": {
    "name": "solc",
    "version": "0.4.23+commit.124ca40d.Emscripten.clang"
  },
  "schemaVersion": "2.0.0",
  "updatedAt": "2018-05-14T22:19:57.783Z"
}