{
  "contractName": "RootChain",
  "abi": [
    {
      "constant": true,
      "inputs": [],
      "name": "lastParentBlock",
      "outputs": [
        {
          "name": "",
          "type": "uint256"
        }
      ],
      "payable": false,
      "stateMutability": "view",
      "type": "function"
    },
    {
      "constant": true,
      "inputs": [],
      "name": "depositCount",
      "outputs": [
        {
          "name": "",
          "type": "uint256"
        }
      ],
      "payable": false,
      "stateMutability": "view",
      "type": "function"
    },
    {
      "constant": true,
      "inputs": [],
      "name": "childBlockInterval",
      "outputs": [
        {
          "name": "",
          "type": "uint256"
        }
      ],
      "payable": false,
      "stateMutability": "view",
      "type": "function"
    },
    {
      "constant": true,
      "inputs": [
        {
          "name": "",
          "type": "uint256"
        }
      ],
      "name": "defaultHashes",
      "outputs": [
        {
          "name": "",
          "type": "bytes32"
        }
      ],
      "payable": false,
      "stateMutability": "view",
      "type": "function"
    },
    {
      "constant": true,
      "inputs": [
        {
          "name": "leaf",
          "type": "bytes32"
        },
        {
          "name": "index",
          "type": "uint64"
        },
        {
          "name": "proof",
          "type": "bytes"
        }
      ],
      "name": "getRoot",
      "outputs": [
        {
          "name": "",
          "type": "bytes32"
        }
      ],
      "payable": false,
      "stateMutability": "view",
      "type": "function"
    },
    {
      "constant": true,
      "inputs": [],
      "name": "NUM_COINS",
      "outputs": [
        {
          "name": "",
          "type": "uint64"
        }
      ],
      "payable": false,
      "stateMutability": "view",
      "type": "function"
    },
    {
      "constant": true,
      "inputs": [],
      "name": "currentChildBlock",
      "outputs": [
        {
          "name": "",
          "type": "uint256"
        }
      ],
      "payable": false,
      "stateMutability": "view",
      "type": "function"
    },
    {
      "constant": true,
      "inputs": [],
      "name": "currentDepositBlock",
      "outputs": [
        {
          "name": "",
          "type": "uint256"
        }
      ],
      "payable": false,
      "stateMutability": "view",
      "type": "function"
    },
    {
      "constant": true,
      "inputs": [
        {
          "name": "",
          "type": "uint64"
        }
      ],
      "name": "coins",
      "outputs": [
        {
          "name": "uid",
          "type": "uint64"
        },
        {
          "name": "denomination",
          "type": "uint32"
        },
        {
          "name": "owner",
          "type": "address"
        },
        {
          "name": "state",
          "type": "uint8"
        }
      ],
      "payable": false,
      "stateMutability": "view",
      "type": "function"
    },
    {
      "constant": true,
      "inputs": [
        {
          "name": "",
          "type": "uint256"
        }
      ],
      "name": "exitSlots",
      "outputs": [
        {
          "name": "",
          "type": "uint64"
        }
      ],
      "payable": false,
      "stateMutability": "view",
      "type": "function"
    },
    {
      "constant": true,
      "inputs": [],
      "name": "authority",
      "outputs": [
        {
          "name": "",
          "type": "address"
        }
      ],
      "payable": false,
      "stateMutability": "view",
      "type": "function"
    },
    {
      "constant": true,
      "inputs": [
        {
          "name": "",
          "type": "uint64"
        }
      ],
      "name": "exits",
      "outputs": [
        {
          "name": "owner",
          "type": "address"
        },
        {
          "name": "created_at",
          "type": "uint256"
        }
      ],
      "payable": false,
      "stateMutability": "view",
      "type": "function"
    },
    {
      "constant": true,
      "inputs": [
        {
          "name": "leaf",
          "type": "bytes32"
        },
        {
          "name": "root",
          "type": "bytes32"
        },
        {
          "name": "tokenID",
          "type": "uint64"
        },
        {
          "name": "proof",
          "type": "bytes"
        }
      ],
      "name": "checkMembership",
      "outputs": [
        {
          "name": "",
          "type": "bool"
        }
      ],
      "payable": false,
      "stateMutability": "view",
      "type": "function"
    },
    {
      "constant": true,
      "inputs": [
        {
          "name": "",
          "type": "uint256"
        }
      ],
      "name": "childChain",
      "outputs": [
        {
          "name": "root",
          "type": "bytes32"
        },
        {
          "name": "created_at",
          "type": "uint256"
        }
      ],
      "payable": false,
      "stateMutability": "view",
      "type": "function"
    },
    {
      "inputs": [],
      "payable": false,
      "stateMutability": "nonpayable",
      "type": "constructor"
    },
    {
      "anonymous": false,
      "inputs": [
        {
          "indexed": true,
          "name": "slot",
          "type": "uint64"
        },
        {
          "indexed": false,
          "name": "depositBlockNumber",
          "type": "uint256"
        },
        {
          "indexed": false,
          "name": "denomination",
          "type": "uint64"
        },
        {
          "indexed": true,
          "name": "from",
          "type": "address"
        }
      ],
      "name": "Deposit",
      "type": "event"
    },
    {
      "anonymous": false,
      "inputs": [
        {
          "indexed": true,
          "name": "slot",
          "type": "uint64"
        },
        {
          "indexed": true,
          "name": "owner",
          "type": "address"
        },
        {
          "indexed": false,
          "name": "created_at",
          "type": "uint256"
        }
      ],
      "name": "StartedExit",
      "type": "event"
    },
    {
      "anonymous": false,
      "inputs": [
        {
          "indexed": true,
          "name": "slot",
          "type": "uint64"
        }
      ],
      "name": "ChallengedExit",
      "type": "event"
    },
    {
      "anonymous": false,
      "inputs": [
        {
          "indexed": true,
          "name": "slot",
          "type": "uint64"
        },
        {
          "indexed": false,
          "name": "owner",
          "type": "address"
        }
      ],
      "name": "FinalizedExit",
      "type": "event"
    },
    {
      "constant": false,
      "inputs": [
        {
          "name": "_cryptoCards",
          "type": "address"
        }
      ],
      "name": "setCryptoCards",
      "outputs": [],
      "payable": false,
      "stateMutability": "nonpayable",
      "type": "function"
    },
    {
      "constant": false,
      "inputs": [
        {
          "name": "root",
          "type": "bytes32"
        }
      ],
      "name": "submitBlock",
      "outputs": [],
      "payable": false,
      "stateMutability": "nonpayable",
      "type": "function"
    },
    {
      "constant": false,
      "inputs": [
        {
          "name": "slot",
          "type": "uint64"
        },
        {
          "name": "prevTxBytes",
          "type": "bytes"
        },
        {
          "name": "exitingTxBytes",
          "type": "bytes"
        },
        {
          "name": "prevTxInclusionProof",
          "type": "bytes"
        },
        {
          "name": "exitingTxInclusionProof",
          "type": "bytes"
        },
        {
          "name": "sigs",
          "type": "bytes"
        },
        {
          "name": "prevTxIncBlock",
          "type": "uint256"
        },
        {
          "name": "exitingTxIncBlock",
          "type": "uint256"
        }
      ],
      "name": "startExit",
      "outputs": [],
      "payable": false,
      "stateMutability": "nonpayable",
      "type": "function"
    },
    {
      "constant": true,
      "inputs": [
        {
          "name": "sigs",
          "type": "bytes"
        },
        {
          "name": "i",
          "type": "uint256"
        }
      ],
      "name": "getSig",
      "outputs": [
        {
          "name": "",
          "type": "bytes"
        }
      ],
      "payable": false,
      "stateMutability": "pure",
      "type": "function"
    },
    {
      "constant": false,
      "inputs": [],
      "name": "finalizeExits",
      "outputs": [],
      "payable": false,
      "stateMutability": "nonpayable",
      "type": "function"
    },
    {
      "constant": false,
      "inputs": [
        {
          "name": "slot",
          "type": "uint64"
        },
        {
          "name": "challengingTransaction",
          "type": "bytes"
        },
        {
          "name": "proof",
          "type": "bytes"
        }
      ],
      "name": "challengeBefore",
      "outputs": [],
      "payable": false,
      "stateMutability": "nonpayable",
      "type": "function"
    },
    {
      "constant": false,
      "inputs": [
        {
          "name": "slot",
          "type": "uint64"
        },
        {
          "name": "challengingTransaction",
          "type": "bytes"
        },
        {
          "name": "proof",
          "type": "bytes"
        }
      ],
      "name": "challengeBetween",
      "outputs": [],
      "payable": false,
      "stateMutability": "nonpayable",
      "type": "function"
    },
    {
      "constant": false,
      "inputs": [
        {
          "name": "slot",
          "type": "uint64"
        },
        {
          "name": "challengingTransaction",
          "type": "bytes"
        },
        {
          "name": "proof",
          "type": "bytes"
        }
      ],
      "name": "challengeAfter",
      "outputs": [],
      "payable": false,
      "stateMutability": "nonpayable",
      "type": "function"
    },
    {
      "constant": false,
      "inputs": [
        {
          "name": "slot",
          "type": "uint64"
        },
        {
          "name": "challengingTransaction",
          "type": "bytes"
        },
        {
          "name": "proof",
          "type": "bytes"
        }
      ],
      "name": "respondChallengeBefore",
      "outputs": [],
      "payable": false,
      "stateMutability": "nonpayable",
      "type": "function"
    },
    {
      "constant": false,
      "inputs": [
        {
          "name": "slot",
          "type": "uint64"
        }
      ],
      "name": "withdraw",
      "outputs": [],
      "payable": false,
      "stateMutability": "nonpayable",
      "type": "function"
    },
    {
      "constant": true,
      "inputs": [],
      "name": "getDepositBlock",
      "outputs": [
        {
          "name": "",
          "type": "uint256"
        }
      ],
      "payable": false,
      "stateMutability": "view",
      "type": "function"
    },
    {
      "constant": false,
      "inputs": [
        {
          "name": "_from",
          "type": "address"
        },
        {
          "name": "_uid",
          "type": "uint256"
        },
        {
          "name": "_data",
          "type": "bytes"
        }
      ],
      "name": "onERC721Received",
      "outputs": [
        {
          "name": "",
          "type": "bytes4"
        }
      ],
      "payable": false,
      "stateMutability": "nonpayable",
      "type": "function"
    }
  ],
  "bytecode": "0x60806040523480156200001157600080fd5b507f290decd9548b62a8d60345a988386fc84ba6bc95484008f6362f93160ef3e5636000556200004d6001604064010000000062000079810204565b60408054600160a060020a031916331790556103e860458190556046556001604755436048556200015e565b815b8160ff168160ff1610156200015957600060ff600019830116604081106200009f57fe5b0154600060ff60001984011660408110620000b657fe5b0154604080516020808201949094528082019290925280518083038201815260609092019081905281519192909182918401908083835b602083106200010e5780518252601f199092019160209182019101620000ed565b6001836020036101000a038019825116818451168082178552505050505050905001915050604051809103902060008260ff166040811015156200014e57fe5b01556001016200007b565b505050565b6122d1806200016e6000396000f3006080604052600436106101535763ffffffff7c0100000000000000000000000000000000000000000000000000000000600035041663117546c58114610158578063245cab331461017f5780632c9ecf0a1461024f5780632dfdf0b51461028b578063329be5d5146102a057806338a9e0bc146102c157806348419ad8146102d6578063509a7e54146102ee5780635b6a6efb1461035857806366e30d97146103bc578063750f0acc146103ee578063759b49291461024f5780637a95f1e814610410578063813b0b8614610425578063a888683f1461024f578063a98c7f2c1461045f578063b8bdaf6214610474578063baa47694146104eb578063bcd5926114610503578063bcd5df3914610518578063bf7e214f14610530578063c6ab44cd14610561578063d6463d4014610576578063f0b9e5ba146105bb578063f586df6514610659578063f95643b1146106da575b600080fd5b34801561016457600080fd5b5061016d61070b565b60408051918252519081900360200190f35b34801561018b57600080fd5b506040805160206004803580820135601f81018490048402850184019095528484526101da94369492936024939284019190819084018382808284375094975050933594506107119350505050565b6040805160208082528351818301528351919283929083019185019080838360005b838110156102145781810151838201526020016101fc565b50505050905090810190601f1680156102415780820380516001836020036101000a031916815260200191505b509250505060405180910390f35b34801561025b57600080fd5b506102896004803567ffffffffffffffff169060248035808201929081013591604435908101910135610729565b005b34801561029757600080fd5b5061016d61086d565b3480156102ac57600080fd5b50610289600160a060020a0360043516610873565b3480156102cd57600080fd5b5061016d6108b9565b3480156102e257600080fd5b5061016d6004356108bf565b3480156102fa57600080fd5b50604080516020600460443581810135601f810184900484028501840190955284845261016d948235946024803567ffffffffffffffff16953695946064949201919081908401838280828437509497506108d39650505050505050565b34801561036457600080fd5b506102896004803567ffffffffffffffff16906024803580820192908101359160443580820192908101359160643580820192908101359160843580820192908101359160a43590810191013560c43560e435610ac4565b3480156103c857600080fd5b506103d1610e74565b6040805167ffffffffffffffff9092168252519081900360200190f35b3480156103fa57600080fd5b5061028967ffffffffffffffff60043516610e84565b34801561041c57600080fd5b5061016d611035565b34801561043157600080fd5b506102896004803567ffffffffffffffff16906024803580820192908101359160443590810191013561103b565b34801561046b57600080fd5b5061016d6110e9565b34801561048057600080fd5b5061049667ffffffffffffffff600435166110ef565b6040805167ffffffffffffffff8616815263ffffffff85166020820152600160a060020a03841691810191909152606081018260048111156104d457fe5b60ff16815260200194505050505060405180910390f35b3480156104f757600080fd5b50610289600435611145565b34801561050f57600080fd5b5061016d6111b0565b34801561052457600080fd5b506103d16004356111e0565b34801561053c57600080fd5b5061054561121c565b60408051600160a060020a039092168252519081900360200190f35b34801561056d57600080fd5b5061028961122b565b34801561058257600080fd5b5061059867ffffffffffffffff60043516611336565b60408051600160a060020a03909316835260208301919091528051918290030190f35b3480156105c757600080fd5b50604080516020600460443581810135601f8101849004840285018401909552848452610624948235600160a060020a031694602480359536959460649492019190819084018382808284375094975061135b9650505050505050565b604080517fffffffff000000000000000000000000000000000000000000000000000000009092168252519081900360200190f35b34801561066557600080fd5b50604080516020601f6064356004818101359283018490048402850184019095528184526106c694803594602480359567ffffffffffffffff6044351695369560849493019181908401838280828437509497506113ab9650505050505050565b604080519115158252519081900360200190f35b3480156106e657600080fd5b506106f26004356113c5565b6040805192835260208301919091528051918290030190f35b60485481565b6060610722838360420260426113de565b9392505050565b600167ffffffffffffffff861660009081526044602052604090206001015460ff16600481111561075657fe5b146107ab576040805160e560020a62461bcd02815260206004820152601560248201527f436f696e206e6f74206265696e67206578697465640000000000000000000000604482015290519081900360640190fd5b67ffffffffffffffff85166000818152604260205260408120805473ffffffffffffffffffffffffffffffffffffffff19168155600101556041805490919081106107f257fe5b600091825260208083206004830401805467ffffffffffffffff60086003958616026101000a810219909116909155881680845260449091526040808420600101805460ff1916909317909255905190917f7866a4e258966d935dedb7b3a912110c549aba222af732ac3a2efb5609cb979291a25050505050565b60495481565b604054600160a060020a0316331461088a57600080fd5b604b805473ffffffffffffffffffffffffffffffffffffffff1916600160a060020a0392909216919091179055565b60455481565b600081604081106108cc57fe5b0154905081565b600080600080600080602060088851038115156108ec57fe5b061580156108fd5750610808875111155b151561090857600080fd5b50505050602083015185906008907801000000000000000000000000000000000000000000000000900460005b603f811015610ab75760018216151561095e576000816040811061095557fe5b0154945061097f565b6020830192508261ffff1687511015151561097857600080fd5b8287015194505b600188161515610a0e57604080516020808201879052818301889052825180830384018152606090920192839052815191929182918401908083835b602083106109da5780518252601f1990920191602091820191016109bb565b6001836020036101000a03801982511681845116808217855250505050505090500191505060405180910390209350610a8f565b604080516020808201889052818301879052825180830384018152606090920192839052815191929182918401908083835b60208310610a5f5780518252601f199092019160209182019101610a40565b6001836020036101000a038019825116818451168082178552505050505050905001915050604051809103902093505b600267ffffffffffffffff8316049150600267ffffffffffffffff8916049750600101610935565b5091979650505050505050565b60455481811515610ad157fe5b0615610b9b57610b408a8a8080601f0160208091040260200160405190810160405280939291908181526020018383808284375050604080516020601f8c018190048102820181019092528a815294508a935089925082915084018382808284375088945061145f9350505050565b1515610b96576040805160e560020a62461bcd02815260206004820152601d60248201527f4e6f7420696e636c7564656420696e206465706f73697420626c6f636b000000604482015290519081900360640190fd5b610cf5565b610c9f8c8c8080601f0160208091040260200160405190810160405280939291908181526020018383808284378201915050505050508b8b8080601f0160208091040260200160405190810160405280939291908181526020018383808284378201915050505050508a8a8080601f01602080910402602001604051908101604052809392919081815260200183838082843782019150505050505089898080601f0160208091040260200160405190810160405280939291908181526020018383808284375050604080516020601f8f018190048102820181019092528d815294508d93508c9250829150840183828082843782019150505050505087876115b9565b1515610cf5576040805160e560020a62461bcd02815260206004820152601660248201527f4e6f7420696e636c7564656420696e20626c6f636b7300000000000000000000604482015290519081900360640190fd5b60418d908060018154018082558091505090600182039060005260206000209060049182820401919006600802909192909190916101000a81548167ffffffffffffffff021916908367ffffffffffffffff16021790555050604080519081016040528033600160a060020a0316815260200142815250604260008f67ffffffffffffffff1667ffffffffffffffff16815260200190815260200160002060008201518160000160006101000a815481600160a060020a030219169083600160a060020a03160217905550602082015181600101559050506001604460008f67ffffffffffffffff1667ffffffffffffffff16815260200190815260200160002060010160006101000a81548160ff02191690836004811115610e1457fe5b021790555033600160a060020a03168d67ffffffffffffffff167fb2451f3e7d6dff5753a128f9a3982f46e0c287d3d3f71c87f13cc63a6081283d426040518082815260200191505060405180910390a350505050505050505050505050565b60435467ffffffffffffffff1681565b67ffffffffffffffff81166000908152604460205260409020546c010000000000000000000000009004600160a060020a03163314610f0d576040805160e560020a62461bcd02815260206004820152601860248201527f596f7520646f206e6f74206f776e2074686174205554584f0000000000000000604482015290519081900360640190fd5b600267ffffffffffffffff821660009081526044602052604090206001015460ff166004811115610f3a57fe5b14610f8f576040805160e560020a62461bcd02815260206004820152601a60248201527f596f752063616e6e6f742065786974207468617420636f696e21000000000000604482015290519081900360640190fd5b604b5467ffffffffffffffff80831660009081526044602081905260408083205481517f42842e0e00000000000000000000000000000000000000000000000000000000815230600482015233602482015294169184019190915251600160a060020a03909316926342842e0e92606480820193929182900301818387803b15801561101a57600080fd5b505af115801561102e573d6000803e3d6000fd5b5050505050565b60465481565b600367ffffffffffffffff861660009081526044602052604090206001015460ff16600481111561106857fe5b146110bd576040805160e560020a62461bcd02815260206004820152601860248201527f436f696e206e6f7420756e646572206368616c6c656e67650000000000000000604482015290519081900360640190fd5b5050505067ffffffffffffffff166000908152604460205260409020600101805460ff19166004179055565b60475481565b6044602052600090815260409020805460019091015467ffffffffffffffff82169168010000000000000000810463ffffffff16916c01000000000000000000000000909104600160a060020a03169060ff1684565b604054600160a060020a0316331461115c57600080fd5b604080518082018252828152426020808301918252604680546000908152604a909252939020915182555160019091015560455490546111a19163ffffffff6118f516565b60465550600160475543604855565b60006111db6047546111cf60455460465461190890919063ffffffff16565b9063ffffffff6118f516565b905090565b60418054829081106111ee57fe5b9060005260206000209060049182820401919006600802915054906101000a900467ffffffffffffffff1681565b604054600160a060020a031681565b6041546000805b8281101561133157604180548290811061124857fe5b6000918252602090912060048204015460039182166008026101000a900467ffffffffffffffff16925067ffffffffffffffff831660009081526044602052604090206001015460ff16600481111561129d57fe5b14156112a857611329565b6112b18261191a565b156113295767ffffffffffffffff82166000908152604260205260408120805473ffffffffffffffffffffffffffffffffffffffff191681556001015560418054829081106112fc57fe5b90600052602060002090600491828204019190066008026101000a81549067ffffffffffffffff02191690555b600101611232565b505050565b60426020526000908152604090208054600190910154600160a060020a039091169082565b604b54600090600160a060020a0316331461137557600080fd5b6113828484600185611a15565b507ff0b9e5ba000000000000000000000000000000000000000000000000000000009392505050565b6000806113b98685856108d3565b90941495945050505050565b604a602052600090815260409020805460019091015482565b6060808284018551101515156113f357600080fd5b8215801561140c57604051915060208201604052611456565b6040519150601f8416801560200281840101858101878315602002848b0101015b8183101561144557805183526020928301920161142d565b5050858452601f01601f1916604052505b50949350505050565b6000611469612246565b600061147486611cc5565b9150856040518082805190602001908083835b602083106114a65780518252601f199092019160209182019101611487565b6001836020036101000a038019825116818451168082178552505050505050905001915050604051809103902090506114f28583604001518360001916611d9b9092919063ffffffff16565b1515611548576040805160e560020a62461bcd02815260206004820152600b60248201527f496e76616c696420736967000000000000000000000000000000000000000000604482015290519081900360640190fd5b6000848152604a602052604090205481146115ad576040805160e560020a62461bcd02815260206004820181905260248201527f4465706f736974205478206e6f7420696e636c7564656420696e20626c6f636b604482015290519081900360640190fd5b50600195945050505050565b60006115c3612246565b6115cb612246565b6000806000806115da8e611cc5565b95506115e58d611cc5565b94508c6040518082805190602001908083835b602083106116175780518252601f1990920191602091820191016115f8565b51815160209384036101000a6000190180199092169116179052604080519290940182900390912060008e8152604a9092529290205491975090955061167a925061166791508c90506001610711565b604088015186919063ffffffff611d9b16565b15156116d0576040805160e560020a62461bcd02815260206004820152600b60248201527f496e76616c696420736967000000000000000000000000000000000000000000604482015290519081900360640190fd5b6040850151600160a060020a03163314611734576040805160e560020a62461bcd02815260206004820152600e60248201527f496e76616c69642073656e646572000000000000000000000000000000000000604482015290519081900360640190fd5b611744848487600001518e6113ab565b15156117c0576040805160e560020a62461bcd02815260206004820152602860248201527f45786974696e67207478206e6f7420696e636c7564656420696e20636c61696d60448201527f656420626c6f636b000000000000000000000000000000000000000000000000606482015290519081900360840190fd5b8d6040518082805190602001908083835b602083106117f05780518252601f1990920191602091820191016117d1565b51815160209384036101000a6000190180199092169116179052604080519290940182900390912060008f8152604a9092529290205460455492965094509092508b91505081151561183e57fe5b06156118555781811461185057600080fd5b6118e1565b611865828288600001518f6113ab565b15156118e1576040805160e560020a62461bcd02815260206004820152602960248201527f50726576696f7573207478206e6f7420696e636c7564656420696e20636c616960448201527f6d656420626c6f636b0000000000000000000000000000000000000000000000606482015290519081900360840190fd5b5060019d9c50505050505050505050505050565b8181018281101561190257fe5b92915050565b60008282111561191457fe5b50900390565b600061192461226d565b5067ffffffffffffffff821660009081526042602090815260409182902082518084019093528054600160a060020a031683526001015490820181905262093a8042919091031115611a0a57805167ffffffffffffffff841660008181526044602090815260409182902080546bffffffffffffffffffffffff166c01000000000000000000000000600160a060020a0396871602178155600101805460ff191660021790558451825194168452905191927f432647a5fb9bdea356d78f8e3d83b6ddc2e78b4e4a702ac7eb968f7fe03d9dda929081900390910190a260019150611a0f565b600091505b50919050565b611a1d612246565b600080611a2984611cc5565b604354815191945067ffffffffffffffff918216911614611a4957600080fd5b8463ffffffff16836020015163ffffffff16141515611a6757600080fd5b86600160a060020a03168360400151600160a060020a0316141515611a8b57600080fd5b606083015115611a9a57600080fd5b6040805160808101825267ffffffffffffffff8816815263ffffffff87166020820152600160a060020a03891691810191909152606081016000905260435467ffffffffffffffff908116600090815260446020908152604091829020845181549286015193860151600160a060020a03166c01000000000000000000000000026bffffffffffffffffffffffff63ffffffff90951668010000000000000000026bffffffff0000000000000000199290961667ffffffffffffffff1990941693909317169390931791909116178155606082015160018281018054909160ff1990911690836004811115611b8b57fe5b0217905550905050836040518082805190602001908083835b60208310611bc35780518252601f199092019160209182019101611ba4565b6001836020036101000a03801982511681845116808217855250505050505090500191505060405180910390209150611bfa6111b0565b6040805180820182528481524260208083019182526000858152604a90915292909220905181559051600191820155604754919250611c3f919063ffffffff6118f516565b6047556043546040805183815263ffffffff881660208201528151600160a060020a038b169367ffffffffffffffff16927f51f61c9bfc0c0871dbb1aa0ecfc2166a0b5f6e158a489d17454f1ef618ba5eea928290030190a350506043805467ffffffffffffffff8082166001011667ffffffffffffffff199091161790555050505050565b611ccd612246565b6060611cd7612246565b611cf16004611ce586611dc4565b9063ffffffff611de716565b9150611d14826000815181101515611d0557fe5b90602001906020020151611e75565b67ffffffffffffffff1681528151611d339083906001908110611d0557fe5b67ffffffffffffffff1660608201528151611d559083906002908110611d0557fe5b63ffffffff1660208201528151611d829083906003908110611d7357fe5b90602001906020020151611e99565b600160a060020a031660408201529150815b5050919050565b6000611da78484611ebe565b600160a060020a031682600160a060020a03161490509392505050565b611dcc61226d565b50805160408051808201909152602092830181529182015290565b6060611df1612284565b600083604051908082528060200260200182016040528015611e2d57816020015b611e1a61226d565b815260200190600190039081611e125790505b509250611e398561211a565b91505b83811015611e6d57611e4d8261213f565b8382815181101515611e5b57fe5b60209081029091010152600101611e3c565b505092915050565b6000806000611e8384612171565b90516020919091036101000a9004949350505050565b600080611ea583612171565b50516c0100000000000000000000000090049392505050565b600080600080600085516042141515611ed657600080fd5b856000815181101515611ee557fe5b90602001015160f860020a900460f860020a0260f860020a900460ff166002811115611f0d57fe5b9350602186015191506041860151905060ff604287015116925060016002811115611f3457fe5b846002811115611f4057fe5b1415611ff057604080517f19457468657265756d205369676e6564204d6573736167653a0a333200000000602080830191909152603c8083018b905283518084039091018152605c90920192839052815191929182918401908083835b60208310611fbc5780518252601f199092019160209182019101611f9d565b6001836020036101000a038019825116818451168082178552505050505050905001915050604051809103902096506120aa565b6002846002811115611ffe57fe5b14156120aa57604080517f19457468657265756d205369676e6564204d6573736167653a0a200000000000602080830191909152603b8083018b905283518084039091018152605b90920192839052815191929182918401908083835b6020831061207a5780518252601f19909201916020918201910161205b565b6001836020036101000a038019825116818451168082178552505050505050905001915050604051809103902096505b60408051600080825260208083018085528b905260ff8716838501526060830186905260808301859052925160019360a0808501949193601f19840193928390039091019190865af1158015612104573d6000803e3d6000fd5b5050604051601f19015198975050505050505050565b612122612284565b600061212d836121d4565b83519383529092016020820152919050565b61214761226d565b602082015160006121578261221a565b828452602080850182905292019390910192909252919050565b805180516000918291821a9082608083101561219357819450600193506121cc565b60b88310156121b157600186602001510393508160010194506121cc565b60b78303905080600187602001510303935080820160010194505b505050915091565b8051805160009190821a9060808210156121f15760009250611d94565b60b882108061220c575060c0821015801561220c575060f882105b15611d945760019250611d94565b8051600090811a60808110156122335760019150611a0f565b60b8811015611a0f57607e190192915050565b60408051608081018252600080825260208201819052918101829052606081019190915290565b604080518082019091526000808252602082015290565b60606040519081016040528061229861226d565b81526020016000815250905600a165627a7a7230582053c9d4d2cdca49b3bf4dbe1113b5c1a98d3b1f1ab88bb4f2f8f5e9e10cc2b00b0029",
  "source": "pragma solidity ^0.4.24;\n\n// Linked contract for withdrawals, import only safeTransferFrom interface for gas efficiency in the future\nimport './Cards.sol';\n\n// Zeppelin Imports\nimport 'openzeppelin-solidity/contracts/token/ERC721/ERC721Receiver.sol';\nimport 'openzeppelin-solidity/contracts/math/SafeMath.sol';\n\n// Lib deps\nimport '../Libraries/Transaction/Transaction.sol';\nimport '../Libraries/ByteUtils.sol';\nimport '../Libraries/ECVerify.sol';\n\n// Sparse Merkle Tree functionalities\nimport './SparseMerkleTree.sol';\n\ncontract RootChain is ERC721Receiver, SparseMerkleTree {\n    /*\n     * Events\n     */\n    event Deposit(uint64 indexed slot, uint256 depositBlockNumber, uint64 denomination, address indexed from);\n    event StartedExit(uint64 indexed slot, address indexed owner, uint created_at);\n    event ChallengedExit(uint64 indexed slot);\n    event FinalizedExit(uint64  indexed slot, address owner);\n\n    using SafeMath for uint256; // if few operations consider removing and doing asserts inline for less gas costs\n    using Transaction for bytes;\n    using ECVerify for bytes32;\n\n    /*\n     * Storage\n     */\n\n    address public authority;\n\n    // exits\n    uint64[] public exitSlots;\n    mapping(uint64 => Exit) public exits;\n\n    struct Exit {\n        address owner;\n        uint256 created_at;\n    }\n\n    enum State {\n        INIT,\n        EXITING,\n        EXITED,\n        CHALLENGED,\n        RESPONDED\n    }\n\n    // tracking of NFTs deposited in each slot\n    uint64 public NUM_COINS;\n    mapping (uint64 => NFT_UTXO) public coins; \n    struct NFT_UTXO {\n        uint64 uid; // there are up to 2^256 cards, can probably make it less\n        uint32 denomination; // an owner cannot own more than 256 of a card. Currently set to 1 always, subject to change once the token changes\n        address owner; // who owns that nft\n        State state;\n    }\n\n    // child chain\n    uint256 public childBlockInterval;\n    uint256 public currentChildBlock;\n    uint256 public currentDepositBlock;\n    uint256 public lastParentBlock;\n    struct childBlock {\n        bytes32 root;\n        uint256 created_at;\n    }\n\n    uint public depositCount;\n    mapping(uint => childBlock) public childChain;\n    CryptoCards cryptoCards;\n\n    /*\n     * Modifiers\n     */\n    modifier isAuthority() {\n        require(msg.sender == authority);\n        _;\n    }\n\n    constructor () public{\n        authority = msg.sender;\n\n\t\tchildBlockInterval = 1000;\n        currentChildBlock = childBlockInterval;\n        currentDepositBlock = 1;\n        lastParentBlock = block.number; // to ensure no chain reorgs\n\n    }\n\n    function setCryptoCards(CryptoCards _cryptoCards) isAuthority public {\n        cryptoCards = _cryptoCards;\n    }\n\n    /// @param root 32 byte merkleRoot of ChildChain block\n    /// @notice childChain blocks can only be submitted at most every 6 root chain blocks\n    function submitBlock(bytes32 root)\n        public\n        isAuthority\n    {\n        // ensure finality on previous blocks before submitting another\n        // require(block.number >= lastParentBlock.add(6)); // commented out while prototyping\n\n        childChain[currentChildBlock] = childBlock({\n            root: root,\n            created_at: block.timestamp\n        });\n\n        currentChildBlock = currentChildBlock.add(childBlockInterval);\n        currentDepositBlock = 1;\n        lastParentBlock = block.number;\n\t}\n\n\n    /// @dev Allows anyone to deposit funds into the Plasma chain, called when contract receives ERC721\n    function deposit(address from, uint64 uid, uint32 denomination, bytes txBytes)\n        private\n    {\n        Transaction.TX memory txData = txBytes.getTx();\n        // Verify that the transaction data sent matches the coin data from ERC721\n        require(txData.slot == NUM_COINS);\n        require(txData.denomination == denomination);\n        require(txData.owner == from);\n        require(txData.prevBlock == 0);\n\n        // Update state \"tree\"\n        coins[NUM_COINS] = NFT_UTXO({\n                uid: uid, \n                denomination: denomination,\n                owner: from, \n                state: State.INIT \n        });\n\n        bytes32 txHash = keccak256(txBytes);\n        uint256 depositBlockNumber = getDepositBlock();\n\n        childChain[depositBlockNumber] = childBlock({\n            root: txHash, // save signed transaction hash as root\n            created_at: block.timestamp\n        });\n\n        currentDepositBlock = currentDepositBlock.add(1);\n        emit Deposit(NUM_COINS, depositBlockNumber, denomination, from); // create a utxo at slot `NUM_COINS`\n\n        NUM_COINS += 1;\n    }\n\n    function startExit(\n        uint64 slot,\n        bytes prevTxBytes, bytes exitingTxBytes, \n        bytes prevTxInclusionProof, bytes exitingTxInclusionProof, \n        bytes sigs,\n        uint prevTxIncBlock, uint exitingTxIncBlock) \n        external\n    {\n        // Different inclusion check depending on if we're exiting a deposit transaction or not\n        if (exitingTxIncBlock % childBlockInterval != 0 ) { \n           require(\n                checkDepositBlockInclusion(\n                    exitingTxBytes, \n                    sigs, // for deposit blocks this is just a single sig\n                    exitingTxIncBlock\n                ),\n                \"Not included in deposit block\"\n            );\n        } else {\n            require(\n                checkBlockInclusion(\n                    prevTxBytes, exitingTxBytes,\n                    prevTxInclusionProof, exitingTxInclusionProof,\n                    sigs,\n                    prevTxIncBlock, exitingTxIncBlock\n                ), \n                \"Not included in blocks\"\n            );\n        }\n\n        exitSlots.push(slot);\n        exits[slot] = Exit({\n            owner: msg.sender, \n            created_at: block.timestamp\n        });\n        coins[slot].state = State.EXITING;\n\n        emit StartedExit(slot, msg.sender, block.timestamp);\n    }\n\n    function getSig(bytes sigs, uint i) public pure returns(bytes) {\n        return ByteUtils.slice(sigs, 66 * i,  66);\n    }\n\n    function checkDepositBlockInclusion(\n        bytes txBytes,\n        bytes signature,\n        uint txIncBlock\n    )\n         private \n         view \n         returns (bool) \n    {\n        Transaction.TX memory txData = txBytes.getTx();\n        bytes32 txHash = keccak256(txBytes); \n\n        require(txHash.ecverify(signature, txData.owner), \"Invalid sig\");\n        require(\n            txHash == childChain[txIncBlock].root, \n            \"Deposit Tx not included in block\"\n        );\n\n        return true;\n    }\n\n\n    function checkBlockInclusion(\n            bytes prevTxBytes, bytes exitingTxBytes,\n            bytes prevTxInclusionProof, bytes exitingTxInclusionProof,\n            bytes sigs,\n            uint prevTxIncBlock, uint exitingTxIncBlock) \n            private\n            view\n            returns (bool)\n    {\n        Transaction.TX memory prevTxData = prevTxBytes.getTx();\n        Transaction.TX memory exitingTxData = exitingTxBytes.getTx();\n\n        bytes32 txHash = keccak256(exitingTxBytes);\n        bytes32 root = childChain[exitingTxIncBlock].root;\n\n        require(txHash.ecverify(getSig(sigs, 1), prevTxData.owner), \"Invalid sig\");\n        require(exitingTxData.owner == msg.sender, \"Invalid sender\");\n        \n        require(\n            checkMembership(\n                txHash,\n                root, \n                exitingTxData.slot, \n                exitingTxInclusionProof\n            ),\n            \"Exiting tx not included in claimed block\"\n        );\n\n        bytes32 prevTxHash = keccak256(prevTxBytes);\n        bytes32 prevRoot = childChain[prevTxIncBlock].root;\n\n        if (prevTxIncBlock % childBlockInterval != 0 ) { \n            require(prevTxHash == prevRoot); // like in deposit block\n        } else {\n            require(\n                checkMembership(\n                    prevTxHash,\n                    prevRoot, \n                    prevTxData.slot,\n                    prevTxInclusionProof\n                ),\n                \"Previous tx not included in claimed block\"\n            );\n        }\n\n        return true;\n    }\n\n    function finalizeExit(uint64 slot) private returns (bool exited) {\n         Exit memory currentExit = exits[slot];\n         if ((block.timestamp - currentExit.created_at) > 7 days) {\n            coins[slot].owner = currentExit.owner;\n            coins[slot].state = State.EXITED;\n            emit FinalizedExit(slot, currentExit.owner);\n            return true;\n         } else {\n             return false;\n         }\n    }\n\n    function finalizeExits() external {\n        uint exitSlotsLength = exitSlots.length;\n        uint64 slot;\n        for (uint i = 0; i < exitSlotsLength; i++) { \n            slot = exitSlots[i];\n\n            if (coins[slot].state == State.CHALLENGED) continue; // If a coin has been challenged, do not exit it.\n            if (finalizeExit(slot)) {\n                delete exits[slot];\n                delete exitSlots[i];\n            }\n        }\n    }\n\n\n    // CHALLENGES Require bonds in order to avoid griefing! \n\n    // Submit proof of a transaction before prevTx \n    // Exitor has to call respondChallengeBefore and submit a transaction before prevTx or prevTx itself.'''\n    function challengeBefore(uint64 slot, bytes challengingTransaction, bytes proof) external {\n        require(coins[slot].state == State.EXITING, \"Coin not being exited\");\n        challengingTransaction;\n        proof;\n\n        delete exits[slot];    \n        delete exitSlots[slot];\n        coins[slot].state = State.CHALLENGED;\n        emit ChallengedExit(slot);\n    }\n\n\n    function challengeBetween(uint64 slot, bytes challengingTransaction, bytes proof) external {\n        require(coins[slot].state == State.EXITING, \"Coin not being exited\");\n        challengingTransaction;\n        proof;\n\n        delete exits[slot];    \n        delete exitSlots[slot];\n        coins[slot].state = State.CHALLENGED;\n        emit ChallengedExit(slot);\n    }\n\n    function challengeAfter(uint64 slot, bytes challengingTransaction, bytes proof) external {\n        require(coins[slot].state == State.EXITING, \"Coin not being exited\");\n        challengingTransaction;\n        proof;\n\n        delete exits[slot];    \n        delete exitSlots[slot];\n        coins[slot].state = State.CHALLENGED;\n        emit ChallengedExit(slot);\n    }\n\n    // If `challengeBefore` was successfully challenged, then set state to RESPONDED and allow the coin to be exited. \n    function respondChallengeBefore(uint64 slot, bytes challengingTransaction, bytes proof) external {\n        require(coins[slot].state == State.CHALLENGED, \"Coin not under challenge\");\n        challengingTransaction;\n        proof;\n        coins[slot].state = State.RESPONDED;\n    }\n\n    // Withdraw a UTXO that has been exited\n    function withdraw(uint64 slot) external {\n        require(coins[slot].owner == msg.sender, \"You do not own that UTXO\");\n        require(coins[slot].state == State.EXITED, \"You cannot exit that coin!\");\n        cryptoCards.safeTransferFrom(address(this), msg.sender, uint256(coins[slot].uid));\n    }\n\n    function getDepositBlock() public view returns (uint256) {\n        return currentChildBlock.sub(childBlockInterval).add(currentDepositBlock);\n    }\n\n    /// receiver for erc721 to trigger a deposit\n    function onERC721Received(address _from, uint256 _uid, bytes _data) \n        public \n        returns(bytes4) \n    {\n        require(msg.sender == address(cryptoCards)); // can only be called by the associated cryptocards contract. \n        deposit(_from, uint64(_uid), uint32(1), _data);\n        return ERC721_RECEIVED;\n    }\n}\n\n",
  "sourcePath": "/home/opsec/loom/PLASMA-RESEARCH/cash-erc721/server/contracts/Core/RootChain.sol",
  "compiler": {
    "name": "solc",
    "version": "0.4.24+commit.e67f0147.Emscripten.clang"
  },
  "schemaVersion": "2.0.0",
  "updatedAt": "2018-05-25T17:47:09.099Z"
}