{
  "contractName": "SparseMerkleTree",
  "abi": [
    {
      "constant": true,
      "inputs": [
        {
          "name": "",
          "type": "uint256"
        }
      ],
      "name": "defaultHashes",
      "outputs": [
        {
          "name": "",
          "type": "bytes32"
        }
      ],
      "payable": false,
      "stateMutability": "view",
      "type": "function"
    },
    {
      "inputs": [],
      "payable": false,
      "stateMutability": "nonpayable",
      "type": "constructor"
    },
    {
      "constant": true,
      "inputs": [
        {
          "name": "leaf",
          "type": "bytes32"
        },
        {
          "name": "root",
          "type": "bytes32"
        },
        {
          "name": "tokenID",
          "type": "uint64"
        },
        {
          "name": "proof",
          "type": "bytes"
        }
      ],
      "name": "checkMembership",
      "outputs": [
        {
          "name": "",
          "type": "bool"
        }
      ],
      "payable": false,
      "stateMutability": "view",
      "type": "function"
    }
  ],
  "bytecode": "0x608060405234801561001057600080fd5b507f290decd9548b62a8d60345a988386fc84ba6bc95484008f6362f93160ef3e56360005561004a6001604064010000000061004f810204565b6100c5565b815b8160ff168160ff1610156100c057600060ff6000198301166040811061007357fe5b0154600060ff6000198401166040811061008957fe5b015460408051928352602083019190915280519182900381019091209060009060ff84169081106100b657fe5b0155600101610051565b505050565b610279806100d46000396000f30060806040526004361061004b5763ffffffff7c010000000000000000000000000000000000000000000000000000000060003504166348419ad88114610050578063f586df651461007a575b600080fd5b34801561005c57600080fd5b506100686004356100fb565b60408051918252519081900360200190f35b34801561008657600080fd5b50604080516020601f6064356004818101359283018490048402850184019095528184526100e794803594602480359567ffffffffffffffff60443516953695608494930191819084018382808284375094975061010f9650505050505050565b604080519115158252519081900360200190f35b6000816040811061010857fe5b0154905081565b60008061011d868585610129565b90941495945050505050565b6000806000806000806020600888510381151561014257fe5b061580156101535750610808875111155b151561015e57600080fd5b50505050602083015185906008907801000000000000000000000000000000000000000000000000900460005b603f811015610240576001821615156101b457600081604081106101ab57fe5b015494506101d5565b6020830192508261ffff168751101515156101ce57600080fd5b8287015194505b6001881615156101fd5760408051948552602085018690528051948590030190932092610218565b60408051868152602081019590955280519485900301909320925b600267ffffffffffffffff8316049150600267ffffffffffffffff891604975060010161018b565b50919796505050505050505600a165627a7a723058205b28cf637f5d57ec7af2d53573b9dc69c0fc66b091896dd7d38e78341dc5b3760029",
  "source": "pragma solidity ^0.4.23;\n\n// Based on https://rinkeby.etherscan.io/address/0x881544e0b2e02a79ad10b01eca51660889d5452b#code\ncontract SparseMerkleTree {\n\n    uint8 constant DEPTH = 64;\n    bytes32[DEPTH] public defaultHashes;\n    \n    constructor() public {\n        // keccak256(uint256(0));\n        defaultHashes[0] = 0x290decd9548b62a8d60345a988386fc84ba6bc95484008f6362f93160ef3e563;\n        setDefaultHashes(1, DEPTH);\n    }\n\n    function setDefaultHashes(uint8 startIndex, uint8 endIndex) private {\n        for (uint8 i = startIndex; i < endIndex ; i ++) {\n            defaultHashes[i] = keccak256(defaultHashes[i-1], defaultHashes[i-1]);\n        }\n    }\n\n    function checkMembership(bytes32 leaf, bytes32 root, uint64 tokenID, bytes proof) public view returns (bool) {\n        bytes32 computedHash = getRoot(leaf, tokenID, proof);\n        return (computedHash == root);\n    }\n\n    // first 64 bits of the proof are the 0/1 bits\n    function getRoot(bytes32 leaf, uint64 index, bytes proof) internal view returns (bytes32) {\n        require((proof.length - 8) % 32 == 0 && proof.length <= 2056);\n        bytes32 proofElement;\n        bytes32 computedHash = leaf;\n        uint16 p = 8;\n        uint64 proofBits;\n        assembly { proofBits := div(mload(add(proof, 32)), exp(256, 24))}\n\n        for (uint d = 0; d < DEPTH-1; d++ ) {\n            if (proofBits % 2 == 0) { // check if last bit of proofBits is 0\n                proofElement = defaultHashes[d];\n            } else {\n                p +=32;\n                require(proof.length >= p);\n                assembly { proofElement := mload(add(proof, p)) }\n            }\n            if (index % 2 == 0) {\n                computedHash = keccak256(computedHash, proofElement);\n            }else{\n                computedHash = keccak256(proofElement, computedHash);\n            }\n            proofBits = proofBits / 2; // shift it right for next bit\n            index = index / 2;\n        }\n        return computedHash;\n    }\n}\n",
  "sourcePath": "/home/opsec/loom/PLASMA-RESEARCH/cash-erc721/server/contracts/Core/SparseMerkleTree.sol",
  "compiler": {
    "name": "solc",
    "version": "0.4.23+commit.124ca40d.Emscripten.clang"
  },
  "schemaVersion": "2.0.0",
  "updatedAt": "2018-05-24T12:52:35.628Z"
}